:100000000C946B010C949C010C949C010C949C012D
:100010000C949C010C949C010C949C010C949C01EC
:100020000C949C010C94C71D0C94C71D0C94C71D07
:100030000C949C010C946C1A0C949C010C949C01E3
:100040000C949C010C949C010C949C010C949C01BC
:100050000C949C010C949C010C949C010C94591CD4
:100060000C949C010C942F1C0C94051C0C949C016A
:100070000C949C010C949C010C949C010C949C018C
:100080000C949C010C949C010C949C010C949C017C
:100090000C94DB1B0C94B11B0C949C010C94A31CC2
:1000A0000C949C010C949C010C949C010C949C015C
:1000B0000C949C010C949C010C949C010C949C014C
:1000C0000C949C010C949C010C949C010C94871B37
:1000D0000C945D1B0C949C010C94331B0C94091B19
:1000E0000C949C010C947F090C948B070C94500386
:1000F0000C949B040C9479040C9464040C943B08B9
:100100000C9491040C9401040C9470090C944D10FF
:100110000C949E010C94D2070C945D060C946A0416
:100120000C94E7020C94A9040C94CA2A0C9483043E
:100130000C9472040C9492070C9497040C94A208EB
:100140000C9489040C947F040C94A4040C943C0338
:100150000C949F040C942D030C94A5040C94920908
:100160000C949F010C94B1080C948D040C94B4036E
:100170000C94E21D0C944F100C946E040C946C0BB8
:100180000C94C6090C94C00F0C94A1070C9401099F
:100190000C945E030C9499090C9479070C945D07F8
:1001A0000C9476040C946F090C946F080C944B100B
:1001B000000020002300260029002C002F00320020
:1001C0000001000003010601090100000A0B0209F9
:1001D0000C0D0E08070304010000000000000000E1
:1001E000000000000000000000000000000000000F
:1001F00000000000000012111000000000000000CC
:1002000000000000000000000000000000000000EE
:100210000200002200250028002B002E00310034AF
:100220000002010000050108010B0100002100246B
:100230000027002A002D00300033000101000004D7
:100240000107010A01050505050705080808080258
:100250000202020A0A08080404040401010101015F
:100260000101010303030303030303040707070C4E
:100270000C0C0C0C0C0C0C02020202060606060604
:100280000606060B0B0B0B0B0B0B0B0102102020B1
:1002900008081020401020408002010201080402DA
:1002A0000101020408102040808040201008040250
:1002B00001800402018040201008040201080402A9
:1002C00001010204081020408001020408102040AF
:1002D0008000E21DCA2A11241FBECFEFD1E2DEBF8B
:1002E000CDBF00E00CBF12E0A0E0B2E0E4ECFEE520
:1002F00000E00BBF02C007900D92A838B107D9F7F4
:1003000027E0A8E8B2E001C01D92A137B207E1F7EB
:1003100011E0CAE6D1E000E006C021970109802F74
:10032000FE010E941A2EC936D10780E00807A9F7FE
:100330000E94AA1E0C94502F0C940000089508955A
:10034000982F2091810481E0213208F043C08091F0
:1003500080048111FCCF8091790432E030938004D5
:1003600090937F049FEF909357041092560420932C
:100370005504A9E5B4E0E5E3F4E090E0291331C0C9
:100380001092340490913404880F892B80933404A4
:1003900080917E04813049F510927E04809134046E
:1003A0008093BB008091BC0083FDF8CF85EC8093E7
:1003B000BC00809180048230E1F3809157048F3F2C
:1003C000B1F0809157048032A1F0809157048033BE
:1003D00091F084E0109282041092810410925804EB
:1003E00008953D9131939F5FC9CF85EEE0CF80E0C6
:1003F000F1CF82E0EFCF83E0EDCF81E00C94A0015C
:1004000091E09093580480937904109282041092A2
:1004100081040895909180049111FCCF91E0909314
:10042000800490937F042FEF20935704109256047A
:10043000260F209355049093340490913404880F30
:10044000892B8093340480917E048130F9F41092DA
:100450007E04809134048093BB008091BC0083FDB6
:10046000F8CF85EC8093BC00809180048130E1F36B
:1004700080915604861710F460915604A5E3B4E009
:10048000E4E1F4E080E0861303C0089585EEEACF4E
:100490009D9191938F5FF7CFCF92DF92EF92FF9272
:1004A000CF93DF93EC016A017B01E889F98982E04F
:1004B0008083C11481EED806E104F104A1F060E06C
:1004C00079E08DE390E0A70196010E94A62B2150D0
:1004D00031094109510956954795379527952115B9
:1004E00080E1380798F0E889F989108260E874E8BB
:1004F0008EE190E0A70196010E94A62B21503109C0
:10050000410951095695479537952795EC85FD8505
:100510003083EE85FF852083188EEC89FD8986E087
:100520008083EA89FB89808180618083EA89FB89F5
:10053000808188608083EA89FB89808180688083EC
:10054000EA89FB8980818F7D8083DF91CF91FF9045
:10055000EF90DF90CF900895E8E1F7E090E02FEF83
:100560003FEF981791F04191242748E0B90161705D
:10057000772736952795672B21F051E0252750EAFC
:100580003527415099F79F5FECCF922F832F089525
:1005900090E0FC01E557FD4F24918B5B9D4FFC01E2
:1005A0008491882399F090E0880F991FFC01E55D04
:1005B000FD4FA591B491FC01EF5EFD4F85919491A3
:1005C0008FB7F894EC91E22BEC938FBF0895AF9224
:1005D000BF92CF92DF92EF92FF920F931F93CF9330
:1005E000DF936C017B018B01040F151FEB015E0192
:1005F000AE18BF08C017D10759F06991D601ED9127
:10060000FC910190F081E02DC6011995892B79F7B5
:10061000C501DF91CF911F910F91FF90EF90DF9077
:10062000CF90BF90AF900895FC01A089B1898C91C3
:10063000A689B78982FD0FC09C91818D8F5F8F73D2
:10064000228D821749F0A18DAE0FBF2FB11D5D968F
:100650009C93818F08958C910895FC01538D448D56
:10066000252F30E0842F90E0821B930B541710F05D
:10067000CF96089501970895FC01918D828D98176A
:1006800061F0A28DAE0FBF2FB11D5D968C91928D42
:100690009F5F9F73928F90E008958FEF9FEF089573
:1006A000FC01918D828D981731F0828DE80FF11D3C
:1006B000858D90E008958FEF9FEF0895FC01918D57
:1006C000228D892F90E0805C9F4F821B91098F7350
:1006D0009927089585E894E00E945E0321E0892B24
:1006E00009F420E0822F089582E295E00E945E03E3
:1006F00021E0892B09F420E0822F08958FEB95E00B
:100700000E945E0321E0892B09F420E0822F0895E6
:100710008CE596E00E945E0321E0892B09F420E03D
:10072000822F0895FC01A48DA80FB92FB11DA35AE3
:10073000BF4F2C91848D90E001968F739927848F01
:10074000A689B7892C93A089B1898C918370806424
:100750008C93938D848D981306C00288F389E02DC5
:1007600080818F7D80830895EF92FF920F931F9376
:10077000CF93DF93EC0181E0888F9B8D8C8D981354
:100780001AC0E889F989808185FF15C09FB7F89460
:10079000EE89FF896083E889F989808183708064AC
:1007A00080839FBF81E090E0DF91CF911F910F91F7
:1007B000FF90EF900895F62E0B8D10E00F5F1F4F06
:1007C0000F731127E02E8C8D8E110CC00FB607FC15
:1007D000FACFE889F989808185FFF5CFCE010E94A3
:1007E0009203F1CFEB8DEC0FFD2FF11DE35AFF4F7C
:1007F000F0829FB7F8940B8FEA89FB898081806231
:10080000CFCFCF93DF93EC01888D8823B9F0AA89ED
:10081000BB89E889F9898C9185FD03C0808186FDBB
:100820000DC00FB607FCF7CF8C9185FFF2CF80810A
:1008300085FFEDCFCE010E949203E9CFDF91CF91EA
:10084000089580E090E0892B29F00E9488038111AF
:100850000E94000080E090E0892B29F00E947E0336
:1008600081110E94000080E090E0892B29F00E9415
:10087000740381110E94000080E090E0892B29F030
:100880000E946A0381110C94000008958150823106
:1008900008F05AC0E82FF0E08827EE5AFB4F8F4F40
:1008A0000C941A2E7204760464046A046E04A40480
:1008B00079047F04830489048D04910497049B04C4
:1008C000A4049F04A504A904809180008F778093DD
:1008D00080000895809180008F7DF9CF8091800005
:1008E000877FF5CF84B58F7784BD089584B58F7DDC
:1008F000FBCF8091B0008F778093B00008958091F6
:10090000B0008F7DF9CF809190008F778093900019
:100910000895809190008F7DF9CF80919000877F1E
:10092000F5CF8091A0008F778093A00008958091EB
:10093000A0008F7DF9CF8091A000877FF5CF8091B7
:1009400020018F77809320010895809120018F7D71
:10095000F9CF80912001877FF5CF1F93CF93DF934D
:10096000282F30E0F901E653FE4F8491F901E55755
:10097000FD4FD491F901EB5BFD4FC491CC23A9F05D
:10098000162F81110E944604EC2FF0E0EE0FFF1F9E
:10099000EF5EFD4FA591B4918FB7F894EC911111D2
:1009A00008C0D095DE23DC938FBFDF91CF911F91DC
:1009B0000895DE2BF8CF10928404109283041092D5
:1009C0008204109281041092800481E080937F045D
:1009D00010927E0461E084E10E94AD0461E085E153
:1009E0000E94AD04E9EBF0E080818E7F80838081FE
:1009F0008D7F808388E48093B80085E48093BC0079
:100A00008EE991E090937D0480937C048FE991E0DE
:100A100090937B0480937A0408953FB7F894809173
:100A2000F1029091F202A091F302B091F40226B586
:100A3000A89B05C02F3F19F00196A11DB11D3FBF16
:100A4000BA2FA92F982F8827BC01CD01620F711DE5
:100A5000811D911D42E0660F771F881F991F4A95DF
:100A6000D1F708958F929F92AF92BF92CF92DF926B
:100A7000EF92FF926B017C010E940D054B015C011E
:100A8000C114D104E104F104B9F00E940D05681904
:100A900079098A099B09683E73408105910580F3B5
:100AA00021E0C21AD108E108F10888EE880E83E03F
:100AB000981EA11CB11CE4CFFF90EF90DF90CF9067
:100AC000BF90AF909F908F9008952FB7F89460914A
:100AD000ED027091EE028091EF029091F0022FBF33
:100AE0000895CF93C09158078C2F0E94AC02EC2F31
:100AF000F0E0E15FF84F9187E1E0EC0FF0E0E15FBB
:100B0000F84F8187CE5FC093580790911507809169
:100B100014079230C0F0823009F474C0833009F4B5
:100B200077C0813009F07AC09091C80090649093AA
:100B3000C800909105019064909305019091050182
:100B40009062909305014091580750E0843008F07E
:100B50006BC080910F0790911007DC01ED91FC9123
:100B60000280F381E02D68E177E0199590911507F7
:100B7000809114079230B8F0823009F45AC0833063
:100B800009F45CC0813009F05EC09091C80096FF06
:100B9000FCCF909105019F7B9093050190910501F9
:100BA0009F7D90930501843008F052C080910F071B
:100BB00090911007DC01ED91FC910284F385E02D0A
:100BC000199597FFF3CF109258070E946505209161
:100BD000620730916307620F731F811D911D60933F
:100BE00068077093690780936A0790936B078091F9
:100BF0005E0790915F07019690935F0780935E0771
:100C0000CF9108959091D00090649093D00091CFAF
:100C1000909130019064909330018BCF9091C000FF
:100C200090649093C00085CF809111079091120736
:100C300094CF9091D00096FFFCCFABCF9091300134
:100C400096FFFCCFA6CF9091C00096FFFCCFA1CF1E
:100C50008091110790911207DC01ED91FC910284C3
:100C6000F385E02D199597FFF3CFADCF8F929F922B
:100C7000AF92BF92CF92DF92EF92FF920F931F93AA
:100C8000CF93DF938AE093E090935B0780935A07BA
:100C900085E880936C07809114078430E0F480919C
:100CA0000F0790911007DC01ED91FC910084F18514
:100CB000E02D1995811114C0C0E08C2FDF91CF91E8
:100CC0001F910F91FF90EF90DF90CF90BF90AF906A
:100CD0009F908F9008958091110790911207E3CF14
:100CE00090915907891789F0809359070E946505EB
:100CF0006B5F7F4F8F4F9F4F6093640770936507C3
:100D00008093660790936707D7CF0E94650500918F
:100D10006407109165072091660730916707601797
:100D200071078207930740F21092590780911507C7
:100D3000823050F0809105018F7B80930501809176
:100D400005018F7D8093050110925807809114074B
:100D5000C0E0843040F18091110790911207DC01CE
:100D6000ED91FC910084F185E02D1995892B09F412
:100D70003FC08091110790911207DC01ED91FC9129
:100D80000284F385E02D199590915807E92FF0E042
:100D9000E15FF84F81879F5F909358079034D8F2B6
:100DA000C1E0D9CFC1E080910F0790911007DC011D
:100DB000ED91FC910084F185E02D1995892BC1F00E
:100DC00080910F0790911007DC01ED91FC91028456
:100DD000F385E02D199590915807E92FF0E0E15F38
:100DE000F84F81879F5F909358079034D8F6DBCFF8
:100DF00080915C0790915D07019690935D078093C9
:100E00005C07CC2371F08091600790916107019697
:100E100090936107809360078DEF80931707CDEF64
:100E20004CCFC0915807C0931707C7300CF445CF7B
:100E3000909118078091130798133ECF0C2F10E064
:100E40008EEF8C0F0E94AC02F801E15FF84F278112
:100E500030852327322723272817390769F0809107
:100E600060079091610701969093610780936007F6
:100E7000CFEFC093170721CF20911907E0E1F2E0EF
:100E80008191821709F4DEC1B2E0E831FB07C1F7B6
:100E9000809160079091610701969093610780931C
:100EA0006007C1E0205820931907C0931A0783E018
:100EB000809358070E947105DCCF80911A079091AA
:100EC0001B07982789279827AC01F4E0569547958A
:100ED000FA95E1F780911C0790911D0798278927C3
:100EE0009827A4E096958795AA95E1F7840F951F1A
:100EF0000CC080911A0790911B0798278927982783
:100F0000E4E096958795EA95E1F790916C0798173C
:100F1000C0F4C2E0C7CF80911A0790911B079827B1
:100F20008927F3CF80911C0790911D079827892767
:100F3000982740911A0750911B075427452754279B
:100F4000D5CF0E9465052091620730916307620F3B
:100F5000731F811D911D60936807709369078093CB
:100F60006A0790936B0710921707E0911907E150F9
:100F7000E03108F0A2CEF0E08827EE53F84F8F4F13
:100F80000C941A2ED207D2073B083B086F08A20820
:100F90005D065D065D065D065D065D065D065D0639
:100FA000B108010980911A0790911B07982789279A
:100FB000982700911C0710911D0710270127102763
:100FC000A80173E0569547957A95E1F7242FE8013B
:100FD000C770DD27209711F021E0240F20931A0716
:100FE00023E020935807080F191F30E0C12CD12CA3
:100FF0007601C3940817190791F1E22FF0E0B701C9
:10100000A601032E04C0440F551F661F771F0A94C4
:10101000D2F7E15FF84FB184DC0153E0B695A795B4
:101020005A95E1F7AE7FB170A65FBC4F8D909C9052
:10103000A82FAF70AA2ED40102C0B695A795AA9486
:10104000E2F7A0FF09C04B2941873F5F383010F01D
:101050002F5F30E00196CECF40954B21F5CFCD2BC1
:1010600041F420935807C0915807CE5F0E94710544
:1010700024CE2F5FF6CF80911A0790911B079827F7
:101080008927982F20911C0730911D07322723278D
:10109000322F330F30931A07E3E0280F3327331F23
:1010A000C2E0CE0FA92FB0E0A217B307ACF4AA0F8D
:1010B000BB1FA65FBC4F8C9111964C91AE2FB0E038
:1010C000A15FB84F19964C93EF5FF0E0E15FF84FE6
:1010D00081879F5FEC2FE4CFE0935807C7CF209123
:1010E0001A0730911B07322723273227F90173E0B3
:1010F000F695E7957A95E1F7EE7FF170E65FFC4FA4
:10110000408151812F7081E090E0A0E0B0E004C008
:10111000880F991FAA1FBB1F2A95D2F720911C0781
:101120002F3F59F4842B952B9183808386E0809305
:1011300058070E947105C8E0C0CD80959095842322
:101140009523F2CFE0911B07F0E0EE0FFF1FE65F63
:10115000FC4F80911C0790911D079827892798279D
:10116000E3CF80911A0790911B079827892798272A
:1011700020911C0730911D07322723273227280F83
:10118000391F10E007E0C12CD12C7601C394281739
:10119000390761F2FC0143E0F695E7954A95E1F7DE
:1011A000EE7FF170E65FFC4F482F4F70460157010C
:1011B00004C0880C991CAA1CBB1C4A95D2F7A40138
:1011C000C081D181A02FB0E0A15FB84F1996AC913A
:1011D000B0E0012E02C0B595A7950A94E2F7A0FFF2
:1011E0000BC04C2B5D2B518340831F5F183010F0D8
:1011F0000F5F10E00196CBCF409550954C235D23B7
:10120000F2CFE0911B0740911D0710921C0786E06A
:1012100080935807AFE0B7E0F0E0EE0FFF1FE65F06
:10122000FC4F80E01296481709F483CF1E962C914C
:101230001E971F969C911F97322F292F2193319330
:101240008F5FF0CFEFEFE20FE03108F07ACEF0E001
:101250008827E25DF64F8F4F0C941A2E5D075D07CD
:101260009207920779078B07A107A107A107A1079A
:10127000A107A107A107A1075D07920785ED80934C
:10128000BC008091BC0084FDFCCF109280040895C6
:101290002091C902260F3327331F21323105ECF488
:1012A00020918004FC0190E080E0243069F082E02D
:1012B0000895A091C9022191AC0147555D4FA40F3B
:1012C000B52FB11D2C930196861798F38091C90212
:1012D000680F6093C90280E0089581E00895089541
:1012E000E091840480918304E81730F4F0E0EC5E30
:1012F000FB4F808190E008958FEF9FEF08959091CC
:101300008404809183042FEF3FEF981748F4E92F6E
:10131000F0E0EC5EFB4F208130E09F5F909384040F
:10132000C90108958091830490918404891B990BCD
:101330000895CF92DF92EF92FF920F931F93CF9376
:10134000DF937C01CB018A0120915804222389F08C
:10135000EB016B01C40ED51ECC15DD0569F069915A
:10136000D701ED91FC910190F081E02DC701199515
:10137000F3CF642F0E944809C801DF91CF911F91DC
:101380000F91FF90EF90DF90CF900895CF93DF9370
:101390001F92CDB7DEB76983209158042223F9F05C
:1013A00020918104203258F021E030E0FC013383A9
:1013B000228390E080E00F90DF91CF91089580919B
:1013C0008204E82FF0E0E75AFB4F998190838F5F0A
:1013D000809382048093810481E090E0ECCF61E00F
:1013E000CE0101960E944809F7CFCF93DF93EB011E
:1013F0000E94000261E089EF96E00E94C6096D2F0D
:1014000089EF96E00E94C6096C2F89EF96E00E9452
:10141000C609DF91CF910C94FD01682F89EF96E00A
:101420000C94C6091F93CF93DF93EC01162F809184
:101430000D070E9400028D2F90E00E940D0ACE0140
:1014400099270E940D0A612F89EF96E00E94C60934
:10145000DF91CF911F910C94FD01682F89EF96E0E9
:101460000C94C6094F925F926F927F928F929F92D7
:10147000AF92BF92CF92DF92EF92FF920F931F93A2
:10148000CF93DF9300D000D000D01F92CDB7DEB74E
:101490009A8789872A013B0109831A832B833C831E
:1014A000DC019196BC92AE92909781E0AA94AB2811
:1014B00009F080E0E985FA8583AF4682578260862D
:1014C000718689819A81AB81BC8182879387A48749
:1014D000B587C686D786E08AF18A66A577A580A9F2
:1014E00091A90E94F12C20E030E04AE754E40E94E8
:1014F000492C6D837E838F839887E985FA85428A9C
:10150000538A648A758A9B01AC0169817A818B81D7
:101510009C810E94A82D4B015C01A985BA85569635
:101520008D929D92AD92BC9259972D813E814F81B3
:101530005885C701B6010E94492C6B017C01E985E1
:10154000FA85C28ED38EE48EF58E868D978D0197A7
:1015500059F5A301920160E070E0CB010E94D72B06
:10156000A985BA8552966D937D938D939C935597DB
:10157000A501940160E070E0CB010E94D72BE985C2
:10158000FA85668B778B808F918FA701960160E03B
:1015900070E0CB010E94D72BA985BA855A966D932E
:1015A0007D938D939C935D972A960FB6F894DEBF3A
:1015B0000FBECDBFDF91CF911F910F91FF90EF90A4
:1015C000DF90CF90BF90AF909F908F907F906F9063
:1015D0005F904F9008952F923F924F925F926F923B
:1015E0007F928F929F92AF92BF92CF92DF92EF92B3
:1015F000FF920F931F93CF93DF93EC016A017B015E
:1016000048015901A9019801CB01B6010E94A32DFF
:1016100087FF4FC0CAAADBAAECAAFDAA8EAA9FAA7E
:10162000A8AEB9AE8AAD882309F443C02A803B80B6
:10163000F1014080518062807380A3019201C50155
:10164000B8010E94442C87FF1AC0F1018082918268
:10165000A282B3828EA09FA0A8A4B9A4CEA8DFA81E
:10166000E8ACF9ACA7019601C501B4010E94A32D15
:1016700018169CF4CEA2DFA2E8A6F9A61AC0A30110
:101680009201C701B6010E94A32D18161CF7F101A3
:10169000C082D182E282F382DDCFCAA8DBA8ECA8A7
:1016A000FDA8A7019601C501B4010E94442C87FD45
:1016B000E1CFDF91CF911F910F91FF90EF90DF90DD
:1016C000CF90BF90AF909F908F907F906F905F90E2
:1016D0004F903F902F90089590E080E00895CF9331
:1016E000C62FFC01618380810E94000281E090E0AE
:1016F00002C0880F991FCA95E2F70E942D0ACF9168
:101700000C94FD01FF920F931F93CF93DF938C01F5
:10171000C62FF42ED52F8091B800F80181838CE07C
:101720008093B800643008F580E68083F8018081FA
:101730000E9400028C2F90E0880F991F80640E9405
:101740002D0A8D2F90E00E940D0A8F2D9D2F0E9453
:101750000D0A0E94FD01F80181818093B800DF919C
:10176000CF911F910F91FF90089581E68083C4501F
:10177000DDCF0E940D050E94F12C20E034E244E709
:1017800059E40E94492C08958F929F92AF92BF9284
:10179000CF92DF92EF92FF92CF93DF93FC01E7515C
:1017A000FF4F2081EC01C551DF4F222379F01882D1
:1017B00019821A821B82DF91CF91FF90EF90DF9008
:1017C000CF90BF90AF909F908F9008956A017B015A
:1017D000FC01EC55FF4F80809180A280B380AB016B
:1017E0009601C501B4010E94442C87FF05C0888280
:1017F0009982AA82BB82DFCF20E030E0A901C70135
:10180000B6010E94442C87FDD2CFC882D982EA82D9
:10181000FB82D1CFFC0180810E94000290E080E039
:101820000E942D0A0C94FD010F931F93CF93DF9319
:101830008C01CDE0D7E088810E940002812F90E0EA
:101840000E940D0AC80199270E940D0A0E94FD01FD
:1018500061E088810E940A021092840480938304CC
:1018600089EF96E00E947F09DF91CF911F910F9140
:1018700008951F93CF93DF93EC010E94140C182F4F
:10188000CE0101960E94140C90E0982F8827810FBA
:10189000911DDF91CF911F9108950F931F93CF93C7
:1018A000DF938C01EB01CB010E94390C801791076B
:1018B00079F0602FCE010E94120A612FCE010196AD
:1018C0000E94120A81E0DF91CF911F910F9108953C
:1018D00080E0F9CF0F931F93CF93DF930AE013E0DB
:1018E000D0E0C0E0BE01F801819191918F010E948A
:1018F0004D0C2496C431D105A9F704E113E0BE01D3
:10190000F801819191918F010E944D0C2496C8326B
:10191000D105A9F70EE113E0BE01F8018191919183
:101920008F010E944D0C2496CC33D105A9F76CE3AE
:1019300070E080919803909199030E944D0C60E4AF
:1019400070E080919A0390919B030E944D0C64E497
:1019500070E08091CA039091CB030E944D0C68E423
:1019600070E08091CC039091CD030E944D0C6CE40B
:1019700070E08091CE039091CF030E944D0C60E502
:1019800070E080919C0390919D030E944D0C64E552
:1019900070E080919E0390919F030E944D0C68E53A
:1019A00070E080918803909189030E944D0C6CE552
:1019B00070E080918A0390918B030E944D0C60E649
:1019C00070E080918C0390918D030E944D0C64E631
:1019D00070E080918E0390918F030E944D0C68E619
:1019E00070E080919003909191030E944D0C6CE601
:1019F00070E080919203909193030E944D0C60E7F8
:101A000070E080919403909195030E944D0C64E7DF
:101A100070E080919603909197030E944D0C68E7C7
:101A200070E08091A2039091A3030E944D0C6CE79B
:101A300070E08091D0039091D1030E944D0C60E83A
:101A400070E08091D6039091D7030E944D0C64E81A
:101A500070E08091D8039091D9030E944D0C68E802
:101A600070E08091DA039091DB030E944D0C6CE8EA
:101A700070E08091DC039091DD030E944D0C60E9E1
:101A800070E08091DE039091DF030E944D0C64E9C9
:101A900070E08091E0039091E1030E944D0C68E9B1
:101AA00070E08091E2039091E3030E944D0C6CE999
:101AB00070E08091E4039091E5030E944D0C60EA90
:101AC00070E08091E6039091E7030E944D0C64EA78
:101AD00070E08091E8039091E9030E944D0C68EA60
:101AE00070E08091EA039091EB030E944D0C6CEA48
:101AF00070E08091EC039091ED030E944D0C60EB3F
:101B000070E08091EE039091EF030E944D0C64EB26
:101B100070E08091F0039091F1030E944D0C68EB0E
:101B200070E08091F2039091F3030E944D0C6CEBF6
:101B300070E08091F4039091F5030E944D0C60ECED
:101B400070E08091F6039091F7030E944D0C64ECD5
:101B500070E08091F8039091F9030E944D0C68ECBD
:101B600070E08091FA039091FB030E944D0C6CECA5
:101B700070E08091FC039091FD030E944D0C60ED9C
:101B800070E08091FE039091FF030E944D0C64ED84
:101B900070E080910004909101040E944D0C68ED6A
:101BA00070E080910204909103040E944D0C6CED52
:101BB00070E080910404909105040E944D0C60EE49
:101BC00070E080910604909107040E944D0C64EE31
:101BD00070E080910C0490910D04DF91CF911F91E2
:101BE0000F910C944D0C0F931F93CF93DF9308E24A
:101BF00013E0C8EED3E0BE01F801819191918F010D
:101C00000E944D0C2496C115F4E0DF07A1F704E310
:101C100013E0C0EDD7E0BE01F801819191918F01F1
:101C20000E944D0C2496C83EF7E0DF07A1F7DF9134
:101C3000CF911F910F910895CF93C82F0E9400025A
:101C400060E089EF96E00E94C6090E94FD0162E013
:101C50008C2F0E940A02109284048093830489EFDF
:101C600096E00E947F09C82F89EF96E00E947F09C5
:101C700020E03C2FA901482BCA01CF9108952F9253
:101C80003F924F925F926F927F928F929F92AF920C
:101C9000BF92CF92DF92EF92FF920F931F93CF9359
:101CA000DF9300D000D0CDB7DEB79E838D83FC01DB
:101CB000E851FF4F80810D811E8104551F4F8823FD
:101CC00009F438C10E94650569837A838B839C83FC
:101CD000F801C080D180E280F380ED81FE81E65979
:101CE000FF4F60817181828193819B01AC010E94D1
:101CF000A82D4B015C0120E030E046E953E4C70128
:101D0000B6010E94D72B2BE632E142EA5CE30E9447
:101D1000A82D20E030E040E351E40E94D82B9B0145
:101D2000AC01C501B4010E94492C4B015C0120E0CB
:101D300030EF4FE755E4ED81FE81E055FF4F6081C4
:101D40007181828193810E94492C9B01AC01C50164
:101D5000B4010E94A82D4B015C01ED81FE81E65883
:101D6000FF4F2081318142815381ED81FE81EA580C
:101D7000FF4F60817181828193810E94A82D2B0188
:101D80003C01ED81FE81E657FF4F20813181428188
:101D90005381C701B6010E94D72B9B01AC01C3013F
:101DA000B2010E94A82D9B01AC01C501B4010E94A3
:101DB000D72BED81FE81EA57FF4F2081318142818F
:101DC00053810E94492C4B015C016D807E80F4EBB5
:101DD0006F0E711CF3018081918169817A81681B8A
:101DE000790B072E000C880B990B0E94F32C9B019A
:101DF000AC01C501B4010E94A82D20E030E04AE703
:101E000054E40E94492CA70196010E94D82BF801A6
:101E100060837183828393830E946505F3016083ED
:101E20007183828393830E946505ED81FE81E8566C
:101E3000FF4F60837183828393832D803E80F4E91A
:101E40002F0E311CF101C080D180E280F3809B0114
:101E5000AC012C193D094E095F0969017A01ED8138
:101E6000FE81E456FF4F80819181A281B3818C1560
:101E70009D05AE05BF0508F03FC0F8018080918048
:101E8000A280B3802D813E812A593F4F3A83298316
:101E90004D815E8148555F4F5E834D83FA012081FD
:101EA000318142815381C501B4010E94D72B2B019E
:101EB0003C01C701B6010E94F12C20E030E04AE766
:101EC00054E40E94492C9B01AC01C301B2010E9461
:101ED000492CE981FA816083718382839383ED8148
:101EE000FE8180829182A282B3820E946505F10107
:101EF0006083718382839383F80160817181828121
:101F0000938126960FB6F894DEBF0FBECDBFDF914A
:101F1000CF911F910F91FF90EF90DF90CF90BF90E6
:101F2000AF909F908F907F906F905F904F903F9079
:101F30002F900895ED80FE80F4E6EF0EF11CED8108
:101F4000FE81E257FF4F0190F081E02DE031F10575
:101F500008F0A7C08827E055F04F8F4F0C941A2E39
:101F6000C00FC00FC00FC00F4B104B104B104B10C9
:101F70004D104D104D104D104F104F104F104F1071
:101F800060E0C7010E946F0BED81FE81648575855D
:101F9000636E716881850E94F5098BEB92E1019770
:101FA000F1F7ED81FE8181850E941C0EED81FE819D
:101FB0002385022E02C0969587950A94E2F7222384
:101FC00029F08115F8E09F0708F0906FED81FE8100
:101FD000978B868B64857585636E716B81850E9496
:101FE000F5098BEB92E10197F1F7ED81FE81818597
:101FF0000E941C0EED81FE812385022E02C0969563
:1020000087950A94E2F7222329F08115F8E09F07CB
:1020100008F0906FED81FE81918F808FBC01990F48
:10202000880B990B0E94F32C4B015C01ED81FE8122
:1020300066897789072E000C880B990B0E94F32C78
:102040009B01AC01C501B4010E94492CED81FE81C8
:1020500026853785408951890E94A82DED81FE8112
:10206000EC53FF4F20813181428153810E94A82D82
:10207000ED81FE81E853FF4F208131814281538100
:102080000E94D72BF8016083718382839383C701F9
:102090000E940A0CC8CE61E074CF62E072CF63E0A8
:1020A00070CFC7010E940A0C6FCF2F923F924F92C0
:1020B0005F926F927F928F929F92AF92BF92CF92D8
:1020C000DF92EF92FF920F931F93CF93DF93CDB7E1
:1020D000DEB765970FB6F894DEBF0FBECDBF18868A
:1020E0001F82E0910907F0910A078F819885E80F18
:1020F000F91FA081B181BD8BAC8BFD01E751FF4F72
:102100008081882349F1A055BF4FFD0110821182C3
:1021100012821382EF81F8853296F887EF83349725
:1021200001F71092000265960FB6F894DEBF0FBE5D
:10213000CDBFDF91CF911F910F91FF90EF90DF9076
:10214000CF90BF90AF909F908F907F906F905F9057
:102150004F903F902F9008958C899D8986969B8BF8
:102160008A8B0C891D89005A1F4FD8018C918111CF
:102170003AC0AC89BD899896ED91FC919997808081
:102180009180A280B3807D01BCE4EB0EF11CF701CD
:1021900080829182A282B382AC89BD899696ED91AC
:1021A000FC9180819181A281B381EC89FD89E05B02
:1021B000FF4F80839183A283B383EC89FD89E45A26
:1021C000FF4F4080518062807380A3019201C5015E
:1021D000B4010E94A32D18160CF09CC1F701408297
:1021E00051826282738221E0F80120838C899D896B
:1021F0000E943F0ED8018C91882309F423C10E94CC
:10220000650569877A878B879C87EC89FD89E85B00
:10221000FF4F80819181A281B38149855A856B8569
:102220007C85481B590B6A0B7B0BEC89FD89EC5AAA
:10223000FF4F80819181A281B381481759076A07B6
:102240007B0708F4FFC0AC89BD899696ED91FC919F
:1022500080819181A281B38189839A83AB83BC837E
:10226000AC89BD899A96ED91FC9129813A814B8187
:102270005C8160817181828193810E94D72B6B0187
:102280007C01EC89FD89E05BFF4F20813181428137
:10229000538169817A818B819C810E94D72B6D87C4
:1022A0007E878F87988BEC89FD8924AD35AD46AD4F
:1022B00057ADC701B6010E94A82D6C887D88FCE44B
:1022C0006F0E711CD3012D913D914D915C910E9437
:1022D000D82B4B015C01F30180829182A282B382F0
:1022E000EC89FD89EF59FF4F2081298B211119C0FD
:1022F000AC89BD89D8962D913D914D915C91DB972C
:102300006D857E858F8598890E94A82D9B01AC01E3
:10231000C501B4010E94D72BF301608371838283CE
:1023200093838C899D89845B9F4F9E838D83DC0181
:102330004D905D906D907C90EC89FD89E45AFF4F43
:1023400020803180028113819101A801C301B20173
:102350000E94A32D18160CF0F4C0C101D801ED8124
:10236000FE8180839183A283B383B989BB2309F45F
:1023700000C1EC89FD8920AD31AD42AD53ADC7013F
:10238000B6010E94A82D6B017C01EC89FD89E05CFF
:10239000FF4F20813181428153816D857E858F85FC
:1023A00098890E94A82D9B01AC01EC89FD89E45B12
:1023B000FF4F60817181828193810E94D72BA70199
:1023C00096010E94D82B6B017C019B01AC01B101ED
:1023D000C8010E94442C87FD12C0EC89FD89E85A8F
:1023E000FF4F20803180028113819101A801B60145
:1023F000C7010E94442C87FD02C016018701AC89E9
:10240000BD899896ED91FC91C101D801808391839B
:10241000A283B383EC89FD89E05BFF4F89819A81B8
:10242000AB81BC8180839183A283B383EC89FD89D6
:10243000E85BFF4F89859A85AB85BC858083918356
:10244000A283B383EC89FD89E852FF4FC080D1801D
:10245000E280F38020E030E048EC52E4EC89FD8932
:10246000E452FF4F60817181828193810E94D72B5A
:102470004B015C01A7019601EC89FD89EC52FF4FED
:1024800060817181828193810E94D72B9B01AC0175
:10249000C501B4010E94492C4B015C01A7019601C2
:1024A000EC89FD89E455FF4F6081718182819381C0
:1024B0000E94D72B9B01AC01C501B4010E94A82D3D
:1024C00020E030E048EC52E40E94D82B20E030E0DD
:1024D00048EC52E40E94492C20E030EF4FE755E4ED
:1024E0000E94A82D6B017C0120E030EF4FE755E4FE
:1024F0000E94A32D0C891D8900561F4F1816ECF55C
:1025000080E090EFAFE7B5E4F80180839183A28388
:10251000B38342C0EC89FD89E85AFF4F4080518067
:1025200062807380A3019201C501B4010E94442C12
:1025300087FF59CED7014D925D926D927C92139791
:1025400052CEEC89FD89E85AFF4F80809180A280AD
:10255000B380A5019401C301B2010E94442C87FFFE
:1025600004CFAD81BE818D929D92AD92BC921397A6
:10257000FCCEC12CD12C760108CF20E030E0A9019F
:10258000C701B6010E94442C87FD2DC0D801CD9211
:10259000DD92ED92FC921397D8010D911D912D9132
:1025A0003C9140E050E0BA018A899B890E94EB0A85
:1025B000EC89FD89E257FF4F1081183008F0AACD51
:1025C000EC89FD89E055FF4F6081718182819381A3
:1025D0000E94C22CAB01612F8C899D898E599F4F1F
:1025E0000E94820B97CD8FE692E1A3E8BAE38CCFED
:1025F000E0910907F0910A0780819181FC01E05A7E
:10260000FF4F1082E05BFF4F108211821282138213
:10261000B2976081683030F450E040E08E599F4FAF
:102620000E94820BE0910907F0910A078281938151
:10263000FC01E05AFF4F1082E05BFF4F10821182D5
:1026400012821382B2976081683030F450E040E02B
:102650008E599F4F0C94820B08957F928F929F9278
:10266000AF92BF92CF92DF92EF92FF920F931F93A0
:10267000CF93DF93782E682F8EE10E94AD04672DF3
:102680008FE10E94AD04E0910907F0910A070190E3
:10269000F081E02DE851FF4F8081882381F1D0E067
:1026A000C0E08CE1C82E8CE0D82EE12CF12C94E512
:1026B000892E9BE0992EA12CB12C81E078122DC09F
:1026C0000E941C2BE0910907F0910A07EC0FFD1FF7
:1026D000008111810A581F4FA50194010E94742B9B
:1026E0006C597F4F8F4F9F4F0E94F32CF8016083EE
:1026F0007183828393832296C430D105F1F6DF91F2
:10270000CF911F910F91FF90EF90DF90CF90BF90EE
:10271000AF909F908F907F9008950E941C2BE09126
:102720000907F0910A07EC0FFD1F008111810A587B
:102730001F4FA70196010E94742B685B7B408109A3
:102740009109D2CF4F925F926F927F928F929F9218
:10275000AF92BF92CF92DF92EF92FF92CF93DF932F
:10276000C0910907D0910A07E881F981E455FF4F2C
:1027700080809180A280B3806091E6037091E7032E
:1027800090E080E00E94F12C20E030E040E251E453
:102790000E94492C6B017C01EA81FB81E455FF4FCB
:1027A000408051806280738080910002811123C03B
:1027B000A5019401C701B6010E94A32D181644F487
:1027C000A3019201C701B6010E94A32D181674F14E
:1027D00081E00E942D1380E0DF91CF91FF90EF9078
:1027E000DF90CF90BF90AF909F908F907F906F9031
:1027F0005F904F90089520E030E040E251E4C7013F
:10280000B6010E94D82B6B017C01A50194010E94A6
:10281000A32D181644F4A3019201C701B6010E942A
:10282000A32D181634F010920002D2CF81E08093CD
:10283000000280E00E942D1381E0CECFFB010190C9
:102840000020E9F73197AF01461B570BDC01ED91F2
:10285000FC910280F381E02D19948F929F92AF92A8
:10286000BF920F931F93CF93DF93CDB7DEB7A1979E
:102870000FB6F894DEBF0FBECDBF19A2423008F4E8
:102880004AE08E010F5D1F4F842E912CB12CA12C9C
:10289000A50194010E94A62BE62FB901CA01EA30D6
:1028A00004F5E05DD801EE938D01232B242B252B1D
:1028B00079F790E080E0109729F0BD018CE596E073
:1028C0000E941E14A1960FB6F894DEBF0FBECDBFB6
:1028D000DF91CF911F910F91BF90AF909F908F90FC
:1028E0000895E95CDFCF4F925F926F927F928F9253
:1028F0009F92AF92BF92CF92DF92EF92FF920F938F
:102900001F93CF936B017C01742EAC019B010E943D
:10291000152E6CE372E0811126C046015701E89440
:10292000B7F82FEF3FEF4FE75FE7C501B4010E9413
:10293000152E81110CC02FEF3FEF4FE75FE7C50168
:10294000B4010E94442C60E472E0181664F02FEF8A
:102950003FEF4FE75FE4C701B6010E94A32D1816B1
:10296000ACF464E472E08CE596E0CF911F910F9196
:10297000FF90EF90DF90CF90BF90AF909F908F909F
:102980007F906F905F904F900C941E142FEF3FEF4D
:102990004FE75FECC701B6010E94442C87FDE1CFF1
:1029A00020E030E0A901C701B6010E94442C10E0EC
:1029B00000E087FF0AC06DE28CE596E00E94B40358
:1029C0008C01F7FAF094F7F8F094C0E060E070E062
:1029D00080E09FE37C1641F020E030E040E251E4EB
:1029E0000E94492CCF5FF6CFA70196010E94D82BF9
:1029F0002B013C010E94C22C4B015C014AE00E9469
:102A00002D147C01E00EF11ECC23C1F1C501B401EF
:102A10000E94F12C9B01AC01C301B2010E94D72B93
:102A20004B015C016EE28CE596E00E94B403E80E77
:102A3000F91EC15018F120E030E040E251E4C50138
:102A4000B4010E94A82D2B013C010E94C22C4B0115
:102A5000B12CA12C4AE0C501B4010E942D14E80E4E
:102A6000F91EC501B4010E94F12C9B01AC01C30108
:102A7000B2010E94D72B4B015C01DBCFC701CF9184
:102A80001F910F91FF90EF90DF90CF90BF90AF908C
:102A90009F908F907F906F905F904F9008952F92AE
:102AA0003F924F925F926F927F928F929F92AF92DE
:102AB000BF92CF92DF92EF92FF920F931F93CF932B
:102AC000DF9300D01F92CDB7DEB70E94360661E0DB
:102AD00085300CF460E08BE30E94AD040E94B90BDA
:102AE0002091A1023091A2024091A3025091A40230
:102AF0000E94D72B6B017C0160919C0370919D0318
:102B000090E080E00E94F12C20E030E040E251E4CF
:102B10000E94492C9B01AC01C701B6010E94A32D64
:102B200087FD14C00E94B90B6093A1027093A202AA
:102B30008093A3029093A4028091A0039091A1039B
:102B4000019721F00E94F30D0E946A0C8AE093E045
:102B50009C838B83312C212CF101EE0FFF1FFA8314
:102B6000E983E0910907F0910A0789819A81E80FCA
:102B7000F91F80809180F401E257FF4F318220825B
:102B8000EB81FC8162A173A190E080E00E94F12CB6
:102B900020E030E048EC52E40E94492C6B017C01BB
:102BA000EB81FC8160A171A190E080E00E94F12C9A
:102BB00020E030E048EC52E40E94492C2B013C011B
:102BC000EB81FC81668D778D90E080E00E94F12C96
:102BD00020E030E048EC52E40E94492CAB01BC01FB
:102BE000F401E854FF4F408351836283738334962A
:102BF00040825182628273823496C082D182E282A4
:102C0000F382EA57F109A080B18093018201C401E7
:102C100086960E94320AC0900907D0900A07E9817F
:102C2000FA81EC0DFD1DE080F18087010C531F4FF0
:102C3000EB81FC8164A175A190E080E00E94F12C01
:102C400020E030E04AE754E40E94492CF801608318
:102C50007183828393830C5F1F4FEB81FC8166A19C
:102C600077A190E080E00E94F12C20E030E040E28B
:102C700051E40E94492CF80160837183828393831D
:102C8000EB81FC8160A571A590E080E00E94F12CB1
:102C9000F701E052FF4F6083718382839383F701D2
:102CA00066877787808B918BF4EAEF0EF11C609139
:102CB0009E0370919F0390E080E00E94F12C20E041
:102CC00030E040E251E40E94492CF70160837183B7
:102CD000828393838B819C810C969C838B832A9423
:102CE000232809F0F6C28091A0039091A1030197D7
:102CF00009F4E4C0F6010190F081E02DFA83E98344
:102D0000F601E280F38009811A8107511F4F81E0AB
:102D10002091D6033091D703232B09F480E0F801EA
:102D20008083F701E751FF4F81E02091D803309174
:102D3000D903232B09F480E08083A0900804B0908D
:102D400009048091E8039091E903E981FA81E65151
:102D5000FF4F21E0009709F420E02083A114B10483
:102D600021F09093EB038093EA03F701E651FF4FC4
:102D700081E02091EA033091EB03232B09F480E0FA
:102D80008083C090F803D090F90389809A80F0ED99
:102D90008F0E911CB60190E080E00E94F12C20E0A3
:102DA00030E04AE754E40E94492CF40160837183C7
:102DB00082839383AB2821F0D092FB03C092FA0365
:102DC0006701F0EDCF0ED11C6091FA037091FB0307
:102DD00090E080E00E94F12C20E030E04AE754E4EB
:102DE0000E94492CF60160837183828393836091F2
:102DF000CE037091CF0390E080E00E94F12C20E0A0
:102E000030E040E251E40E94492C4B015C016091AA
:102E1000CC037091CD0390E080E00E94F12C20E083
:102E200030E040E251E40E94492C2B013C016091CA
:102E3000CA037091CB0390E080E00E94F12CE981FD
:102E4000FA81E452FF4F6083718382839383E98127
:102E5000FA81EC52FF4F4082518262827382E98193
:102E6000FA81E852FF4F80829182A282B382F701F9
:102E7000E452FF4F6083718382839383389740824B
:102E8000518262827382349680829182A282B3825E
:102E9000F8018081811121C289819A810E943F0EAF
:102EA000E0910907F0910A0782819381FC01E751C3
:102EB000FF4F208121111BC20E943F0E8091090704
:102EC00090910A079A838983FC0100811181F8019E
:102ED000E455FF4F20E030E040E251E46081718131
:102EE000828193810E94A82D0E94C22C7093A50319
:102EF0006093A403E981FA810280F381E02DFA83D3
:102F0000E983E455FF4F20E030E040E251E4608186
:102F10007181828193810E94A82D0E94C22C70939E
:102F2000A7036093A603F801E055FF4F20E030EFC0
:102F30004FE755E460817181828193810E94492C21
:102F400020E030E048EC52E40E94A82D20E030E080
:102F500040E251E40E94A82D0E94C22C7093B50358
:102F60006093B40389819A8180559F4F9A838983A6
:102F700020E030EF4FE755E4FC01608171818281F0
:102F800093810E94492C20E030E048EC52E40E94FA
:102F9000A82D20E030E040E251E40E94A82D0E94DC
:102FA000C22C7093B7036093B60308E813E01A824B
:102FB000198280910A0490910B04892B39F0809139
:102FC000880390918903F80191838083F8016081DF
:102FD000718190E080E00E94F12C20E030E040E23E
:102FE00051E40E94492CAB01BC01E0910907F0912A
:102FF0000A0789819A81E80FF91F808191810E94D7
:10300000C40BE0910907F0910A0789819A81E80FC2
:10301000F91F0190F081E02DE551FF4F20E030E0F5
:1030200040E251E460817181828193810E94A82DE8
:103030000E94C22CF801619371938F0189819A815A
:1030400002969A838983049709F0B3CF8091D003C5
:103050009091D103019709F0A5C01A821982E091DD
:103060000907F0910A0789819A81E80FF91F0190F9
:10307000F081E02DE551FF4F608171818281938164
:1030800042E00E94731468E472E08CE596E00E94CE
:103090001E14E0910907F0910A0789819A81E80FCF
:1030A000F91F0190F081E02DE455FF4F608171819F
:1030B0008281938142E00E94731468E472E08CE59F
:1030C00096E00E941E14E0910907F0910A07898199
:1030D0009A81E80FF91F0190F081E02DE055FF4F34
:1030E00020E030EF4FE755E4608171818281938168
:1030F0000E94492C20E030E048EC52E40E94A82DC8
:1031000042E00E94731468E472E08CE596E00E944D
:103110001E14E981FA813296FA83E983349709F023
:103120009ECFE8EEF1E08491E9EAF2E094919B838E
:10313000E3E6F2E094919983992309F4E0C08111C8
:103140000E9446048981E82FF0E0EE0FFF1FE05552
:10315000FE4FA591B491EC919B81E92331E020E0F1
:1031600009F430E0832F922F2AE0289FB001299F95
:10317000700D1124072E000C880B990B4AE00E9459
:103180002D1468E472E08CE596E00E941E140E9403
:10319000B90B46E00E9473146BE472E08CE596E094
:1031A0000E941E14809112049091130481309105A5
:1031B00009F078C060E273E070930B0360930A0338
:1031C0002CE030E0309315032093140390931F03F9
:1031D00080931E0370930D0360930C0322E330E091
:1031E00030931703209316031092210310922003AB
:1031F0004CEA5DE050930F0340930E03E3E4F0E0EC
:10320000F0931903E0931803909323038093220310
:10321000509311034093100330931B0320931A0320
:10322000109225031092240310921303109212039C
:1032300090931D0380931C03109227031092260382
:10324000EAE0F0E0F0939B03E0939A033093CB0322
:103250002093CA037093CD036093CC035093CF03A4
:103260004093CE0330939D0320939C0328E833E1E1
:1032700030939F0320939E039093A3038093A20314
:1032800084E893E09093E7038093E603F0930D04C2
:10329000E0930C040E94F30D0E946A0C1092130438
:1032A000109212040F900F900F900F90DF91CF911A
:1032B0001F910F91FF90EF90DF90CF90BF90AF9054
:1032C0009F908F907F906F905F904F903F902F9046
:1032D000089522242394312C3FCC89819A818455EE
:1032E0009F4FFC011082118212821382D9CD845526
:1032F0009F4FFC011082118212821382DFCD90E079
:1033000080E032CFEF92FF920F931F93CF93DF9322
:103310008091100490911104892B61F01092110496
:10332000109210040E9436060E94F30D0E946A0C4F
:103330000C9400000E9465050091680710916907D0
:1033400020916A0730916B0706171707280739077E
:10335000B8F481E090E09093C9038093C803109281
:10336000A1031092A00360E08BE30E94AD040E94D1
:10337000F8128091A602811103C081E08093A60219
:10338000C0910907D0910A07E881F981E455FF4F00
:1033900020E030E0A90160817181828193810E94E7
:1033A000442C87FD0FC0EA81FB81E455FF4F20E0EC
:1033B00030E0A90160817181828193810E94442C57
:1033C00087FF13C082E090E09093C9038093C80305
:1033D0001092A1031092A0030E94F8128091A502FE
:1033E000811103C081E08093A502C0910907D091AB
:1033F0000A0708811981F801E455FF4F20E030E801
:1034000042E254E460817181828193810E94A32D04
:10341000181694F00A80DB81C02DFE01E455FF4FA1
:1034200020E030E842E254E460817181828193813E
:103430000E94A32D18161CF481E00E94D11DE0907B
:10344000A003F090A10320E030E040EF51E4F80148
:10345000EA59FF4F60817181828193810E94A32D7F
:10346000181694F4F801E055FF4F20E030E0A90170
:1034700060817181828193810E94442C811104C0FA
:1034800081E0E816F104F9F420E030E040EF51E487
:10349000FE01EA59FF4F60817181828193810E9410
:1034A000A32D181694F4C055DF4F20E030E0A90199
:1034B000688179818A819B810E94442C811105C099
:1034C000EA94EF2811F082E0B8CFDF91CF911F91FD
:1034D0000F91FF90EF9008951F920F920FB60F92E9
:1034E00011240BB60F922F933F934F935F936F93DB
:1034F0007F938F939F93AF93BF93EF93FF938091AD
:10350000F6029091F702A091F802B091F902892B8E
:103510008A2B8B2BD1F19091F502809100008927A5
:10352000809300008091F6029091F702A091F8023A
:10353000B091F902181619061A061B069CF4809120
:10354000F6029091F702A091F802B091F90201976A
:10355000A109B1098093F6029093F702A093F802B3
:10356000B093F902FF91EF91BF91AF919F918F912D
:103570007F916F915F914F913F912F910F900BBE73
:103580000F900FBE0F901F90189580910102E0E1FF
:10359000F2E0E4919FEF90930102E230E9F040F411
:1035A000EE2389F0E13091F060E00E94AD04DACFC3
:1035B000E43049F110F1E530B9F7909173009D7F47
:1035C00090937300F1CF10926E00EECF90916F0048
:1035D0009D7F90936F00E8CF909170009D7F9093B6
:1035E000700091E09093B0009091B100987F94604A
:1035F0009093B1001092B300D7CF909171009D7F4E
:1036000090937100D1CF909172009D7F9093720042
:10361000CBCF1F920F920FB60F9211240BB60F92C1
:103620002F933F934F935F936F937F938F939F93CA
:10363000AF93BF93EF93FF9385E894E00E949203CA
:10364000FF91EF91BF91AF919F918F917F916F917A
:103650005F914F913F912F910F900BBE0F900FBE36
:103660000F901F9018951F920F920FB60F92112472
:103670000BB60F922F933F934F935F936F937F936C
:103680008F939F93AF93BF93EF93FF9385E894E05D
:103690000E941403FF91EF91BF91AF919F918F9181
:1036A0007F916F915F914F913F912F910F900BBE42
:1036B0000F900FBE0F901F9018951F920F920FB68C
:1036C0000F9211240BB60F922F933F934F935F935A
:1036D0006F937F938F939F93AF93BF93EF93FF93DA
:1036E00082E295E00E949203FF91EF91BF91AF912A
:1036F0009F918F917F916F915F914F913F912F910A
:103700000F900BBE0F900FBE0F901F9018951F9239
:103710000F920FB60F9211240BB60F922F933F9377
:103720004F935F936F937F938F939F93AF93BF93C9
:10373000EF93FF9382E295E00E941403FF91EF91D3
:10374000BF91AF919F918F917F916F915F914F91B9
:103750003F912F910F900BBE0F900FBE0F901F90B7
:1037600018951F920F920FB60F9211240BB60F925D
:103770002F933F934F935F936F937F938F939F9379
:10378000AF93BF93EF93FF938FEB95E00E9492036B
:10379000FF91EF91BF91AF919F918F917F916F9129
:1037A0005F914F913F912F910F900BBE0F900FBEE5
:1037B0000F901F9018951F920F920FB60F92112421
:1037C0000BB60F922F933F934F935F936F937F931B
:1037D0008F939F93AF93BF93EF93FF938FEB95E0FE
:1037E0000E941403FF91EF91BF91AF919F918F9130
:1037F0007F916F915F914F913F912F910F900BBEF1
:103800000F900FBE0F901F9018951F920F920FB63A
:103810000F9211240BB60F922F933F934F935F9308
:103820006F937F938F939F93AF93BF93EF93FF9388
:103830008CE596E00E949203FF91EF91BF91AF91CA
:103840009F918F917F916F915F914F913F912F91B8
:103850000F900BBE0F900FBE0F901F9018951F92E8
:103860000F920FB60F9211240BB60F922F933F9326
:103870004F935F936F937F938F939F93AF93BF9378
:10388000EF93FF938CE596E00E941403FF91EF9174
:10389000BF91AF919F918F917F916F915F914F9168
:1038A0003F912F910F900BBE0F900FBE0F901F9066
:1038B00018951F920F920FB60F9211242F933F93DA
:1038C0008F939F93AF93BF938091ED029091EE02FF
:1038D000A091EF02B091F0023091EC0223E0230FAF
:1038E0002D3758F50196A11DB11D2093EC02809350
:1038F000ED029093EE02A093EF02B093F00280915C
:10390000F1029091F202A091F302B091F4020196BB
:10391000A11DB11D8093F1029093F202A093F302D6
:10392000B093F402BF91AF919F918F913F912F91EE
:103930000F900FBE0F901F90189526E8230F029648
:10394000A11DB11DD2CF1F920F920FB60F9211245D
:103950000BB60F922F933F934F935F936F937F9389
:103960008F939F93AF93BF93EF93FF938091B90091
:10397000887F803609F44DC008F040C0883209F4D1
:10398000A9C028F5803109F49DC0C8F4882309F442
:10399000FBC0883009F496C0FF91EF91BF91AF91C1
:1039A0009F918F917F916F915F914F913F912F9157
:1039B0000F900BBE0F900FBE0F901F90189588317F
:1039C00009F488C0803241F78093570414C08034D2
:1039D00009F49DC040F48033B9F38833E9F680934D
:1039E000570485ECB0C0803509F485C0883509F4EA
:1039F00096C0883489F60E943E09CECF883909F4F2
:103A00008CC038F5883729F050F4883611F08037AB
:103A100019F683E0809380041092EB0257C0883837
:103A200009F47BC0803919F0803809F0B5CF809156
:103A3000EB02803208F071C0E091EB0281E08E0F62
:103A40008093EB028091BB00F0E0E553FD4F808353
:103A50003DC0803B39F0E0F4803A09F479C0883AFF
:103A600009F09ACF84E0809380041092CA021092E9
:103A7000C902E0917C04F0917D0419958091C902FE
:103A800081110FC081E08093C9021092A90209C080
:103A9000803C09F4A6CF883C09F4A3CF883B09F009
:103AA0007BCFE091CA0281E08E0F8093CA02F0E0E2
:103AB000E755FD4F80818093BB009091CA028091B1
:103AC000C90229C0809134048093BB0085EC8093A7
:103AD000BC0062CF9091560480915504981758F518
:103AE000E091560481E08E0F80935604F0E0EB5C89
:103AF000FB4F8081E9CFE091560481E08E0F8093E7
:103B000056048091BB00F0E0EB5CFB4F808390910A
:103B10005604809155049817C8F285E8D8CFE091F3
:103B2000560481E08E0F809356048091BB00F0E034
:103B3000EB5CFB4F808380917F0481115CCF81E03F
:103B400080937E0484EA8093BC001092800424CF8A
:103B500085EC8093BC00109280048091EB0280324F
:103B600030F4E091EB02F0E0E553FD4F10826091FC
:103B7000EB0270E0E0917A04F0917B048BEC92E030
:103B800019951092EB0208CF1092570434CF1F9270
:103B90000F920FB60F9211240F900FBE0F901F902F
:103BA0001895C82F0E94F812D0E0D093C703C09395
:103BB000C60360E086E10E94AD040E944F150E949A
:103BC000A213FBCFE5E8F4E01382128288EE93E0C3
:103BD000A0E0B0E084839583A683B7832CE132E034
:103BE0003183208345E351E05587448744E351E026
:103BF0005787468740E351E0518B408B41E351E0CA
:103C0000538B428B42E351E0558B448B46E351E0AA
:103C1000578B468B118E128E138E148EE2E2F5E0D6
:103C20001382128284839583A683B7833183208392
:103C300045ED50E05587448744ED50E0578746876F
:103C400040ED50E0518B408B41ED50E0538B428B67
:103C500042ED50E0558B448B46ED50E0578B468B40
:103C6000118E128E138E148EEFEBF5E013821282FA
:103C700084839583A683B783318320834DEC50E002
:103C8000558744874CEC50E05787468748EC50E016
:103C9000518B408B49EC50E0538B428B4AEC50E007
:103CA000558B448B4EEC50E0578B468B118E128E09
:103CB000138E148EECE5F6E01382128284839583D2
:103CC000A683B7833183208325EC30E035872487B2
:103CD00024EC30E03787268720EC30E0318B208BD6
:103CE00021EC30E0338B228B22EC30E0358B248BBF
:103CF00026EC30E0378B268B118E128E138E148EAD
:103D0000E9EFF6E01382128284839583A683B7835A
:103D10008EE292E091838083EFE0F7E081E084839C
:103D200083E0858382E0868388EE93E09093630747
:103D30008093620710920E07EBE0F7E080E7808344
:103D40001182E5E0F7E0118210821382128215825F
:103D500014820895CF93DF93CDB7DEB7A9970FB63E
:103D6000F894DEBF0FBECDBF789484B5826084BD69
:103D700084B5816084BD85B5826085BD85B581606F
:103D800085BD80916E00816080936E0010928100ED
:103D900080918100826080938100809181008160A8
:103DA0008093810080918000816080938000809169
:103DB000B10084608093B1008091B00081608093F5
:103DC000B000809191008260809391008091910079
:103DD0008160809391008091900081608093900039
:103DE0008091A10082608093A1008091A1008160F8
:103DF0008093A1008091A00081608093A0008091B9
:103E00002101826080932101809121018160809352
:103E100021018091200181608093200180917A00AE
:103E2000846080937A0080917A00826080937A0027
:103E300080917A00816080937A0080917A00806816
:103E400080937A001092C10040E052EC61E070E093
:103E50008CE596E00E944C020E94DB048091B80041
:103E60008093FD028CE08093B80080E60E940002FF
:103E700090E080E00E940D0A90E080E00E940D0A30
:103E800090E080E00E940D0A90E080E00E940D0A20
:103E900090E080E00E940D0A90E080E00E940D0A10
:103EA00090E080E00E940D0A90E080E00E940D0A00
:103EB0000E94FD0181E60E94000290E080E00E94E5
:103EC0000D0A90E080E00E940D0A90E080E00E94E0
:103ED0000D0A90E080E00E940D0A90E080E00E94D0
:103EE0000D0A90E080E00E940D0A90E080E00E94C0
:103EF0000D0A90E080E00E940D0A0E94FD01809171
:103F0000FD028093B80080E580930D070E94DB04DA
:103F10008CE70E94000280910D0790E0880F991FA6
:103F20000E942D0A80E00E94A00163E08CE70E94BD
:103F30000A02109284048093830489EF96E00E9421
:103F40007F099A83898389EF96E00E947F098C011B
:103F500089EF96E00E947F0929813A8194E0220F3F
:103F6000331F9A95E1F7207F3F70B80144E07595C3
:103F700067954A95E1F76F707727262B372B3A83A1
:103F800029832A30310509F4CCC46EE472E08CE553
:103F900096E00E941E1449815A81BA01550F880B80
:103FA000990B40E10E942D146BE472E08CE596E0E1
:103FB0000E941E140E94DB0484E00E94C80286E175
:103FC0000E94C80261E086E10E94AD0468EE73E0E1
:103FD00080E090E00E9432058BE30E94C8028EE1EF
:103FE0000E94C80260ED77E080E090E00E94320518
:103FF00008E213E088EE93E09A83898389819A81AD
:104000000E94390CD8018D939D938D01E981FA812D
:104010003496FA83E983E115F44081F704E313E071
:1040200040ED57E05A83498389819A810E94390C77
:10403000D8018D939D938D01E981FA813496FA839D
:10404000E983E83EF74081F74AE053E05A83498329
:104050008A011C821B828B819C810E94390CD801B1
:104060008D939D938D01EB81FC813496FC83EB83D2
:10407000749789F704E113E08B819C810E94390CCD
:10408000D8018D939D938D01EB81FC813496FC8347
:10409000EB83B89789F70EE113E08B819C810E9436
:1040A000390CD8018D939D938D01EB81FC81349661
:1040B000FC83EB83FC9789F78CE390E00E94390C3A
:1040C000909399038093980380E490E00E94390CC8
:1040D00090939B0380939A0384E490E00E94390CB0
:1040E0009093CB038093CA0388E490E00E94390C3C
:1040F0009093CD038093CC038CE490E00E94390C24
:104100009093CF038093CE0380E590E00E94390C1A
:1041100090939D0380939C0384E590E00E94390C6A
:1041200090939F0380939E0388E590E00E94390C52
:1041300090938903809388038CE590E00E94390C6A
:1041400090938B0380938A0380E690E00E94390C61
:1041500090938D0380938C0384E690E00E94390C49
:1041600090938F0380938E0388E690E00E94390C31
:1041700090939103809390038CE690E00E94390C19
:10418000909393038093920380E790E00E94390C10
:10419000909395038093940384E790E00E94390CF8
:1041A000909397038093960388E790E00E94390CE0
:1041B0009093A3038093A2038CE790E00E94390CB4
:1041C0009093D1038093D00380E890E00E94390C53
:1041D0009093D7038093D60384E890E00E94390C33
:1041E0009093D9038093D80388E890E00E94390C1B
:1041F0009093DB038093DA038CE890E00E94390C03
:104200009093DD038093DC0380E990E00E94390CF9
:104210009093DF038093DE0384E990E00E94390CE1
:104220009093E1038093E00388E990E00E94390CC9
:104230009093E3038093E2038CE990E00E94390CB1
:104240009093E5038093E40380EA90E00E94390CA8
:104250009093E7038093E60384EA90E00E94390C90
:104260009093E9038093E80388EA90E00E94390C78
:104270009093EB038093EA038CEA90E00E94390C60
:104280009093ED038093EC0380EB90E00E94390C57
:104290009093EF038093EE0384EB90E00E94390C3F
:1042A0009093F1038093F00388EB90E00E94390C27
:1042B0009093F3038093F2038CEB90E00E94390C0F
:1042C0009093F5038093F40380EC90E00E94390C06
:1042D0009093F7038093F60384EC90E00E94390CEE
:1042E0009093F9038093F80388EC90E00E94390CD6
:1042F0009093FB038093FA038CEC90E00E94390CBE
:104300009093FD038093FC0380ED90E00E94390CB4
:104310009093FF038093FE0384ED90E00E94390C9C
:10432000909301048093000488ED90E00E94390C82
:1043300090930304809302048CED90E00E94390C6A
:10434000909305048093040480EE90E00E94390C61
:10435000909307048093060484EE90E00E94390C49
:1043600090930D0480930C0460ED77E080E090E082
:104370000E9432052CE032E038872F83912C812C6B
:104380008FEE90E00E94222E9DA38CA3AF81B88572
:104390008D91B887AF8322E331E140E85BE3ACA1C4
:1043A000BDA12D933D934D935C9313972FE735E07B
:1043B0004BE155EB14962D933D934D935C931797DA
:1043C0001D961C921E921C9719968C93199798E033
:1043D0001A969C931A971B961C921B97FD0112A28A
:1043E00013A214A215A280871D01F6E22F0E311C24
:1043F000FD01EE56FF4F80819181BE96C080D18035
:10440000E280F380349720813181428153812B8374
:104410003C834D835E8334974080518062807380FB
:104420009D0120553F4F99963C932E939897245089
:10443000310997963C932E939697215C3F4F9B961C
:104440003C932E939A97E855F10910823897108281
:10445000118212821382349620E030E04FE753E459
:104460002083318342835383389724E630E040E051
:1044700050E02083318342835383709791838083FC
:1044800020E030E0A901C301B2010E94442C87FD65
:1044900020C020E030E0A9016B817C818D819E816C
:1044A0000E94442C87FD15C020E030E0A901C7011F
:1044B000B6010E94442C87FD0CC0AA24A394B12C01
:1044C0000B811C812D813E81B301A201C1010E949B
:1044D000320A0E946505ECA1FDA1E85BFF4F6CA0CC
:1044E0007DA034E5630E711CD3010D911D912D91BA
:1044F0003C91601B710B820B930B608371838283F1
:104500009383ECA1FDA1EE59FF4F8091FC029091A5
:10451000FD0291838083ECA1FDA1EC59FF4F8091B6
:104520000B0790910C0791838083ECA1FDA1EA59C0
:10453000FF4F1082118212821382ECA1FDA1E65975
:10454000FF4F20E030E040E753E420833183428393
:104550005383ECA1FDA1E259FF4F80E090E0A8E475
:10456000B2E480839183A283B383ECA1FDA1EE58D2
:10457000FF4F20E030E04AE754E420833183428358
:104580005383ECA1FDA1EA58FF4F80839183A2835E
:10459000B383ECA1FDA1E658FF4F81E599E4ADE1BD
:1045A000BCE380839183A283B3830CA11DA1025835
:1045B0001F4F23E333EF4DE654E4D8012D933D9391
:1045C0004D935C9313970E941C2B28EC30E040E045
:1045D00050E00E94742B6C597F4F8F4F9F4F0E9469
:1045E000F32C20E030E04AE754E40E94492C20E01C
:1045F00030E040E05FE30E94A82D9B01AC01ECA1FC
:10460000FDA1EE57FF4F2083318342835383ECA0FB
:10461000FDA0B6E8EB0EF11CF8016081718182818A
:1046200093810E94A82DD7016D937D938D939C93C8
:104630001397ECA1FDA1E657FF4F20E030E048EAD8
:1046400051E42083318342835383ECA1FDA1EE56D4
:10465000FF4F11821082ECA1FDA1EC56FF4F10829A
:10466000118212821382ECA1FDA1E456FF4F8CE26D
:1046700091E0A0E0B0E080839183A283B3834CA05B
:104680005DA090EA490E511C20E030EF4FE755E461
:10469000D2012D933D934D935C931397ECA1FDA113
:1046A000E455FF4F20E030E048EA51E420833183B5
:1046B00042835383ECA1FDA1E055FF4F108211828C
:1046C00012821382ECA1FDA1EC54FF4F10821182E3
:1046D00012821382ECA1FDA1E854FF4F10821182D7
:1046E00012821382ECA1FDA1E454FF4F10821182CB
:1046F00012821382ECA1FDA1E054FF4F10821182BF
:1047000012821382ECA1FDA1EC53FF4F80E090E0F8
:10471000A0E8BFE380839183A283B383ECA1FDA1D2
:10472000E853FF4F1082118212821382ECA1FDA187
:10473000E453FF4F1082118212821382ECA1FDA17B
:10474000E053FF4F8AE097EDA3E2BCE380839183BF
:10475000A283B383ECA1FDA1E052FF4F80E090E083
:10476000A8ECB4E480839183A283B383ECA1FDA180
:10477000EC51FF4F80E090E0AAE7B4E4808391839E
:10478000A283B383ECA1FDA1E851FF4F1082ECA1FD
:10479000FDA1E751FF4F1082ECA1FDA1E651FF4FB3
:1047A0001082ECA1FDA1E551FF4F1082118212820F
:1047B0001382ECA1FDA1E257FF4F91828082ECA110
:1047C000FDA1EA5BFF4FA080B180C12CD12C760106
:1047D00097018601B701A601C1010E94320AD201E8
:1047E0000D911D912D913C91B701A601C1010E942F
:1047F000EB0AF30160817181828193810E94F12C27
:104800009B01AC0160E070E080EA90E40E94492CDA
:104810006B017C01AC019B01ACA1BDA1DC966D914B
:104820007D918D919C91DF970E94A82DECA1FDA117
:1048300064AF75AF86AF97AF8F01005C1F4FA701C4
:104840009601D8016D917D918D919C910E94492C8A
:10485000F801608371838283938385E090E0A0E018
:10486000B0E0F30180839183A283B3830E94DB04D1
:10487000ACA1BDA11D961C921E921C97B093FB0289
:10488000A093FA02809107079091080720910507ED
:10489000309106078217930711F57C01EE0CFF1C7F
:1048A000892B09F456C0C701909308078093070726
:1048B000880F991F0E94222E9C838B8300910907E9
:1048C00010910A07A701B8010E94472FC8010E9452
:1048D000BE2EEB81FC81F0930A07E093090720913B
:1048E000090730910A078091050790910607AC01EE
:1048F0004F5F5F4F50930607409305074091FA02C0
:104900005091FB02880F991F820F931FDC014D937A
:104910005C938A94892809F4B9C188248394912CE2
:104920002FCD102F002700271F70082B003155E0D6
:10493000150759F06DE672E08CE596E00E941E14B2
:10494000B801110F880B990B2CCB81E080930E07D7
:1049500031CB81E090E0A8CFE0910907F0910A0700
:1049600000811181D801A751BF4F21E08091D6036A
:104970009091D703892B09F420E02C932281338175
:104980003A832983F901E751FF4F21E08091D80351
:104990009091D903892B09F420E02083C09008046A
:1049A000D09009048091E8039091E903F801E65161
:1049B000FF4F21E0009709F420E02083C114D104C7
:1049C00009F051C2E981FA81E651FF4F21E080915F
:1049D000EA039091EB03892B09F420E02083E09017
:1049E000F803F090F903580120EDA20EB11CB701B5
:1049F00090E080E00E94F12C20E030E04AE754E4AF
:104A00000E94492CD5016D937D938D939C931397B0
:104A1000CD2821F0F092FB03E092FA03E980FA80BE
:104A2000B0EDEB0EF11C6091FA037091FB0390E086
:104A300080E00E94F12C20E030E04AE754E40E943C
:104A4000492CF70160837183828393836091CE0345
:104A50007091CF0390E080E00E94F12C20E030E0E4
:104A600040E251E40E94492C6B017C016091CC032F
:104A70007091CD0390E080E00E94F12C20E030E0C6
:104A800040E251E40E94492C4B015C016091CA0351
:104A90007091CB0390E080E00E94F12CF801E45289
:104AA000FF4F6083718382839383389780829182E2
:104AB000A282B3823496C082D182E282F382E981FB
:104AC000FA81E452FF4F6083718382839383E9818B
:104AD000FA81EC52FF4F80829182A282B3822981B7
:104AE0003A8128523F4FD901CD92DD92ED92FC924E
:104AF000139780911407823009F4BAC1833009F406
:104B0000BAC1813009F0BAC18FEB95E090931007DC
:104B100080930F0740E052EC61E070E080910F0756
:104B2000909110070E944C0280911507823078F016
:104B300080910401806680930401809105018F7B40
:104B400080930501809105018F7D809305018091FF
:104B50000F0790911007DC01ED91FC910284F38521
:104B6000E02D199597FFF3CF10925807109259072F
:104B7000109261071092600710925F0710925E0713
:104B800010925D0710925C0788E893E190936307A9
:104B9000809362070E944F158091A0039091A1031A
:104BA000019709F06EC18091A2039091A303009731
:104BB00009F09FC10E944F1560918803709189038D
:104BC00090E080E00E94F12C20E030E040E251E4EF
:104BD0000E94492CAB01BC01E0910907F0910A0742
:104BE000808191810E94C40B60918A0370918B0334
:104BF00090E080E00E94F12C20E030E040E251E4BF
:104C00000E94492CAB01BC01E0910907F0910A0711
:104C1000828193810E94C40B0E94551080E00E9403
:104C20002D130E9482190E94B90B20910603309126
:104C3000070340910803509109030E94D72B6B0191
:104C40007C01609198037091990390E080E00E944C
:104C5000F12C20E030E040E251E40E94492C9B011D
:104C6000AC01C701B6010E94A32D181624F41092BE
:104C7000A1031092A0030E94B90B609302037093EA
:104C80000303809304039093050330C1912C812C7E
:104C90001401220C331CE0910907F0910A07E20D80
:104CA000F31D408151815C834B83FA01E257FF4F32
:104CB00091828082A981BA8192966D917C9190E0D7
:104CC00080E00E94F12C20E030E048EC52E40E94A9
:104CD000492C6B017C01E981FA8160A171A190E00E
:104CE00080E00E94F12C20E030E048EC52E40E9489
:104CF000492C2B013C01A981BA815E966D917C9172
:104D000090E080E00E94F12C20E030E048EC52E49A
:104D10000E94492CAB01BC01EB81FC81E854FF4FA0
:104D20004083518362837383EB81FC81E454FF4FA2
:104D30004082518262827382EB81FC81E054FF4F9A
:104D4000C082D182E282F382EB81FC81EA5BFF4F79
:104D5000A080B180930182018B819C8186960E9404
:104D6000320A8091090790910A07280E391EF10135
:104D70000190F081E02DFC83EB838F010C531F4FDA
:104D8000A981BA8194966D917C9190E080E00E9417
:104D9000F12C20E030E04AE754E40E94492CF8016D
:104DA00060837183828393830B811C8108531F4F1F
:104DB000A981BA8196966D917C9190E080E00E94E5
:104DC000F12C20E030E040E251E40E94492CF8014F
:104DD0006083718382839383A981BA8198966D9150
:104DE0007C9190E080E00E94F12CEB81FC81E0520C
:104DF000FF4F6083718382839383EB81FC8166879D
:104E00007787808B918B8F010C551F4F60919E038C
:104E100070919F0390E080E00E94F12C20E030E050
:104E200040E251E40E94492CD8016D937D938D930B
:104E30009C93139700E010EF2FE735E440E050E03B
:104E4000BA018B819C8186960E94EB0AE981FA81E6
:104E50003C96FA83E9838A94892809F47DCD8824D5
:104E60008394912C15CF9093EB038093EA03AACD02
:104E700082E295E04BCE85E894E048CE8CE596E062
:104E800045CE0E944F150E94F8120E9482190E947E
:104E9000A2130E94B90B60930603709307038093DB
:104EA0000803909309030E94B90B60930203709367
:104EB0000303809304039093050310920F04109250
:104EC0000E04E0910907F0910A070190F081E02DAE
:104ED000E455FF4F80819181A281B3818093FE02CE
:104EE0009093FF02A0930003B09301030E9421045A
:104EF00053CE0197D9F70E944F150E94B90B4090ED
:104F00000203509003036090040370900503A30113
:104F100092010E94D72B6B017C0160911403709168
:104F2000150390E080E00E94F12C20E030E040E2A8
:104F300051E40E94492C69837B838F839B8F60910E
:104F400016037091170390E080E00E94F12C20E09E
:104F500030E040E251E40E94492C29813B814F819D
:104F60005B8D0E94D82B6C8F7D8F8E8F9F8F609171
:104F700018037091190390E080E00E94F12C20E06A
:104F800030E040E251E40E94492C2C8D3D8D4E8D45
:104F90005F8D0E94D82B1B018C0160911A037091C8
:104FA0001B0390E080E00E94F12C20E030E040E222
:104FB00051E40E94492C9101A8010E94D82B68A3BA
:104FC00079A38AA39BA3E8E8F3E0FFA3EEA319A6C5
:104FD00018A620E030E0A901C701B6010E94A32D68
:104FE00018160CF03AC129813B814F815B8DC701B6
:104FF000B6010E94442C18160CF42FC160910A03CC
:1050000070910B0390E080E00E94F12C20E030E0F2
:1050100040E251E40E94492C69877A878B879C87FC
:105020002091FE023091FF02409100035091010354
:105030002D873E874F87588B40911E0350911F0349
:105040005E8B4D8B609114037091150390E080E0AE
:105050000E94F12C20E030E040E251E40E94492C13
:10506000698B7A8B8B8B9C8B1F8A188E198E1A8E6C
:10507000E0910907F0910A0788A599A5E80FF91FA3
:10508000A081B181BDA3ACA3ED89FE89319709F060
:105090003DC22D853E854F85588969857A858B85EA
:1050A0009C850E94D72B29893A894B895C890E946B
:1050B000492C4B015C012F89388D498D5A8DC701D0
:1050C000B6010E94D72B9B01AC01C501B4010E941F
:1050D000A82D2D853E854F8558890E94D82BAB0180
:1050E000BC018CA19DA10E94C40BE0910907F09125
:1050F0000A0728A539A5E20FF31F0190F081E02DE2
:10510000E551FF4F20E030E040E251E460817181E1
:10511000828193810E94A82D0E94C22CAEA1BFA1C2
:105120006D937D93BFA3AEA3E8A5F9A53296F9A729
:10513000E8A7349709F04DCF6091140370911503DF
:1051400090E080E00E94F12C20E030E040E251E469
:105150000E94492C6B017C0160911603709117032A
:1051600090E080E00E94F12C20E030E040E251E449
:105170000E94492C9B01AC01C701B6010E94D82BAB
:105180006B017C01609118037091190390E080E03D
:105190000E94F12C20E030E040E251E40E94492CD2
:1051A0009B01AC01C701B6010E94D82B6B017C01A9
:1051B00060911A0370911B0390E080E00E94F12C33
:1051C00020E030E040E251E40E94492C9B01AC0118
:1051D000C701B6010E94D82B6B017C0160911C03B2
:1051E00070911D0390E080E00E94F12C20E030E0FF
:1051F00040E251E40E94492C9B01AC01C701B60179
:105200000E94D82B0E94BB2C4B015C010E94B90B61
:10521000A30192010E94D72B6B017C01C501B4014F
:105220000E94F32C9B01AC01C701B6010E94A32D83
:1052300018160CF470C10E94551080E00E942D13C6
:105240000E9482190E94B90B6093060370930703B2
:10525000809308039093090349CE29813B814F81B4
:105260005B8DC701B6010E94A32D18160CF050C02B
:105270002C8D3D8D4E8D5F8DC701B6010E94442C53
:1052800018160CF445C060910C0370910D0390E06A
:1052900080E00E94F12C20E030E040E251E40E94E6
:1052A000492C69877A878B879C8760910A03709164
:1052B0000B0390E080E00E94F12C20E030E040E21F
:1052C00051E40E94492C6D877E878F87988B80914F
:1052D0002003909121039E8B8D8B6091160370911A
:1052E000170390E080E00E94F12C20E030E040E2E3
:1052F00051E40E94492C698B7A8B8B8B9C8B998112
:105300009F8BAB81A88FBF81B98FEB8DEA8FB0CE19
:105310002C8D3D8D4E8D5F8DC701B6010E94A32D52
:1053200018160CF04EC09101A801C701B6010E94E9
:10533000442C18160CF445C060910E0370910F03B5
:1053400090E080E00E94F12C20E030E040E251E467
:105350000E94492C69877A878B879C8760910C0310
:1053600070910D0390E080E00E94F12C20E030E08D
:1053700040E251E40E94492C6D877E878F87988B8D
:1053800020912203309123033E8B2D8B60911803D3
:105390007091190390E080E00E94F12C20E030E051
:1053A00040E251E40E94492C698B7A8B8B8B9C8B59
:1053B0003C8D3F8B4D8D488F5E8D598F8F8D8A8FA1
:1053C00057CE9101A801C701B6010E94A32D18165E
:1053D0000CF04CC028A139A14AA15BA1C701B601BC
:1053E0000E94442C18160CF441C060911003709177
:1053F000110390E080E00E94F12C20E030E040E2D8
:1054000051E40E94492C69877A878B879C87609139
:105410000E0370910F0390E080E00E94F12C20E0D9
:1054200030E040E251E40E94492C6D877E878F87EF
:10543000988BA0912403B0912503BE8BAD8B609116
:105440001A0370911B0390E080E00E94F12C20E091
:1054500030E040E251E40E94492C698B7A8B8B8BBF
:105460009C8B2F8A388E098F1A8F02CE28A139A1E2
:105470004AA15BA1C701B6010E94A32D18160CF02A
:10548000F7CD609112037091130390E080E00E94C9
:10549000F12C20E030E040E251E40E94492C698781
:1054A0007A878B879C87609110037091110390E03D
:1054B00080E00E94F12C20E030E040E251E40E94C4
:1054C000492C6D877E878F87988BE0912603F0911A
:1054D0002703FE8BED8B60911C0370911D0390E000
:1054E00080E00E94F12C20E030E040E251E40E9494
:1054F000492C698B7A8B8B8B9C8BF8A1FF8B29A114
:10550000288F3AA1398F4BA14A8FB2CD49855A8550
:105510006B857C85E6CD0E94F8120E94A213882339
:1055200041F10E94B90B60930203709303038093CF
:10553000040390930503E0910907F0910A07019095
:10554000F081E02DE455FF4F80819181A281B381EC
:105550008093FE029093FF02A0930003B093010397
:1055600080910E0490910F04019690930F04809304
:105570000E0420910E0430910F0480910C04909140
:105580000D042817390708F45BCE1092A10310927E
:10559000A00356CE8091090790910A070C94BE2E65
:1055A0008F929F92AF92BF92CF92DF92EF92FF9233
:1055B000CF93DF93EC01688179818A819B816115AA
:1055C00071058105910521F464E279ED8BE597E0A1
:1055D0002DE133EF41E050E00E94742B49015A0164
:1055E0009B01AC01A7EAB1E40E94932B6B017C0103
:1055F000ACEEB4EFA50194010E94A12BC60ED71EFC
:10560000E81EF91EF7FE06C081E0C81AD108E108BD
:1056100080E8F80AC882D982EA82FB82C701B60113
:105620009F77DF91CF91FF90EF90DF90CF90BF9069
:10563000AF909F908F9008958F929F92AF92BF925C
:10564000CF92DF92EF92FF9260910202709103027B
:105650008091040290910502611571058105910503
:1056600021F464E279ED8BE597E02DE133EF41E041
:1056700050E00E94742B49015A019B01AC01A7EA3A
:10568000B1E40E94932B6B017C01ACEEB4EFA50159
:1056900094010E94A12BC60ED71EE81EF91EF7FE2C
:1056A00006C081E0C81AD108E10880E8F80AC09273
:1056B0000202D0920302E0920402F0920502C701B6
:1056C000B6019F77FF90EF90DF90CF90BF90AF90A3
:1056D0009F908F90089560930202709303028093CD
:1056E0000402909305020895052E97FB1EF4009482
:1056F0000E948B2B57FD07D00E94A62B07FC03D0DE
:105700004EF40C948B2B50954095309521953F4F3E
:105710004F4F5F4F089590958095709561957F4F9D
:105720008F4F9F4F08950E94C82BA59F900DB49F47
:10573000900DA49F800D911D11240895B7FF0C9426
:10574000932B0E94932B821B930B0895A1E21A2E98
:10575000AA1BBB1BFD010DC0AA1FBB1FEE1FFF1F15
:10576000A217B307E407F50720F0A21BB30BE40B65
:10577000F50B661F771F881F991F1A9469F76095AC
:105780007095809590959B01AC01BD01CF01089566
:10579000A29FB001B39FC001A39F700D811D112472
:1057A000911DB29F700D811D1124911D08955058B7
:1057B000BB27AA270E94EF2B0C94692D0E945B2D1A
:1057C00038F00E94622D20F039F49F3F19F426F43E
:1057D0000C94582D0EF4E095E7FB0C94522DE92F14
:1057E0000E947A2D58F3BA1762077307840795074A
:1057F00020F079F4A6F50C949C2D0EF4E0950B2E78
:10580000BA2FA02D0B01B90190010C01CA01A00112
:105810001124FF27591B99F0593F50F4503E68F16D
:105820001A16F040A22F232F342F4427585FF3CFAE
:10583000469537952795A795F0405395C9F77EF47F
:105840001F16BA0B620B730B840BBAF09150A1F0C8
:10585000FF0FBB1F661F771F881FC2F70EC0BA0F4E
:10586000621F731F841F48F4879577956795B795D6
:10587000F7959E3F08F0B0CF9395880F08F09927D1
:10588000EE0F9795879508950E942E2D08F481E0DC
:1058900008950E945D2C0C94692D0E94622D58F091
:1058A0000E945B2D40F029F45F3F29F00C94522DAB
:1058B00051110C949D2D0C94582D0E947A2D68F353
:1058C0009923B1F3552391F3951B550BBB27AA27B9
:1058D00062177307840738F09F5F5F4F220F331FF3
:1058E000441FAA1FA9F335D00E2E3AF0E0E832D0BB
:1058F00091505040E695001CCAF72BD0FE2F29D0BE
:10590000660F771F881FBB1F261737074807AB078F
:10591000B0E809F0BB0B802DBF01FF2793585F4F04
:105920003AF09E3F510578F00C94522D0C949D2D29
:105930005F3FE4F3983ED4F3869577956795B795E6
:10594000F7959F5FC9F7880F911D9695879597F9F1
:105950000895E1E0660F771F881FBB1F621773076A
:105960008407BA0720F0621B730B840BBA0BEE1F7F
:1059700088F7E09508950E94C22C6894B1110C94A8
:105980009D2D08950E94822D88F09F5798F0B92F81
:105990009927B751B0F0E1F0660F771F881F991F64
:1059A0001AF0BA95C9F714C0B13091F00E949C2D3D
:1059B000B1E008950C949C2D672F782F8827B85F4D
:1059C00039F0B93FCCF3869577956795B395D9F7BC
:1059D0003EF490958095709561957F4F8F4F9F4FC6
:1059E0000895E89409C097FB3EF4909580957095D2
:1059F00061957F4F8F4F9F4F9923A9F0F92F96E91B
:105A0000BB279395F695879577956795B795F1118F
:105A1000F8CFFAF4BB0F11F460FF1BC06F5F7F4F2C
:105A20008F4F9F4F16C0882311F096E911C077233E
:105A300021F09EE8872F762F05C0662371F096E847
:105A4000862F70E060E02AF09A95660F771F881F16
:105A5000DAF7880F9695879597F90895990F0008BA
:105A6000550FAA0BE0E8FEEF16161706E807F90730
:105A7000C0F012161306E407F50798F0621B730BCB
:105A8000840B950B39F40A2661F0232B242B252B4C
:105A900021F408950A2609F4A140A6958FEF811DEF
:105AA000811D089597F99F6780E870E060E0089590
:105AB0009FEF80EC089500240A9416161706180626
:105AC0000906089500240A94121613061406050602
:105AD0000895092E0394000C11F4882352F0BB0F93
