:1000000039C1000068C1000066C1000064C1000081
:1000100062C1000060C100005EC100005CC1000060
:100020005AC10000FEC70000FCC70000FAC700006C
:1000300052C100008CC300004EC100004CC1000042
:100040004AC1000048C1000046C1000044C1000090
:1000500042C1000040C100003EC100000C94041FDA
:100060003AC1000048C500001DC5000034C10000B1
:1000700032C1000030C100002EC100002CC10000C0
:100080002AC1000028C1000026C1000024C10000D0
:10009000DFC40000B4C400001EC1000056C500004B
:1000A0001AC1000018C1000016C1000014C10000F0
:1000B00012C1000010C100000EC100000CC1000000
:1000C0000AC1000008C1000006C100006EC40000A3
:1000D00043C4000000C1000015C40000EAC30000D2
:1000E000FAC00000290E290E290E290E2B0E2B0E08
:1000F0002B0E2B0E2F0E2F0E2F0E2F0E310E310E1C
:10010000310E310E78167816991699164C169216ED
:10011000A916A916A916A916A916A916A916A916E7
:1001200078169916CF16CF16441744177A17B917B1
:100130003D183D183D183D183D183D183D183D1817
:10014000C81719184C1E4F1E3E1E421E461E861E04
:10015000531E571E5D1E611E651E6B1E6F1E731E95
:10016000861E791E7D1E811E0200002200250028A9
:10017000002B002E003100340002010000050108B0
:10018000010B0100002100240027002A002D00306F
:1001900000330001010000040107010A0105050503
:1001A00005070508080808020202020A0A080804EE
:1001B000040404010101010101010103030303031C
:1001C000030303040707070C0C0C0C0C0C0C0C02AB
:1001D00002020206060606060606060B0B0B0B0BB2
:1001E0000B0B0B01021020200808102040102040AB
:1001F00080020102010804020101020408102040EB
:100200008080402010080402018004020180402008
:100210001008040201080402010102040810204031
:1002200080010204081020408000000A0B02090C23
:100230000D0E08070304010000000000000000008C
:1002400000000000000000000000000000000000AE
:10025000000000000012111000000000000000006B
:10026000000000000000000000000000000000008E
:1002700070286B2811241FBECFEFD1E2DEBFCDBFA7
:1002800000E00CBF12E0A0E0B2E0E0E8F9E500E039
:100290000BBF02C007900D92A635B107D9F727E032
:1002A000A6E5B2E001C01D92AF33B207E1F711E05D
:1002B000C9E3D1E000E006C021970109802FFE01CB
:1002C0000E94792BC833D10780E00807A9F70E9464
:1002D0004E1F0C94AF2C94CECF92DF92EF92FF92F0
:1002E0000F931F93CF93DF936C017A018B01C0E0D2
:1002F000D0E0CE15DF0581F0D8016D918D01D601DA
:10030000ED91FC910190F081E02DC6011995892BAA
:1003100011F02196EECF7E01C701DF91CF911F91A1
:100320000F91FF90EF90DF90CF900895FC01538DD7
:10033000448D252F30E0842F90E0821B930B5417BF
:1003400010F0CF96089501970895FC01918D828D4C
:10035000981761F0828DDF01A80FB11D5D968C9119
:10036000928D9F5F9F73928F90E008958FEF9FEF24
:100370000895FC01918D828D981731F0828DE80FE0
:10038000F11D858D90E008958FEF9FEF0895FC019A
:10039000918D228D892F90E0805C9F4F821B910967
:1003A0008F739927089589E494E0F1DF21E0892B88
:1003B00009F420E0822F089586EE94E0E8DF21E042
:1003C000892B09F420E0822F089583E895E0DFDF90
:1003D00021E0892B09F420E0822F089580E296E045
:1003E000D6DF21E0892B09F420E0822F0895FC015B
:1003F000848DDF01A80FB11DA35ABF4F2C91848DAE
:1004000090E001968F739927848FA689B7892C93E2
:10041000A089B1898C91837080648C93938D848D35
:10042000981306C00288F389E02D80818F7D808338
:100430000895EF92FF920F931F93CF93DF93EC01F8
:1004400081E0888F9B8D8C8D981305C0E889F98990
:10045000808185FD25C0F62E0B8D10E00F5F1F4FAC
:100460000F731127E02E8C8DE8120BC00FB607FC1E
:10047000FACFE889F989808185FFF5CFCE01B7DF12
:10048000F2CF8B8DFE01E80FF11DE35AFF4FF08292
:100490009FB7F8940B8FEA89FB89808180620AC03C
:1004A0009FB7F894EE89FF896083E889F989808194
:1004B0008370806480839FBF81E090E0DF91CF9163
:1004C0001F910F91FF90EF900895CF93DF93EC0170
:1004D000888D8823C1F0EA89FB89808185FD05C06C
:1004E000A889B9898C9186FD0EC00FB607FCF5CF9F
:1004F000808185FFF2CFA889B9898C9185FFEDCFE6
:10050000CE0175DFE8CFDF91CF91089580E090E0D4
:10051000892B19F063DF811116C080E090E0892BF0
:1005200019F053DF811112C080E090E0892B19F09F
:1005300043DF81110EC080E090E0892B79F033DF3A
:1005400081110AC008950E940000E7CF0E940000B8
:10055000EBCF0E940000EFCF0C940000089585EDD2
:100560008093BC008091BC0084FDFCCF10924404B9
:10057000089540918602262F30E0240F311D21324C
:100580003105DCF4209144042430C9F4FC0180E0FE
:1005900090E0861758F4309186022191DC01AA5927
:1005A000BD4FA30FB11D2C930196F3CF809186020E
:1005B000680F6093860280E0089581E0089582E0EC
:1005C0000895089508950895E0914804809147049E
:1005D000E81730F4F0E0E752FC4F808190E0089596
:1005E0008FEF9FEF089590914804809147049817EA
:1005F00050F4E92FF0E0E752FC4F208130E09F5F9C
:100600009093480402C02FEF3FEFC90108958091F5
:10061000470490E020914804821B91090895CF92ED
:10062000DF92EF92FF920F931F93CF93DF937C01A2
:10063000CB018A0120911D04222389F0EB016B017B
:10064000C40ED51ECC15DD0561F06991D701ED9181
:10065000FC910190F081E02DC7011995F3CF642F33
:1006600088DFC801DF91CF911F910F91FF90EF902C
:10067000DF90CF900895CF93DF931F92CDB7DEB771
:10068000698320911D042223D1F02091450420325A
:1006900040F021E030E0FC013383228380E090E0F1
:1006A00014C080914604E82FF0E0E25EFB4F998190
:1006B00090838F5F809346048093450404C061E07B
:1006C000CE01019656DF81E090E00F90DF91CF914F
:1006D0000895089580E090E008950E94A22CFF9272
:1006E0000F931F93CF93DF938C01C62FF42ED52F3A
:1006F0008091B800F80181838CE08093B800643069
:1007000018F480E6808304C081E6F8018083C45039
:10071000F80180810E94BB1B8C2F90E0880F991FED
:1007200080640E946A188D2F90E00E94421C8F2DD9
:100730009D2F0E94421C0E94B91BF8018181809369
:10074000B800DF91CF911F910F91FF9008951F92F4
:100750000F920FB60F9211240BB60F922F933F9367
:100760004F935F936F937F938F939F93AF93BF93B9
:10077000EF93FF938091AA029091AB02A091AC02FB
:10078000B091AD02892B8A2B8B2B49F19091A90254
:10079000809100008927809300008091AA029091A7
:1007A000AB02A091AC02B091AD02181619061A0660
:1007B0001B060CF056C08091AA029091AB02A0914A
:1007C000AC02B091AD020197A109B1098093AA02D0
:1007D0009093AB02A093AC02B093AD0242C0809163
:1007E0000002E8E6F1E0E4919FEF90930002E2302E
:1007F000C9F050F4EE2399F0E13081F590916F004B
:100800009D7F90936F002AC0E43019F1E0F0E5304D
:1008100029F5909173009D7F909373001FC01092F3
:100820006E001CC0909170009D7F9093700091E0CD
:100830009093B0009091B100987F94609093B10034
:100840001092B3000BC0909171009D7F9093710046
:1008500005C0909172009D7F9093720060E00E94AD
:100860001D1EFF91EF91BF91AF919F918F917F914D
:100870006F915F914F913F912F910F900BBE0F9011
:100880000FBE0F901F9018956115710579F0FB014F
:1008900001900020E9F73197AF01461B570BDC01AF
:1008A000ED91FC910280F381E02D199480E090E0BD
:1008B00008951F920F920FB60F9211240BB60F924C
:1008C0002F933F934F935F936F937F938F939F9358
:1008D000AF93BF93EF93FF9389E494E088DDFF919A
:1008E000EF91BF91AF919F918F917F916F915F91A8
:1008F0004F913F912F910F900BBE0F900FBE0F9015
:100900001F9018951F920F920FB60F9211240BB6DD
:100910000F922F933F934F935F936F937F938F9398
:100920009F93AF93BF93EF93FF9389E494E00E946A
:10093000041EFF91EF91BF91AF919F918F917F9195
:100940006F915F914F913F912F910F900BBE0F9040
:100950000FBE0F901F9018951F920F920FB60F9217
:1009600011240BB60F922F933F934F935F936F9386
:100970007F938F939F93AF93BF93EF93FF9386EEF5
:1009800094E035DDFF91EF91BF91AF919F918F91F1
:100990007F916F915F914F913F912F910F900BBE7F
:1009A0000F900FBE0F901F9018951F920F920FB6C9
:1009B0000F9211240BB60F922F933F934F935F9397
:1009C0006F937F938F939F93AF93BF93EF93FF9317
:1009D00086EE94E00E94041EFF91EF91BF91AF91CB
:1009E0009F918F917F916F915F914F913F912F9147
:1009F0000F900BBE0F900FBE0F901F9018951F9277
:100A00000F920FB60F9211240BB60F922F933F93B4
:100A10004F935F936F937F938F939F93AF93BF9306
:100A2000EF93FF9383E895E0E2DCFF91EF91BF91B4
:100A3000AF919F918F917F916F915F914F913F9176
:100A40002F910F900BBE0F900FBE0F901F90189517
:100A50001F920F920FB60F9211240BB60F922F9385
:100A60003F934F935F936F937F938F939F93AF9336
:100A7000BF93EF93FF9383E895E00E94041EFF91DC
:100A8000EF91BF91AF919F918F917F916F915F9106
:100A90004F913F912F910F900BBE0F900FBE0F9073
:100AA0001F9018951F920F920FB60F9211240BB63C
:100AB0000F922F933F934F935F936F937F938F93F7
:100AC0009F93AF93BF93EF93FF9380E296E08FDC09
:100AD000FF91EF91BF91AF919F918F917F916F9116
:100AE0005F914F913F912F910F900BBE0F900FBED2
:100AF0000F901F9018951F920F920FB60F9211240E
:100B00000BB60F922F933F934F935F936F937F9307
:100B10008F939F93AF93BF93EF93FF9380E296E001
:100B20000E94041EFF91EF91BF91AF919F918F9111
:100B30007F916F915F914F913F912F910F900BBEDD
:100B40000F900FBE0F901F9018951F920F920FB627
:100B50000F9211240BB60F922F933F934F935F93F5
:100B60006F937F938F939F93AF93BF93EF93FF9375
:100B70008091B900887F803609F49CC068F588327E
:100B800009F45BC090F4803109F454C038F4882330
:100B900009F4F6C0883009F44DC0F5C0883109F475
:100BA0004CC0803209F45DC0EEC0803409F468C0E6
:100BB00048F4803309F455C0883309F0E4C08093C9
:100BC0001C04D8C0803509F44FC0883509F45DC0D5
:100BD000883409F0D8C0D6C0883909F4C7C0A8F451
:100BE000883709F467C038F4883609F463C0803761
:100BF00009F460C0C8C0883809F4B8C0803909F465
:100C00005FC0803809F0BFC05BC0803B09F486C07C
:100C100038F4803A09F466C0883A09F47FC0B3C05A
:100C2000803C09F4A7C0883C09F4A4C0883B09F4BF
:100C30008AC0A9C08091F90310C090911B048091D3
:100C40001A04981770F5E0911B0481E08E0F8093D1
:100C50001B04F0E0E650FC4F80818093BB0085ECE4
:100C600086C080931C048EC0E0911B0481E08E0F2F
:100C700080931B048091BB00F0E0E650FC4F808322
:100C800090911B0480911A046EC0E0911B0481E0D6
:100C90008E0F80931B048091BB00F0E0E650FC4F68
:100CA00080838091430481116DC081E08093420470
:100CB00084EA61C083E0809344041092A802CFCFFD
:100CC0008091A802803208F051C0E091A80281E032
:100CD0008E0F8093A8028091BB00F0E0E857FD4F93
:100CE0008083BDCF85EC8093BC001092440480913A
:100CF000A802803230F4E091A802F0E0E857FD4FFE
:100D000010826091A80270E0E0913E04F0913F04EF
:100D100088E892E019951092A80235C084E080938B
:100D200044041092870210928602E0914004F091F0
:100D30004104199580918602811105C081E080935C
:100D4000860210926602E091870281E08E0F809306
:100D50008702F0E0EA59FD4F80818093BB009091BB
:100D6000870280918602981708F479CF85E88093EE
:100D7000BC0009C085EC8093BC001092440403C001
:100D800010921C04ECDBFF91EF91BF91AF919F910A
:100D90008F917F916F915F914F913F912F910F9024
:100DA0000BBE0F900FBE0F901F9018954F925F9241
:100DB0006F927F928F929F92AF92BF92CF92DF926B
:100DC000EF92FF920F931F93CF93DF93CDB7DEB7D0
:100DD0002A970FB6F894DEBF0FBECDBF9A878987DA
:100DE0002A013B0109831A832B833C83DC015B9638
:100DF000BC92AE925A9781E0AA94AB2809F080E0A9
:100E0000E985FA8583AF408251826282738289814B
:100E10009A81AB81BC8184839583A683B783C08686
:100E2000D186E286F38666A577A580A991A90E945E
:100E30005C2A20E030E04AE754E40E94C3296D8335
:100E40007E838F839887E985FA85448655866686F2
:100E500077869B01AC0169817A818B819C810E949C
:100E6000122B4B015C01A985BA8550966D937D9339
:100E70008D939C9353972D813E814F815885C70157
:100E8000B6010E94C3296B017C01E985FA85648B58
:100E9000758B868B978B808D918D019759F5A3016A
:100EA000920160E070E0CB010E945A29A985BA85C1
:100EB0001C966D937D938D939C931F97A501940130
:100EC00060E070E0CB010E945A29E985FA85608BC9
:100ED000718B828B938BA701960160E070E0CB0150
:100EE0000E945A29A985BA8554966D937D938D9356
:100EF0009C9357972A960FB6F894DEBF0FBECDBFCE
:100F0000DF91CF911F910F91FF90EF90DF90CF90E5
:100F1000BF90AF909F908F907F906F905F904F9019
:100F200008952F923F924F925F926F927F928F928D
:100F30009F92AF92BF92CF92DF92EF92FF920F9368
:100F40001F93CF93DF93EC016A017B0148015901A4
:100F5000A9019801C701B6010E940E2B87FF4EC060
:100F6000CAAADBAAECAAFDAA8EAA9FAAA8AEB9AE0D
:100F70008AAD882309F442C02E8C3F8CF101408059
:100F8000518062807380A3019201C501B4010E9467
:100F9000BF2987FF06C0F10180829182A282B382BD
:100FA0000DC0A3019201C701B6010E940E2B1816B5
:100FB0002CF4F101C082D182E282F3828EA09FA044
:100FC000A8A4B9A4CEA8DFA8E8ACF9ACA701960103
:100FD000C501B4010E940E2B181664F0CAA8DBA844
:100FE000ECA8FDA8A7019601C501B4010E94BF2984
:100FF00087FF04C0CEA2DFA2E8A6F9A6DF91CF91B9
:101000001F910F91FF90EF90DF90CF90BF90AF9026
:101010009F908F907F906F905F904F903F902F9018
:1010200008951F920F920FB60F9211240F900FBECA
:101030000F901F901895CF93C62FFC01618380817C
:101040000E94BB1B81E090E002C0880F991FCA95E7
:10105000E2F70E946A18CF910C94B91BCF93DF93EB
:10106000C0E0D0E0E091CD06F091CE06EC0FFD1F80
:1010700080819181FC01E456FF4FDC01A856BF4FEF
:101080004D915D916D917C91408351836283738317
:10109000FC971082BC961082118212821382B29742
:1010A0006081683028F440E050E08E599F4F17DB94
:1010B0002296C430D105B1F6DF91CF9108952F92D9
:1010C0003F924F925F926F927F928F929F92AF92D8
:1010D000BF92CF92DF92EF92FF920F931F93CF9325
:1010E000DF93CDB7DEB763970FB6F894DEBF0FBEC0
:1010F000CDBF1C821B82E091CD06F091CE068B8184
:101100009C81E80FF91FA081B181BB8BAA8BFD01E7
:10111000E751FF4F8081882341F0A457BF4FFD0165
:10112000108211821282138254C20A891B89005ACA
:101130001F4FD8018C91811154C0EA89FB89EC5B67
:10114000FF4F0190F081E02D80809180A280B380DC
:10115000EA88FB88BCE4EB0EF11CF70180829182E7
:10116000A282B382EA89FB89EE5BFF4F0190F08196
:10117000E02D80819181A281B381EA89FB89E05BC6
:10118000FF4F80839183A283B383EA89FB89E45A6A
:10119000FF4F4080518062807380A3019201C5019E
:1011A000B4010E940E2B18163CF4D7014D925D92AB
:1011B0006D927C92139715C0EA89FB89E85AFF4F1C
:1011C0004080518062807380A3019201C501B40107
:1011D0000E94BF2987FF05C0F701408251826282C9
:1011E0007382E1E0D801EC93EA89FB89EC56FF4F6A
:1011F00080819181A281B381EA89FB89E456FF4F06
:1012000080839183A283B3838A899B892AD4D8015E
:101210008C91882309F43DC10E94F81E6D837E8362
:101220008F839887EA89FB89E85BFF4F80819181F2
:10123000A281B3814D815E816F817885481B590BF6
:101240006A0B7B0BEA89FB89EC5AFF4F8081918105
:10125000A281B381481759076A077B0708F419C1AF
:10126000EA89FB89EE5BFF4F0190F081E02D408021
:10127000518062807380EA89FB89EA5BFF4F0190AD
:10128000F081E02DA30192016081718182819381BF
:101290000E945A296B017C01EA89FB89E05BFF4FC0
:1012A0002081318142815381C301B2010E945A29B8
:1012B00069877A878B879C87EA89FB8926A937A962
:1012C00040AD51ADC701B6010E94122B0A891B899E
:1012D000045B1F4FD8012D913D914D915C910E946F
:1012E0005B294B015C01F8016083718382839383E6
:1012F000EA89FB89EF59FF4F80818D87811119C0E1
:10130000AA89BB89D2962D913D914D915C91D5973B
:1013100069857A858B859C850E94122B9B01AC0187
:10132000C501B4010E945A29F80160837183828348
:1013300093838A899B89845B9F4F9A838983DC018D
:101340008D919D910D90BC91A02D8E879F87A88B2C
:10135000B98BEA89FB89E45AFF4F208031800281F2
:1013600013819101A801BC01CD010E940E2B18161A
:101370004CF4C101D801E981FA8180839183A28371
:10138000B38319C0EA89FB89E85AFF4F80809180B6
:10139000A280B380A50194016E857F858889998993
:1013A0000E94BF2987FF07C0A981BA818D929D92B3
:1013B000AD92BC921397BD85BB2369F0EA89FB8986
:1013C00022A933A944A955A9C701B6010E94122B2D
:1013D0006B017C0103C0C12CD12C7601AA89BB8989
:1013E000DA962D913D914D915C91DD9769857A85D5
:1013F0008B859C850E94122B9B01AC01EA89FB899D
:10140000E45BFF4F60817181828193810E945A2940
:10141000A70196010E945B296B017C019B01AC0135
:10142000B101C8010E94BF2987FD12C0EA89FB896A
:10143000E85AFF4F20803180028113819101A80179
:10144000B601C7010E94BF2987FD02C016018701AE
:10145000EA89FB89EC5BFF4F0190F081E02DC1012F
:10146000D80180839183A283B383EA89FB89E05BFF
:10147000FF4F4082518262827382EA89FB89E85B76
:10148000FF4F8D819E81AF81B88580839183A28338
:10149000B383EA89FB89E852FF4FC080D180E280A4
:1014A000F38020E030E048EC52E4EA89FB89E45222
:1014B000FF4F60817181828193810E945A294B0183
:1014C0005C01A7019601EA89FB89EC52FF4F60811C
:1014D0007181828193810E945A299B01AC01C501CF
:1014E000B4010E94C3294B015C01A7019601EA895E
:1014F000FB89E857FF4F60817181828193810E944F
:101500005A299B01AC01C501B4010E94122B20E0B5
:1015100030E048EC52E40E945B2920E030E048ECE7
:1015200052E40E94C32920E030EF4FE755E40E94C7
:10153000122B6B017C0120E030EF4FE755E40E9455
:101540000E2B0A891B8904581F4F18162CF480E0B3
:1015500090EFAFE7B5E414C020E030E0A901C70187
:10156000B6010E94BF2987FD07C0D801CD92DD9248
:10157000ED92FC92139709C08FE692E1A3E8BAE3DB
:10158000F80180839183A283B383D8010D911D91CB
:101590002D913C9140E050E0BA018A899B89869662
:1015A000C0DCEA89FB89E659FF4F1081183088F4C6
:1015B000EA89FB89E457FF4F6081718182819381C1
:1015C0000E94302AAB01612F8A899B898E599F4FD7
:1015D00086D8EB81FC813296FC83EB83349709F04B
:1015E0008ACD63960FB6F894DEBF0FBECDBFDF91F4
:1015F000CF911F910F91FF90EF90DF90CF90BF9010
:10160000AF909F908F907F906F905F904F903F90A2
:101610002F900895CF92DF92EF92FF92CF93DF93B6
:10162000E091CD06F091CE06808191811AD26B01B6
:101630007C016091AB037091AC0380E090E00E946C
:101640005C2A20E030E040E251E40E94C3299B0183
:10165000AC01C701B6010E94BF29D82FDD1FDD27CD
:10166000DD1FE091CD06F091CE0682819381F9D104
:101670006B017C016091AB037091AC0380E090E062
:101680000E945C2A20E030E040E251E40E94C3293D
:10169000C1E0A70196010E940E2B18160CF0C0E0C5
:1016A0008C2F8D23DF91CF91FF90EF90DF90CF9023
:1016B0000895B0DF811106C061E08EE10E941D1E19
:1016C00061E005C060E08EE10E941D1E60E08FE1D8
:1016D0000C941D1EFC0180810E94BB1B80E090E0E9
:1016E0000E946A180C94B91B0E949B1E0E945C2ADF
:1016F00020E034E244E759E40C94C32908951F9391
:10170000CF93DF93EC010E940D1B182FCE010196A1
:101710000E940D1B90E0982F8827810F911DDF916B
:10172000CF911F9108950F931F93CF93DF938C0157
:10173000EB01CB01E4DF8017910759F0602FCE0158
:101740000E94471C612FCE0101960E94471C81E038
:1017500001C080E0DF91CF911F910F9108950F9309
:101760001F93CF93DF930FEC12E0C0E0D0E0BE01F7
:10177000F801819191918F01D6DF2496C431D10572
:10178000B1F709ED12E0BE01F801819191918F014D
:10179000CADF2496C832D105B1F703EE12E0BE01CC
:1017A000F801819191918F01BEDF2496CC33D10550
:1017B000B1F76CE370E080915D0390915E03B3DF5D
:1017C00060E470E080915F0390916003ACDF64E4BB
:1017D00070E080918F0390919003A5DF68E470E042
:1017E00080919103909192039EDF6CE470E0809170
:1017F00093039091940397DF60E570E0809161031B
:101800009091620390DF64E570E0809163039091B2
:10181000640389DF68E570E080914D0390914E0389
:1018200082DF6CE570E080914F03909150037BDF85
:1018300060E670E0809151039091520374DF64E69A
:1018400070E080915303909154036DDF68E670E07F
:10185000809155039091560366DF6CE670E08091AD
:101860005703909158035FDF60E770E08091590360
:1018700090915A0358DF64E770E080915B03909188
:101880005C0351DF68E770E0809167039091680323
:101890004ADF6CE770E0809195039091960343DFF7
:1018A00060E870E080919B0390919C033CDF64E8CA
:1018B00070E080919D0390919E0335DF68E870E0B1
:1018C00080919F039091A0032EDF6CE870E08091DF
:1018D000A1039091A20327DF60E970E08091A30348
:1018E0009091A40320DF64E970E08091A5039091BA
:1018F000A60319DF68E970E08091A7039091A8031F
:1019000012DF6CE970E08091A9039091AA030BDFCC
:1019100060EA70E08091AB039091AC0304DF64EA6D
:1019200070E08091AD039091AE03FDDE68EA70E057
:101930008091AF039091B003F6DE6CEA70E0809185
:10194000B1039091B203EFDE60EB70E08091B303DE
:101950009091B403E8DE64EB70E08091B503909160
:10196000B603E1DE68EB70E08091B7039091B803B5
:10197000DADE6CEB70E08091B9039091BA03D3DEAC
:1019800060EC70E08091BB039091BC03CCDE64EC12
:1019900070E08091BD039091BE03C5DE68EC70E0FD
:1019A0008091BF039091C003BEDE6CEC70E080912B
:1019B000C1039091C203B7DE60ED70E08091C30374
:1019C0009091C403B0DE64ED70E08091C503909106
:1019D000C603A9DE68ED70E08091C7039091C8034B
:1019E000A2DE6CED70E08091C9039091CA039BDE8A
:1019F00060EE70E08091CB039091CC0394DE64EEB6
:101A000070E08091D1039091D203DF91CF911F912B
:101A10000F9189CE0F931F93CF93DF930DEE12E0BA
:101A2000C8EED3E0BE01F801819191918F017BDE78
:101A30002496C115F4E0DF07A9F709EF12E0C0ED25
:101A4000D7E0BE01F801819191918F016CDE24965F
:101A5000C83EF7E0DF07A9F7DF91CF911F910F9103
:101A600008952F923F924F925F926F927F928F9242
:101A70009F92AF92BF92CF92DF92EF92FF920F931D
:101A80001F93CF93DF9300D000D0CDB7DEB7FC011A
:101A9000E751FF4F20818C0108571F4F222349F047
:101AA000F801108211821282138260E070E0CB0193
:101AB000CFC19E838D83FC01E851FF4F8081882335
:101AC00009F4B2C00E94F81E69837A838B839C83D9
:101AD000F801C080D180E280F380ED81FE81E05783
:101AE000FF4F60817181828193819B01AC010E94D3
:101AF000122B4B015C0120E030E046E953E4C701C2
:101B0000B6010E945A292BE632E142EA5CE30E94C8
:101B1000122B20E030E040E351E40E945B299B015E
:101B2000AC01C501B4010E94C3294B015C0120E056
:101B300030EF4FE755E4ED81FE81E457FF4F6081C0
:101B40007181828193810E94C3299B01AC01C501EF
:101B5000B4010E94122B4B015C01ED81FE81E05625
:101B6000FF4F2081318142815381ED81FE81E45616
:101B7000FF4F60817181828193810E94122B2B0122
:101B80003C01ED81FE81E055FF4F20813181428192
:101B90005381C701B6010E945A299B01AC01C301C0
:101BA000B2010E94122B9B01AC01C501B4010E943D
:101BB0005A29ED81FE81E455FF4F20813181428118
:101BC00053810E94C3294B015C016D807E80F4EB40
:101BD0006F0E711CF3018081918169817A81681B8C
:101BE000790B072E000C880B990B0E945E2A9B0133
:101BF000AC01C501B4010E94122B20E030E04AE79D
:101C000054E40E94C329A70196010E945B29F801B0
:101C100060837183828393830E94F81EF301608343
:101C2000718382839383A6C0ED81FE81E659FF4FC5
:101C30000190F081E02D2D813E812C593F4F79019B
:101C4000E031F10580F48827EE58FF4F8F4F0C9458
:101C5000792B60E001C061E0C701EDD906C062E008
:101C6000FBCF63E0F9CFC90135DDED81FE816485ED
:101C70007585636E716881850E94C51B8BEB92E14F
:101C80000197F1F7ED81FE8181850E941D1CED8198
:101C9000FE812385022E02C0969587950A94E2F76D
:101CA000222329F08115F8E09F0708F0906FED815D
:101CB000FE81978B868B64857585636E716B8185DC
:101CC0000E94C51B8BEB92E10197F1F7ED81FE813C
:101CD00081850E941D1CED81FE812385022E02C09C
:101CE000969587950A94E2F7222329F08115F8E06A
:101CF0009F0708F0906FED81FE81918F808FBC016E
:101D0000990F880B990B0E945E2A4B015C01ED81B3
:101D1000FE8166897789072E000C880B990B0E943B
:101D20005E2A9B01AC01C501B4010E94C329ED816B
:101D3000FE8126853785408951890E94122BED81CD
:101D4000FE81EC53FF4F20813181428153810E94FB
:101D5000122BED81FE81E853FF4F208131814281BA
:101D600053810E945A29F80160837183828393838F
:101D7000C701B0DC0E94F81EED81FE81EC58FF4FD8
:101D800060837183828393832D803E80F0E72F0EE2
:101D9000311CF101C080D180E280F3809B01AC0155
:101DA0002C193D094E095F0969017A01ED81FE8117
:101DB000E858FF4F80819181A281B38182179307F8
:101DC000A407B50708F03FC0F80180809180A28089
:101DD000B3802D813E812A593F4F3A8329834D811B
:101DE0005E814C575F4F5E834D83FA0120813181C4
:101DF00042815381C501B4010E945A292B013C0143
:101E0000C701B6010E945C2A20E030E04AE754E4B2
:101E10000E94C3299B01AC01C301B2010E94C329E6
:101E2000E981FA816083718382839383ED81FE81EE
:101E300080829182A282B3820E94F81EF1016083A7
:101E4000718382839383F8016081718182819381A0
:101E500026960FB6F894DEBF0FBECDBFDF91CF91AF
:101E60001F910F91FF90EF90DF90CF90BF90AF90B8
:101E70009F908F907F906F905F904F903F902F90AA
:101E800008958F929F92AF92BF92CF92DF92EF927E
:101E9000FF92CF93DF93FC01E751FF4F2081EC01CC
:101EA000C551DF4F222329F0188219821A821B8222
:101EB00023C06A017B01FC01E058FF4F80809180C4
:101EC000A280B3809A01AB01C501B4010E94BF2971
:101ED00087FF05C088829982AA82BB820DC020E05C
:101EE00030E0A901C701B6010E94BF2987FDDCCF00
:101EF000C882D982EA82FB82DF91CF91FF90EF9076
:101F0000DF90CF90BF90AF909F908F9008952F92C9
:101F10003F924F925F926F927F928F929F92AF9279
:101F2000BF92CF92DF92EF92FF920F931F93CF93C6
:101F3000DF93CDB7DEB728970FB6F894DEBF0FBE9C
:101F4000CDBF9CD5853014F061E001C060E08BE32B
:101F50000E941D1EC9DB2091C7023091C80240912A
:101F6000C9025091CA020E945A296B017C016091FA
:101F700061037091620380E090E00E945C2A20E09F
:101F800030E040E251E40E94C3299B01AC01C7014B
:101F9000B6010E940E2B87FD11C0A6DB6093C7021D
:101FA0007093C8028093C9029093CA02809165031E
:101FB00090916603019711F02DDDD1DB8FEC92E05B
:101FC00098878F83212C312CD101AA0FBB1FBE8390
:101FD000AD83E091CD06F091CE06EA0FFB1F808025
:101FE0009180F401E659FF4F31822082EF81F8851C
:101FF00062A173A180E090E00E945C2A20E030E0C2
:1020000048EC52E40E94C3296B017C01AF81B88582
:1020100090966D917C91919780E090E00E945C2A6F
:1020200020E030E048EC52E40E94C32969837A83BF
:102030008B839C83EF81F885668D778D80E090E0BF
:102040000E945C2A20E030E048EC52E40E94C32960
:102050002B013C01F401E854FF4F608371838283BC
:102060009383349689819A81AB81BC8180839183EB
:10207000A283B3833496C082D182E282F38220E0CD
:1020800030E0A901C301B2010E94BF2987FD23C02E
:1020900020E030E0A90169817A818B819C810E94D6
:1020A000BF2987FD18C020E030E0A901C701B601B3
:1020B0000E94BF2987FD0FC0F401E05CFF4FA080A4
:1020C000B18009811A812B813C81B301A201C40135
:1020D00086960E94D606C090CD06D090CE06ED81A1
:1020E000FE81EC0DFD1DE080F18087010C531F4F38
:1020F000AF81B88594966D917C91959780E090E042
:102100000E945C2A20E030E04AE754E40E94C329A0
:10211000F80160837183828393830C5F1F4FAF81CB
:10212000B88596966D917C91979780E090E00E949B
:102130005C2A20E030E040E251E40E94C329F8012B
:102140006083718382839383AF81B88598966D9104
:102150007C91999780E090E00E945C2AF701E05220
:10216000FF4F6083718382839383F701668777874C
:10217000808B918BF0E8EF0EF11C609163037091FE
:10218000640380E090E00E945C2A20E030E040E2BE
:1021900051E40E94C329D7016D937D938D939C9345
:1021A0001397BFEF2B1A3B0AEF81F8853C96F8870F
:1021B000EF83F2E02F16310409F006CF809165031A
:1021C00090916603019709F4D7C0D601ED90FC9079
:1021D000F701E751FF4F81E020919B0330919C0371
:1021E000232B09F480E08083F6010280F381E02D47
:1021F000FA83E983E751FF4F81E020919D033091FD
:102200009E03232B09F480E080830091CD0310917D
:10221000CE032091AD033091AE03F701E651FF4F9D
:1022200081E02115310509F480E080830115110555
:1022300021F03093B0032093AF03E981FA81E65196
:10224000FF4F81E02091AF033091B003232B09F4BD
:1022500080E08083C090BD03D090BE03570180ED25
:10226000A80EB11CB60180E090E00E945C2A20E03C
:1022700030E04AE754E40E94C329D5016D937D9371
:102280008D939C931397012B21F0D092C003C092A1
:10229000BF0309811A8100531F4F6091BF037091E2
:1022A000C00380E090E00E945C2A20E030E04AE732
:1022B00054E40E94C329F80160837183828393836D
:1022C000609193037091940380E090E00E945C2AF7
:1022D00020E030E040E251E40E94C3292B013C01A0
:1022E000609191037091920380E090E00E945C2ADB
:1022F00020E030E040E251E40E94C3294B015C0140
:1023000060918F037091900380E090E00E945C2ABE
:10231000F701E452FF4F6083718382839383389780
:1023200080829182A282B3823496408251826282FC
:102330007382E981FA81E452FF4F60837183828363
:102340009383E981FA81EC52FF4F80829182A282CD
:10235000B38289819A8188529F4FDC014D925D92B0
:102360006D927C921397C7017CDBE091CD06F091D2
:10237000CE068281938175DBE091CD06F091CE0689
:10238000FA83E98300811181F801E857FF4F20E0CB
:1023900030E040E251E460817181828193810E944A
:1023A000122B0E94302A70936A0360936903A981FB
:1023B000BA8112960D90BC91A02DBA83A983FD011C
:1023C000E857FF4F20E030E040E251E46081718146
:1023D000828193810E94122B0E94302A70936C0399
:1023E00060936B03F801E457FF4F20E030EF4FE7B5
:1023F00055E460817181828193810E94C32920E02C
:1024000030E048EC52E40E94122B20E030E040E241
:1024100051E40E94122B0E94302A70937A03609339
:102420007903E981FA81E457FF4F20E030EF4FE76D
:1024300055E460817181828193810E94C32920E0EB
:1024400030E048EC52E40E94122B20E030E040E201
:1024500051E40E94122B0E94302A70937C036093F7
:102460007B030DE413E01A8219828091CF039091CF
:10247000D003892B39F080914D0390914E03D80100
:102480008D939C93F8016081718180E090E00E94BF
:102490005C2A20E030E040E251E40E94C329AB0115
:1024A000BC01E091CD06F091CE0689819A81E80FBA
:1024B000F91F80819181E5DCE091CD06F091CE0697
:1024C000A981BA81EA0FFB1F0190F081E02DE5514F
:1024D000FF4F20E030E040E251E460817181828171
:1024E00093810E94122B0E94302AF801619371930C
:1024F0008F0189819A8102969A838983049709F0D2
:10250000B4CF8091950390919603019709F062C032
:10251000E12CF12CE091CD06F091CE06EE0DFF1DE1
:10252000A081B181BA83A983FD01E457FF4F20E068
:1025300030EF4FE755E460817181828193810E9481
:10254000C32920E030E048EC52E40E94122B4B01FA
:102550005C01E981FA81E857FF4F40805180628039
:102560007380E981FA81E551FF4F60817181828139
:10257000938142E00E94C11C63E472E080E296E035
:102580000E94440442E0C301B2010E94C11C63E402
:1025900072E080E296E00E94440442E0C501B4018A
:1025A0000E94C11C63E472E080E296E00E94440451
:1025B000F2E0EF0EF11C84E0E816F10409F0AACF76
:1025C00093D846E00E94C11C66E472E080E296E087
:1025D0000E9444048091D7039091D80381309105E3
:1025E00009F076C060E273E07093D0026093CF028E
:1025F0002CE030E03093DA022093D9029093E40289
:102600008093E3027093D2026093D10222E330E020
:102610003093DC022093DB021092E6021092E50276
:102620004CEA5DE05093D4024093D302E3E4F0E03F
:10263000F093DE02E093DD029093E8028093E702DC
:102640005093D6024093D5023093E0022093DF02EC
:102650001092EA021092E9021092D8021092D70268
:102660009093E2028093E1021092EC021092EB024E
:10267000EAE0F0E0F0936003E0935F0330939003AF
:1026800020938F037093920360939103509394036C
:1026900040939303309362032093610328E833E16E
:1026A00030936403209363039093680380936703DC
:1026B00084E893E09093AC038093AB03F093D20350
:1026C000E093D103A7D94BD81092D8031092D70327
:1026D00028960FB6F894DEBF0FBECDBFDF91CF9125
:1026E0001F910F91FF90EF90DF90CF90BF90AF9030
:1026F0009F908F907F906F905F904F903F902F9022
:102700000895FF920F931F93CF93DF938091D5038A
:102710009091D603892B49F01092D6031092D503DD
:10272000ADD178D91CD80C9400000E94F81E0091FD
:102730002C0710912D0720912E0730912F07061797
:10274000170728073907B8F481E090E090938E03CB
:1027500080938D03109266031092650360E08BE313
:102760000E941D1E0E942E088091CC02811103C080
:1027700081E08093CC02C091CD06D091CE06E88155
:10278000F981E857FF4F20E030E0A90160817181B5
:10279000828193810E94BF2987FD0FC0EA81FB815E
:1027A000E857FF4F20E030E0A9016081718182810C
:1027B00093810E94BF2987FF13C082E090E090932D
:1027C0008E0380938D0310926603109265030E941E
:1027D0002E088091CB02811103C081E08093CB024F
:1027E000C091CD06D091CE0608811981F801E85735
:1027F000FF4F20E030E842E254E460817181828141
:1028000093810E940E2B181694F00A80DB81C02D54
:10281000FE01E857FF4F20E030E842E254E46081D7
:102820007181828193810E940E2B181674F40E948C
:102830002E0881E090E090938C0380938B0360E0FE
:1028400086E10E941D1E63DBFECFFF24F39480917E
:10285000650390916603019709F4F12C20E030E0C4
:1028600048EC51E4F801EA59FF4F6081718182819F
:1028700093810E940E2B181684F4F801E457FF4F41
:1028800020E030E0A90160817181828193810E9402
:10289000BF29811102C0F1101CC020E030E048ECDB
:1028A00051E4FE01EA59FF4F608171818281938179
:1028B0000E940E2B1816ECF4C457DF4F20E030E0D6
:1028C000A901688179818A819B810E94BF29811138
:1028D00010C0FF2071F00E942E0882E090E09093DB
:1028E0008C0380938B0360E086E10E941D1E0FDB4A
:1028F000FECFDF91CF911F910F91FF900895CF935D
:10290000C0911C078C2F0E94E81DEC2FF0E0ED52C7
:10291000F94F9187E1E0EC0FF0E0ED52F94F81873C
:10292000CE5FC0931C079091D9068091D806923053
:1029300038F1823051F0833071F0813091F4909110
:10294000C80090649093C80011C09091D00090642A
:102950009093D0000BC0909130019064909330011F
:1029600005C09091C00090649093C00090910501C3
:1029700090649093050190910501906290930501F8
:1029800040911C07843028F48091D3069091D4069E
:1029900004C08091D5069091D60650E0DC01ED91FF
:1029A000FC910280F381E02D6CED76E01995909119
:1029B000D9068091D806923018F1823049F08330E0
:1029C00061F0813079F49091C80096FFFCCF0EC081
:1029D0009091D00096FFFCCF09C09091300196FFF6
:1029E000FCCF04C09091C00096FFFCCF90910501F0
:1029F0009F7B90930501909105019F7D9093050128
:102A0000843070F58091D3069091D406DC01ED916D
:102A1000FC910284F385E02D199597FFF3CF109276
:102A20001C070E94F81E2091260730912707DC0121
:102A3000CB01820F931FA11DB11D80932C07909392
:102A40002D07A0932E07B0932F0780912207909116
:102A5000230701969093230780932207CF9108952F
:102A60008091D5069091D606DC01ED91FC9102840F
:102A7000F385E02D199597FFF3CFD1CF8F929F92D9
:102A8000AF92BF92CF92DF92EF92FF920F931F937C
:102A9000CF93DF938FEC92E090931F0780931E07F4
:102AA00085E8809330078091D806843028F480919F
:102AB000D3069091D40604C08091D5069091D60695
:102AC000DC01ED91FC910084F185E02D19958823BE
:102AD000A9F090911D07891799F080931D070E9416
:102AE000F81EDC01CB010596A11DB11D80932807BE
:102AF00090932907A0932A07B0932B07C0E0BDC28B
:102B00000E94F81E009128071091290720912A079A
:102B100030912B07601771078207930778F31092A3
:102B20001D078091D906823050F0809105018F7B7E
:102B300080930501809105018F7D8093050110929E
:102B40001C078091D80610E0843008F041C08091C5
:102B5000D3069091D406DC01ED91FC910084F185BF
:102B6000E02D1995892B09F440C0C0911C07D0E0D5
:102B70008091D3069091D406DC01ED91FC91028402
:102B8000F385E02D1995CD52D94F898780911C0787
:102B90008F5F80931C078034D0F211E0D8CFC091B2
:102BA0001C07D0E08091D5069091D606DC01ED910E
:102BB000FC910284F385E02D1995CD52D94F898778
:102BC00080911C078F5F80931C07803408F011E010
:102BD0008091D5069091D606DC01ED91FC910084A0
:102BE000F185E02D1995892BD1F6809120079091E0
:102BF000210701969093210780932007112359F014
:102C00008091240790912507019690932507809342
:102C10002407CDEF02C0C0911C07C093DB06C7306C
:102C20000CF42BC29091DC068091D706981366CFE6
:102C300080911C07082F10E08250CAD7F801ED528E
:102C4000F94F278130E0322F22274085242B281787
:102C5000390759F0809124079091250701969093A8
:102C6000250780932407CFEF33C04091DD06E7E1CD
:102C7000F2E08FE192E02191241769F18E179F070E
:102C8000D1F780912407909125070196909325070D
:102C900080932407C1E012C08091DE069091DF0688
:102CA000982789279827D4E096958795DA95E1F7B4
:102CB00090913007981708F04CC0C2E080E8840F6C
:102CC0008093DD06C093DE0683E080931C0717DE49
:102CD000C093DB06D2C1842F90E0FC013197E03134
:102CE000F105B8F58827EE57FF4F8F4F0C94792BDD
:102CF0008091DE069091DF069827892798279C010E
:102D000014E0369527951A95E1F78091E0069091A9
:102D1000E10698278927982704E0969587950A95D4
:102D2000E1F714C08091DE069091DF06982789278D
:102D3000BFCF8091E0069091E106382F292F809136
:102D4000DE069091DF06982789279827820F931F28
:102D5000AFCF0E94F81E2091260730912707DC0193
:102D6000CB01820F931FA11DB11D80932C0790935F
:102D70002D07A0932E07B0932F071092DB06E0914A
:102D8000DD068E2F90E0FC013197E031F10508F06F
:102D900074C18827EE56FF4F8F4F0C94792B2091EA
:102DA000DE063091DF063227232732274091E006E6
:102DB0005091E106542745275427FA01C3E0F695C0
:102DC000E795CA95E1F78E2FBA01677077276115ED
:102DD000710511F081E08E0F8093DE0683E0809311
:102DE0001C07420F531F90E0812C912C54018394B7
:102DF00024173507F1F1F901A3E0F695E795AA95B7
:102E0000E1F7EE7FF170E153FD4FA081B181E22F38
:102E1000EF7002C0B695A795EA95E2F7E82FF0E0CB
:102E2000ED52F94FA0FF0EC0A18575016401092E76
:102E300004C0CC0CDD1CEE1CFF1C0A94D2F7CA2A7D
:102E4000C1860FC075016401092E04C0CC0CDD1CC5
:102E5000EE1CFF1C0A94D2F7AC2DA095B185AB23D4
:102E6000A1879F5F983010F08F5F90E02F5F3F4FFA
:102E7000BFCF80931C07672B19F08F5F80931C07CF
:102E8000C0911C07CE5F34C02091DE063091DF0672
:102E900032272327322F8091E0069091E106982770
:102EA00089279827482F440F4093DE06E3E09927AF
:102EB000820F911DC2E0CE0FA32FB0E0A817B90773
:102EC000ACF4AA0FBB1FA153BD4F2C9111964C918E
:102ED000AE2FB0E0AD52B94F19964C93EF5FF0E0D2
:102EE000ED52F94F21873F5FEC2FE4CFE0931C07B1
:102EF00006DDC3C08091DE069091DF069827892702
:102F00009827FC0114E0F695E7951A95E1F7282F2C
:102F10002F708091E006FF27EE0FFF1FE153FD4F5A
:102F20008F3F81F481E090E0A0E0B0E004C0880F22
:102F3000991FAA1FBB1F2A95D2F720813181822BAE
:102F4000932B11C081E090E0A0E0B0E004C0880FB6
:102F5000991FAA1FBB1F2A95D2F7809590952081B3
:102F60003181822393239183808386E080931C07A1
:102F700082C0E091DF06F0E0EE0FFF1FE153FD4F4E
:102F80008091E0069091E106982789279827EBCF5A
:102F90008091DE069091DF06982789279827209157
:102FA000E0063091E106322723273227280F391F08
:102FB00040E057E0812C912C540183942817390765
:102FC000A1F2A82FAF70E52FF0E0ED52F94F618527
:102FD00070E0042E02C0759567950A94E2F7FC0133
:102FE00074E0F695E7957A95E1F7FF27EE0FFF1F5E
:102FF000E153FD4F7501640104C0CC0CDD1CEE1CD7
:10300000FF1CAA95D2F760FF05C060817181C62AB6
:10301000D72A06C0C094D09460817181C622D7227D
:10302000D182C0824F5F483010F05F5F40E0019670
:10303000C5CFE091DF064091E1061092E00686E000
:1030400080931C07A3EDB6E0F0E0EE0FFF1FE15305
:10305000FD4F20E01296421771F01E968C911E973C
:1030600090E0982F88271F963C911F97832B819380
:1030700091932F5FEFCF43DCC8E08C2FDF91CF918E
:103080001F910F91FF90EF90DF90CF90BF90AF9086
:103090009F908F90089590E0FC01ED51FE4F249198
:1030A000FC01E356FE4F8491882399F090E0880F4D
:1030B000991FFC01ED57FE4FA591B491FC01E75912
:1030C000FE4F859194918FB7F894EC91E22BEC939D
:1030D0008FBF0895682F8DEB96E00C943B032F92E1
:1030E0003F924F925F926F927F928F929F92AF9298
:1030F000BF92CF92DF92EF92FF920F931F93CF93E5
:10310000DF93CDB7DEB72B970FB6F894DEBF0FBEB7
:10311000CDBF9B878A87498782E391E1A0E8BBE323
:10312000EA85FB8580839183A283B3838FE795E053
:10313000ABE1B5EB84839583A683B78315861486AC
:10314000618788E082871386DF0112A213A214A28E
:1031500015A26087A259BF4FBE83AD838D919C910C
:103160004F01B0EC8B0E911CF401C080D180E28045
:10317000F3802A853B8524543F4F38872F83D9011C
:103180002D913D914D915C9129833A834B835C83D2
:10319000EA85FB85E854FF4F408051806280738050
:1031A0002A843B84B6E22B0E311CEA85FB85EC5B5E
:1031B000FF4F2A853B8524573F4F31832083EA8583
:1031C000FB85EE5BFF4F2A853B8528573F4F3183B8
:1031D0002083EA85FB85EA5BFF4F2A853B852551E5
:1031E0003F4F31832083EA85FB85E05AFF4F1082F1
:1031F000EA85FB85E85AFF4F108211821282138202
:10320000EA85FB85E45AFF4F40E050E06FE773E446
:103210004083518362837383EA85FB85EC5AFF4FB9
:1032200044E650E060E070E0408351836283738342
:10323000EA85FB8597AF86AF20E030E0A901C301A6
:10324000B2010E94BF2987FD20C020E030E0A90123
:1032500069817A818B819C810E94BF2987FD15C07D
:1032600020E030E0A901C701B6010E94BF2987FD17
:103270000CC0AA24A394B12C09811A812B813C8112
:10328000B301A201C1010E94D606B2D5EA85FB8531
:10329000E85BFF4F6A847B8424E5620E711CD301D6
:1032A0000D911D912D913C91DC01CB01801B910B67
:1032B000A20BB30B80839183A283B383EA85FB8542
:1032C000EE59FF4F8091CD029091CE029183808381
:1032D000EA85FB85EC59FF4F8091CF069091D0068F
:1032E00091838083EA85FB85EA59FF4F1082118222
:1032F00012821382ED81FE8111821082EA85FB85A4
:10330000E059FF4F1082118212821382EA85FB85F9
:10331000E858FF4F8CE291E0A0E0B0E08083918319
:10332000A283B3834A845B84FCE74F0E511C80E088
:1033300090EFAFE7B5E4F20180839183A283B3837A
:10334000EA85FB85E857FF4F80E090E0A8EAB1E40A
:1033500080839183A283B383EA85FB85E457FF4F83
:103360001082118212821382EA85FB85E057FF4F9B
:1033700040E050E060E773E44083518362837383ED
:10338000EA85FB85EC56FF4F40E050E060EA71E4CF
:103390004083518362837383EA85FB85E856FF4F40
:1033A000C12C20E8D22E2BE3E22E25E4F22EC0829F
:1033B000D182E282F382EA85FB85E456FF4F4083A7
:1033C000518362837383EA85FB85E056FF4F41E5B5
:1033D00059E46DE17CE34083518362837383EA8522
:1033E000FB85EC55FF4F43E353EF6DE674E44083F8
:1033F000518362837383EA85FB85E855FF4F46E678
:1034000056E666EE7DE34083518362837383EA85EB
:10341000FB85E455FF4F4EEA57E266ED72E44083C8
:10342000518362837383EA85FB85E055FF4F808378
:103430009183A283B383EA85FB85EC54FF4F10820E
:10344000118212821382EA85FB85E854FF4F1082B5
:10345000118212821382AF81B8851D921D921D9236
:103460001C921397F4011082118212821382EA8552
:10347000FB85EC53FF4F80E090E0A0E8BFE3808342
:103480009183A283B383EA85FB85E853FF4F1082C3
:10349000118212821382EA85FB85E453FF4F10826A
:1034A000118212821382EA85FB85E053FF4F8AE086
:1034B00097EDA3E2BCE380839183A283B383EA8583
:1034C000FB85E052FF4F80E090E0A8ECB4E48083FD
:1034D0009183A283B383EA85FB85EC51FF4F80E0A3
:1034E00090E0AAE7B4E480839183A283B383EA8562
:1034F000FB85E851FF4F1082EA85FB85E751FF4FBE
:103500001082EA85FB85E651FF4F1082EA85FB8534
:10351000E551FF4F1082118212821382EA85FB85EA
:10352000E659FF4F2985822F90E091838083EA85B9
:10353000FB85E05CFF4FA080B180C12CD12C7601CF
:1035400097018601B701A601C1010E94D606D201EA
:103550000D911D912D913C91B701A601C1010E94D1
:103560009107F30160817181828193810E945C2ABD
:103570009B01AC0160E070E080EA90E40E94C32906
:103580006B017C019B01AC01AA85BB85D6966D9130
:103590007D918D919C91D9970E94122BEA85FB8594
:1035A00066AB77AB80AF91AFA701960162AD73AD0B
:1035B00084AD95AD0E94C329AA85BB85DA966D932B
:1035C0007D938D939C93DD9785E090E0A0E0B0E043
:1035D000F30180839183A283B3833FD0AA85BB8507
:1035E0001D961C921E921C972B960FB6F894DEBF68
:1035F0000FBECDBFDF91CF911F910F91FF90EF9044
:10360000DF90CF90BF90AF909F908F907F906F9002
:103610005F904F903F902F9008950F931F93CF93FB
:10362000DF938C01C1EDD6E08881A5D0812F90E099
:1036300029D1C801992726D19CD061E08881BBD0CF
:1036400010924804809347048DEB96E00E94F302A9
:10365000DF91CF911F910F9108951092480410921D
:10366000470410924604109245041092440481E0ED
:10367000809343041092420461E084E1DED261E071
:1036800085E1DBD2E9EBF0E080818E7F8083808171
:103690008D7F808388E48093B80085E48093BC00AC
:1036A00081EE92E0909341048093400482EE92E098
:1036B00090933F0480933E040895282F3091450451
:1036C000313208F04AC0809144048111FCCF9091BE
:1036D000310742E040934404209343042FEF2093AA
:1036E0001C0410921B0430931A04EEE1F4E0AAEFDC
:1036F000B3E020E0321721F041914D932F5FFACFD4
:103700001092F9032091F903990F922B9093F903EA
:1037100090914204913061F4109242049091F90327
:103720009093BB009091BC0093FDF8CF95EC01C045
:1037300095EE9093BC00909144049230E1F3909107
:103740001C049F3F79F080911C04803241F08091ED
:103750001C04803331F084E005C081E003C082E0C6
:1037600001C083E0109246041092450410921D049B
:10377000089581E0A2CF91E090931D0480933107DA
:1037800010924604109245040895CF93DF93EB0105
:10379000F2DF61E08DEB96E00E943B036D2F8DEB35
:1037A00096E00E943B036C2F8DEB96E00E943B035A
:1037B000DF91CF91DECF909144049111FCCF91E045
:1037C00090934404909343042FEF20931C04109291
:1037D0001B04260F20931A049093F9039091F90388
:1037E000880F892B8093F90380914204813061F422
:1037F000109242048091F9038093BB008091BC0039
:1038000083FDF8CF85EC01C085EE8093BC008091EC
:1038100044048130E1F380911B04861710F4609119
:103820001B04AAEFB3E0E9EDF3E080E0861721F096
:103830009D9191938F5FFACF08951F93CF93DF935C
:10384000182F99DF60E08DEB96E00E943B0391DF3B
:1038500062E0812FB0DF10924804809347048DEB23
:1038600096E00E94F302182F8DEB96E00E94F3027F
:10387000D12F20E0C22F9E01282BC901DF91CF91CB
:103880001F910895682F8DEB96E00C943B031F93D6
:10389000CF93DF93EC01162F8091D1066CDF8D2F33
:1038A00090E0F0DFCE019927EDDF612F8DEB96E000
:1038B0000E943B03DF91CF911F915BCFCF92DF92AC
:1038C000EF92FF92CF93DF93EC016A017B01E889CD
:1038D000F98982E080834115514E61057105B1F08F
:1038E00060E079E08DE390E0A70196010E9438291D
:1038F000DA01C9010197A109B109B695A795979574
:1039000087959C01211580E13807A8F0E889F9899D
:10391000108260E874E88EE190E0A70196010E94B1
:103920003829DA01C9010197A109B109B695A7950E
:10393000979587959C01EC85FD853083EE85FF8505
:103940002083188EEC89FD8986E08083EA89FB89D3
:10395000808180618083EA89FB898081886080839F
:10396000EA89FB89808180688083EA89FB8980817C
:103970008F7D8083DF91CF91FF90EF90DF90CF908C
:1039800008952F923F924F925F926F927F928F9203
:103990009F92AF92BF92CF92DF92EF92FF920F93DE
:1039A0001F93CF93DF93CDB7DEB7A4970FB6F894EC
:1039B000DEBF0FBECDBF4B015C01F42E9B01AC01FD
:1039C0000E94752B882319F069E472E027C0240156
:1039D0003501E89477F82FEF3FEF4FE75FE7C3013A
:1039E000B2010E94752B81110DC02FEF3FEF4FE701
:1039F0005FE7C301B2010E94BF2918161CF46DE4F1
:103A000072E00CC02FEF3FEF4FE75FE4C501B40158
:103A10000E940E2B18163CF461E572E080E296E0FD
:103A20000E944404BCC02FEF3FEF4FE75FECC5019D
:103A3000B4010E94BF2987FDEFCF20E030E0A9014B
:103A4000C501B4010E94BF2987FF0BC06DE280E26F
:103A500096E00E9419023C01B7FAB094B7F8B0940E
:103A600002C0612C712C10E060E070E080E09FE308
:103A7000F11641F020E030E040E251E40E94C32919
:103A80001F5FF6CFA50194010E945B294B015C01E9
:103A90000E94302A6AA3C72ED82EE92E19A2262FFB
:103AA000372F482F592F8E010F5D1F4F0BA31CA3DB
:103AB0009AE0292E312C412C512CCA01B901A201C6
:103AC00091010E943829605DF80162938F012115F0
:103AD00031054105510589F7BF0180E296E00E945A
:103AE00044048301080F191FFF2009F457C06AA17D
:103AF0007C2D8D2D9E2D0E945C2A9B01AC01C50161
:103B0000B4010E945A294B015C016EE280E296E00A
:103B10000E941902080F191F8AE0282E312C412C0F
:103B2000512C20E030E040E251E4C501B4010E9494
:103B3000122B4B015C010E94302A9B0140E050E0B7
:103B400019A2CBA0DCA0762E3AA3642EE52ECA01E2
:103B5000B901A20191010E943829605DF6016293CA
:103B60006F01211531054105510589F7BF0180E23B
:103B700096E00E944404080F191F672D7AA1862D34
:103B80009E2D0E945C2A9B01AC01C501B4010E94DC
:103B90005A294B015C01FA94F110C3CFC801A496D5
:103BA0000FB6F894DEBF0FBECDBFDF91CF911F914E
:103BB0000F91FF90EF90DF90CF90BF90AF909F90CC
:103BC0008F907F906F905F904F903F902F900895CF
:103BD000ECEDF6E090E02FEF3FEF981791F0419178
:103BE000242748E0B9016170772736952795672B20
:103BF00021F051E0252750EA3527415099F79F5F82
:103C0000ECCF922F832F0895FC01A089B1898C916C
:103C1000A689B78982FD0FC09C91818D8F5F8F73BC
:103C2000228D821749F0218DDF01A20FB11D5D9613
:103C30009C93818F08958C910895362F90E0FC011C
:103C4000E75DFD4F4491FC01ED51FE4F2491FC01D5
:103C5000E356FE4F9491992309F46CC0442309F470
:103C600055C050E0FA013197E231F10508F04EC03D
:103C70008827EE55FF4F8F4F0C94792B8091800051
:103C80008F7707C0809180008F7D03C08091800076
:103C9000877F809380003AC084B58F7702C084B557
:103CA0008F7D84BD33C08091B0008F7703C0809139
:103CB000B0008F7D8093B00029C0809190008F77F5
:103CC00007C0809190008F7D03C080919000877F16
:103CD000809390001BC08091A0008F7707C08091D7
:103CE000A0008F7D03C08091A000877F8093A000FB
:103CF0000DC0809120018F7707C0809120018F7DBA
:103D000003C080912001877F80932001E92FF0E09C
:103D1000EE0FFF1FE759FE4FA591B4919FB7F8949E
:103D2000311104C08C912095282302C0EC912E2BD8
:103D30002C939FBF08953FB7F894809137079091D7
:103D40003807A0913907B0913A0726B5A89B05C05E
:103D50002F3F19F00196A11DB11D3FBFBA2FA92F0A
:103D6000982F8827820F911DA11DB11DBC01CD0187
:103D700042E0660F771F881F991F4A95D1F7089573
:103D80008F929F92AF92BF92CF92DF92EF92FF926B
:103D90006B017C01D0DF4B015C01C114D104E10453
:103DA000F104E9F0C8DFDC01CB0188199909AA09FF
:103DB000BB09883E9340A105B10578F321E0C21A02
:103DC000D108E108F10888EE880E83E0981EA11C56
:103DD000B11CC114D104E104F10421F7DECFFF903E
:103DE000EF90DF90CF90BF90AF909F908F9008950D
:103DF0002FB7F8946091330770913407809135079D
:103E0000909136072FBF08951F920F920FB60F9211
:103E100011242F933F938F939F93AF93BF938091E0
:103E2000330790913407A0913507B0913607309150
:103E3000320723E0230F2D3720F40196A11DB11D79
:103E400005C026E8230F0296A11DB11D209332075D
:103E50008093330790933407A0933507B0933607C8
:103E60008091370790913807A0913907B0913A07B0
:103E70000196A11DB11D8093370790933807A09339
:103E80003907B0933A07BF91AF919F918F913F91BE
:103E90002F910F900FBE0F901F901895CF93DF9327
:103EA000CDB7DEB7A7970FB6F894DEBF0FBECDBF74
:103EB000789484B5826084BD84B5816084BD85B505
:103EC000826085BD85B5816085BD80916E00816011
:103ED00080936E00109281008091810082608093B7
:103EE00081008091810081608093810080918000B9
:103EF0008160809380008091B10084608093B100E4
:103F00008091B00081608093B000809191008260C8
:103F100080939100809191008160809391008091C5
:103F200090008160809390008091A10082608093D6
:103F3000A1008091A10081608093A1008091A000E8
:103F400081608093A0008091210182608093210193
:103F50008091210181608093210180912001816005
:103F60008093200180917A00846080937A00809110
:103F70007A00826080937A0080917A0081608093D9
:103F80007A0080917A00806880937A001092C10054
:103F900040E052EC61E070E080E296E08FDC5DDBB7
:103FA0008091B8008093CE028CE08093B80080E6C8
:103FB000E2DB80E090E066DC80E090E063DC80E0C3
:103FC00090E060DC80E090E05DDC80E090E05ADC36
:103FD00080E090E057DC80E090E054DC80E090E00E
:103FE00051DCC7DB81E6C7DB80E090E04BDC80E0A2
:103FF00090E048DC80E090E045DC80E090E042DC4E
:1040000080E090E03FDC80E090E03CDC80E090E00D
:1040100039DC80E090E036DCACDB8091CE0280932E
:10402000B80080E58093D10618DB8CE7A4DB809193
:10403000D10690E0880F991F4DD880E03EDB63E009
:104040008CE7B9DB10924804809347048DEB96E02F
:104050000E94F3028C018DEB96E00E94F3029A839A
:1040600089838DEB96E00E94F30229812F7030E066
:10407000322F2227A901480F511D112724E0000FDC
:10408000111F2A95E1F7A981BA81BB2734E0B595C4
:10409000A7953A95E1F7A00FB11F1A9731F4403177
:1040A000554019F481E08093D206D7DA84E00E946B
:1040B0004B1886E10E944B1861E086E1BEDD68EE98
:1040C00073E080E090E05CDE8BE30E944B188EE1B1
:1040D0000E944B1860ED77E080E090E051DE0DEE3D
:1040E00012E0E8EEF3E0FA83E98389819A810E9485
:1040F0007F0BD8018D939D938D01E981FA813496D0
:10410000FA83E983E115F44081F709EF12E040ED0D
:1041100057E05A83498389819A810E947F0BD80195
:104120008D939D938D01E981FA813496FA83E98319
:10413000E83EF74081F7FFEC8F2EF2E09F2E8401DE
:104140001A82198289819A810E947F0BD8018D93EE
:104150009D938D01E981FA813496FA83E9837497FE
:1041600089F709ED12E089819A810E947F0BD801BD
:104170008D939D938D01E981FA813496FA83E983C9
:10418000B89789F703EE12E089819A810E947F0B2C
:10419000D8018D939D938D01E981FA813496FA833C
:1041A000E983FC9789F78CE390E00E947F0B909362
:1041B0005E0380935D0380E490E00E947F0B909308
:1041C000600380935F0384E490E00E947F0B9093F0
:1041D000900380938F0388E490E00E947F0B90937C
:1041E0009203809391038CE490E00E947F0B909364
:1041F00094038093930380E590E00E947F0B90935B
:1042000062038093610384E590E00E947F0B9093AA
:1042100064038093630388E590E00E947F0B909392
:104220004E0380934D038CE590E00E947F0B9093AA
:10423000500380934F0380E690E00E947F0B9093A1
:1042400052038093510384E690E00E947F0B909389
:1042500054038093530388E690E00E947F0B909371
:104260005603809355038CE690E00E947F0B909359
:1042700058038093570380E790E00E947F0B909350
:104280005A038093590384E790E00E947F0B909338
:104290005C0380935B0388E790E00E947F0B909320
:1042A0006803809367038CE790E00E947F0B9093F4
:1042B00096038093950380E890E00E947F0B909393
:1042C0009C0380939B0384E890E00E947F0B909373
:1042D0009E0380939D0388E890E00E947F0B90935B
:1042E000A00380939F038CE890E00E947F0B909343
:1042F000A2038093A10380E990E00E947F0B90933A
:10430000A4038093A30384E990E00E947F0B909321
:10431000A6038093A50388E990E00E947F0B909309
:10432000A8038093A7038CE990E00E947F0B9093F1
:10433000AA038093A90380EA90E00E947F0B9093E8
:10434000AC038093AB0384EA90E00E947F0B9093D0
:10435000AE038093AD0388EA90E00E947F0B9093B8
:10436000B0038093AF038CEA90E00E947F0B9093A0
:10437000B2038093B10380EB90E00E947F0B909397
:10438000B4038093B30384EB90E00E947F0B90937F
:10439000B6038093B50388EB90E00E947F0B909367
:1043A000B8038093B7038CEB90E00E947F0B90934F
:1043B000BA038093B90380EC90E00E947F0B909346
:1043C000BC038093BB0384EC90E00E947F0B90932E
:1043D000BE038093BD0388EC90E00E947F0B909316
:1043E000C0038093BF038CEC90E00E947F0B9093FE
:1043F000C2038093C10380ED90E00E947F0B9093F5
:10440000C4038093C30384ED90E00E947F0B9093DC
:10441000C6038093C50388ED90E00E947F0B9093C4
:10442000C8038093C7038CED90E00E947F0B9093AC
:10443000CA038093C90380EE90E00E947F0B9093A3
:10444000CC038093CB0384EE90E00E947F0B90938B
:10445000D2038093D10360ED77E080E090E090DCC0
:104460002FE032E03A832983712C8FEE90E00E9496
:10447000812B8C01A981BA816D91BA83A983472DC3
:104480000E946F1810935702009356028091CB063A
:104490009091CC062091C9063091CA0682179307E5
:1044A00009F56C01CC0CDD1C892B11F0C60102C092
:1044B00081E090E09093CC068093CB06880F991F03
:1044C0000E94812B8C01E090CD06F090CE06A601D3
:1044D000B7010E94A62CC7010E94192C1093CE068A
:1044E0000093CD064091CD065091CE068091C9062D
:1044F0009091CA069C012F5F3F4F3093CA062093CC
:10450000C9062091560230915702880F991FFA016F
:10451000E80FF91F318320837394B2E07B12A5CF9B
:10452000212C312CA101440F551F5E834D83E09156
:10453000CD06F091CE06E40FF51F8081918199A3FD
:1045400088A3FC01E659FF4F31822082D401929664
:104550006D917C91939780E090E0AED720E030E0C1
:1045600048EC52E410D76B017C01F40160A171A109
:1045700080E090E0A1D720E030E048EC52E403D79F
:1045800069837A838B839C83D4015E966D917C9141
:104590005F9780E090E090D720E030E048EC52E474
:1045A000F2D62B013C01E8A1F9A1E854FF4F60834A
:1045B000718382839383E8A1F9A1E454FF4F298199
:1045C0003A814B815C812083318342835383E8A10C
:1045D000F9A1E054FF4FC082D182E282F38248A168
:1045E00059A14A5D5F4F588B4F8788A199A1805C84
:1045F0009F4FDC01AD90BC9020E030E0A901C301E9
:10460000B201BDD687FD1CC020E030E0A901698160
:104610007A818B819C81B3D687FD12C020E030E087
:10462000A901C701B601ABD687FD0AC009811A816D
:104630002B813C81B301A2018F8598890E94D60607
:10464000E091CD06F091CE062D813E81E20FF31F61
:10465000408151815A8349838A010C531F4FD401F1
:1046600094966D917C91959780E090E025D720E01D
:1046700030E04AE754E487D6F8016083718382838F
:10468000938309811A8108531F4FD40196966D9127
:104690007C91979780E090E00FD720E030E040E2F7
:1046A00051E471D6F8016083718382839383D401CE
:1046B00098966D917C91999780E090E0FDD6E98184
:1046C000FA81E052FF4F6083718382839383E98193
:1046D000FA8166877787808B918B8F0100581F4FF7
:1046E000609163037091640380E090E0E5D620E080
:1046F00030E040E251E447D6D8016D937D938D932D
:104700009C93139700E010EF2FE735E440E050E072
:10471000BA0189819A8186960E949107BFEF2B1A70
:104720003B0AECE08E0E911CF2E02F16310409F0EA
:10473000F9CEE091CD06F091CE0600811181D8012D
:10474000A751BF4F21E080919B0390919C03892B3F
:1047500009F420E02C93228133813A832983F901E3
:10476000E751FF4F21E080919D0390919E03892B9B
:1047700009F420E02083C090CD03D090CE03809137
:10478000AD039091AE03F801E651FF4F21E0009791
:1047900009F420E02083C114D10421F09093B003E8
:1047A0008093AF03E981FA81E651FF4F21E08091C8
:1047B000AF039091B003892B09F420E02083E090AF
:1047C000BD03F090BE03380120ED620E711CB701ED
:1047D00080E090E071D620E030E04AE754E4D3D5A1
:1047E000D3016D937D938D939C931397CD2821F0E6
:1047F000F092C003E092BF03E980FA80B0EDEB0EC7
:10480000F11C6091BF037091C00380E090E054D62A
:1048100020E030E04AE754E4B6D5F70160837183C5
:1048200082839383609193037091940380E090E07E
:1048300043D620E030E040E251E4A5D52B013C0115
:10484000609191037091920380E090E035D620E072
:1048500030E040E251E497D56B017C0160918F0319
:104860007091900380E090E027D6F801E452FF4F6A
:1048700060837183828393833897C082D182E2827E
:10488000F38234964082518262827382E981FA8196
:10489000E452FF4F6083718382839383E981FA81BD
:1048A000EC52FF4FC082D182E282F38229813A81A9
:1048B00028523F4FD9014D925D926D927C92139791
:1048C0008091D806823039F0833041F0813049F44C
:1048D00083E895E008C086EE94E005C089E494E0A2
:1048E00002C080E296E09093D4068093D30640E025
:1048F00052EC61E070E08091D3069091D4060E9462
:104900005E1C8091D906823078F080910401806627
:1049100080930401809105018F7B80930501809134
:1049200005018F7D809305018091D3069091D40677
:10493000DC01ED91FC910284F385E02D199597FF40
:10494000F3CF10921C0710921D07109225071092AA
:104950002407109223071092220710922107109229
:10496000200788E893E190932707809326070E9409
:10497000870F80916503909166030197C1F10E94B2
:10498000870F0E942E080E9481130E94590B0E94DB
:10499000740B609358027093590280935A0290935B
:1049A0005B020E94740B60936002709361028093BB
:1049B0006202909363021092D4031092D303E091A9
:1049C000CD06F091CE060190F081E02DE857FF4F23
:1049D00080819181A281B38180935C0290935D027A
:1049E000A0935E02B0935F020E948602C2CF8091C4
:1049F000670390916803009709F4C8C20197A1F773
:104A00000E94870F0E94740B809060029090610258
:104A1000A0906202B0906302A50194014BD46B0197
:104A20007C016091D9027091DA0280E090E044D577
:104A300020E030E040E251E4A6D469837D838F8793
:104A40009B8F6091DB027091DC0280E090E034D5B6
:104A500020E030E040E251E496D429813D814F8549
:104A60005B8D29D4362E272E2C016091DD027091AA
:104A7000DE0280E090E020D520E030E040E251E42A
:104A800082D4232D322DA20116D4162F7FA3082FF6
:104A90009EA36091DF027091E00280E090E00CD56F
:104AA00020E030E040E251E46ED4212F3FA1402FBE
:104AB0005EA101D46C8F7D8F8E8F9F8F2DE433E0AC
:104AC00039A328A3612C712C20E030E0A901C70193
:104AD000B601A4D518160CF040C029813D814F8540
:104AE0005B8DC701B6014BD41816BCF16091CF02A3
:104AF0007091D00280E090E0DFD420E030E040E22E
:104B000051E441D46F83788789879A8720915C022A
:104B100030915D0240915E0250915F022B873C878D
:104B20004D875E874091E3025091E4025A8B498B96
:104B30006091D9027091DA0280E090E0BDD420E06B
:104B400030E040E251E41FD46B8B7C8B8D8B9E8BCD
:104B50001F8A188E198E1A8E39C129813D814F8581
:104B60005B8DC701B6015AD518160CF048C0232D2D
:104B7000322DA201C701B60102D418160CF43FC0B1
:104B80006091D1027091D20280E090E095D420E053
:104B900030E040E251E4F7D36F83788789879A87C2
:104BA0006091CF027091D00280E090E085D420E047
:104BB00030E040E251E4E7D36B877C878D879E87A6
:104BC0008091E5029091E6029A8B898B6091DB02DD
:104BD0007091DC0280E090E06FD420E030E040E2B1
:104BE00051E4D1D36B8B7C8B8D8B9E8B99819F8B6A
:104BF000AD81A88FBF85B98FEB8DEA8FE7C0232DDC
:104C0000322DA201C701B60109D518160CF045C016
:104C1000212F3FA1402F5EA1C701B601B0D31816C6
:104C20000CF43BC06091D3027091D40280E090E01C
:104C300043D420E030E040E251E4A5D36F8378878D
:104C400089879A876091D1027091D20280E090E0CA
:104C500033D420E030E040E251E495D36B877C8789
:104C60008D879E872091E7023091E8023A8B298B4D
:104C70006091DD027091DE0280E090E01DD420E0C2
:104C800030E040E251E47FD36B8B7C8B8D8B9E8B2D
:104C90003F8A288E498E5A8E99C0212F3FA1402FDE
:104CA0005EA1C701B601BAD418160CF047C02C8D0E
:104CB0003D8D4E8D5F8DC701B60161D318160CF482
:104CC0003DC06091D5027091D60280E090E0F4D3AF
:104CD00020E030E040E251E456D36F837887898743
:104CE0009A876091D3027091D40280E090E0E4D37F
:104CF00020E030E040E251E446D36B877C878D872B
:104D00009E874091E9025091EA025A8B498B60914B
:104D1000DF027091E00280E090E0CED320E030E04E
:104D200040E251E430D36B8B7C8B8D8B9E8B1F8B41
:104D30005FA1588F098F8EA18A8F48C02C8D3D8D21
:104D40004E8D5F8DC701B60169D418160CF03EC0B8
:104D50006091D7027091D80280E090E0ADD320E05E
:104D600030E040E251E40FD36F83788789879A87D8
:104D70006091D5027091D60280E090E09DD320E052
:104D800030E040E251E4FFD26B877C878D879E87BD
:104D9000A091EB02B091EC02BA8BA98B6091E10279
:104DA0007091E20280E090E087D320E030E040E2C2
:104DB00051E4E9D26B8B7C8B8D8B9E8BBC8DBF8B32
:104DC000ED8DE88FFE8DF98F2F8D2A8F49895A89B5
:104DD0004130510571F52B853C854D855E856F8190
:104DE000788589859A8566D22B893C894D895E892B
:104DF000CAD26AA37BA38CA39DA32F89388D498D2A
:104E00005A8DC701B60156D29B01AC016AA17BA1A4
:104E10008CA19DA107D42B853C854D855E854BD209
:104E2000AB01BC01E091CD06F091CE06E60DF71D79
:104E30000AC0E091CD06F091CE06E60DF71D4F8138
:104E4000588569857A85808191810E94410FE09122
:104E5000CD06F091CE06E60DF71D0190F081E02D14
:104E6000E551FF4F20E030E040E251E46081718184
:104E700082819381D7D3F4D2A8A1B9A16D937D93F8
:104E8000B9A3A8A3B2E06B0E711CE4E06E16710426
:104E900009F01ACE6091D9027091DA0280E090E0B8
:104EA0000BD320E030E040E251E46DD26B017C0195
:104EB0006091DB027091DC0280E090E0FDD220E0A6
:104EC00030E040E251E45FD29B01AC01C701B60182
:104ED000F2D16B017C016091DD027091DE0280E015
:104EE00090E0EAD220E030E040E251E44CD29B0175
:104EF000AC01C701B601DFD16B017C016091DF021B
:104F00007091E00280E090E0D7D220E030E040E213
:104F100051E439D29B01AC01C701B601CCD16B0180
:104F20007C016091E1027091E20280E090E0C4D2E5
:104F300020E030E040E251E426D29B01AC01C70101
:104F4000B601B9D188D22B013C010E94740BA50196
:104F50009401B0D16B017C01C301B201AFD29B01BE
:104F6000AC01C701B6015AD318160CF471C00E94E7
:104F70005F080E9481130E94740B60935802709323
:104F8000590280935A0290935B022ECD0E94870FA4
:104F900060914D0370914E0380E090E08DD220E04F
:104FA00030E040E251E4EFD1AB01BC01E091CD062D
:104FB000F091CE06808191810E94410F60914F0354
:104FC0007091500380E090E077D220E030E040E242
:104FD00051E4D9D1AB01BC01E091CD06F091CE06F0
:104FE000828193810E94410F0E945F080E94811379
:104FF0000E94740B209158023091590240915A023C
:1050000050915B0257D16B017C0160915D037091FF
:105010005E0380E090E050D220E030E040E251E4D6
:10502000B2D19B01AC01C701B601F8D218165CF0F1
:105030000E94740B6093600270936102809362021D
:1050400090936302D1CC1092660310926503F0CF67
:105050000E942E080E94590B0E940A0B882351F1CE
:105060000E94740B609360027093610280936202ED
:1050700090936302E091CD06F091CE060190F0810D
:10508000E02DE857FF4F80819181A281B381809309
:105090005C0290935D02A0935E02B0935F028091E8
:1050A000D3039091D40301969093D4038093D303B8
:1050B0000E94590B2091D3033091D4038091D103E6
:1050C0009091D2032817390708F453CF1092660342
:1050D000109265034ECF8091CD069091CE06A9C364
:1050E000E9E4F4E01382128288EE93E0A0E0B0E0FD
:1050F00084839583A683B78323E232E031832083C0
:1051000045E351E05587448744E351E0578746879C
:1051100040E351E0518B408B41E351E0538B428B94
:1051200042E351E0558B448B46E351E0578B468B6D
:10513000118E128E138E148EE6EEF4E0138212821C
:1051400084839583A683B7833183208345ED50E024
:105150005587448744ED50E05787468740ED50E03F
:10516000518B408B41ED50E0538B428B42ED50E030
:10517000558B448B46ED50E0578B468B118E128E2B
:10518000138E148EE3E8F5E01382128284839583F4
:10519000A683B783318320834DEC50E05587448745
:1051A0004CEC50E05787468748EC50E0518B408BE1
:1051B00049EC50E0538B428B4AEC50E0558B448BCA
:1051C0004EEC50E0578B468B118E128E138E148E40
:1051D000E0E2F6E01382128284839583A683B7838C
:1051E0003183208325EC30E03587248724EC30E0C0
:1051F0003787268720EC30E0318B208B21EC30E0A4
:10520000338B228B22EC30E0358B248B26EC30E084
:10521000378B268B118E128E138E148EEDEBF6E0EB
:105220001382128284839583A683B78385E392E0F9
:1052300091838083E3EDF6E081E0848383E08583DE
:1052400082E0868388EE93E0909327078093260779
:105250001092D206EFECF6E080E780831182E9EC51
:10526000F6E0118210821382128215821482089550
:10527000A1E21A2EAA1BBB1BFD010DC0AA1FBB1F5A
:10528000EE1FFF1FA217B307E407F50720F0A21BCC
:10529000B30BE40BF50B661F771F881F991F1A9439
:1052A00069F760957095809590959B01AC01BD0163
:1052B000CF0108955058BB27AA270ED075C166D1DB
:1052C00030F06BD120F031F49F3F11F41EF45BC13C
:1052D0000EF4E095E7FB51C1E92F77D180F3BA17BF
:1052E000620773078407950718F071F49EF58FC164
:1052F0000EF4E0950B2EBA2FA02D0B01B9019001F1
:105300000C01CA01A0011124FF27591B99F0593F34
:1053100050F4503E68F11A16F040A22F232F342F7C
:105320004427585FF3CF469537952795A795F040CA
:105330005395C9F77EF41F16BA0B620B730B840BDF
:10534000BAF09150A1F0FF0FBB1F661F771F881F97
:10535000C2F70EC0BA0F621F731F841F48F48795EF
:1053600077956795B795F7959E3F08F0B3CF9395DE
:10537000880F08F09927EE0F979587950895D9D053
:1053800008F481E008950CD00FC107D140F0FED0A1
:1053900030F021F45F3F19F0F0C0511139C1F3C072
:1053A00014D198F39923C9F35523B1F3951B550BE9
:1053B000BB27AA2762177307840738F09F5F5F4FE8
:1053C000220F331F441FAA1FA9F333D00E2E3AF029
:1053D000E0E830D091505040E695001CCAF729D043
:1053E000FE2F27D0660F771F881FBB1F2617370792
:1053F0004807AB07B0E809F0BB0B802DBF01FF27C2
:1054000093585F4F2AF09E3F510568F0B6C000C127
:105410005F3FECF3983EDCF3869577956795B795FB
:10542000F7959F5FC9F7880F911D9695879597F916
:105430000895E1E0660F771F881FBB1F621773078F
:105440008407BA0720F0621B730B840BBA0BEE1FA4
:1054500088F7E095089504D06894B111D9C00895F3
:10546000BCD088F09F5790F0B92F9927B751A0F082
:10547000D1F0660F771F881F991F1AF0BA95C9F7E8
:1054800012C0B13081F0C3D0B1E00895C0C0672F21
:10549000782F8827B85F39F0B93FCCF38695779598
:1054A0006795B395D9F73EF4909580957095619581
:1054B0007F4F8F4F9F4F0895E89409C097FB3EF4AC
:1054C00090958095709561957F4F8F4F9F4F992351
:1054D000A9F0F92F96E9BB279395F69587957795CF
:1054E0006795B795F111F8CFFAF4BB0F11F460FF8F
:1054F0001BC06F5F7F4F8F4F9F4F16C0882311F0E7
:1055000096E911C0772321F09EE8872F762F05C0FA
:10551000662371F096E8862F70E060E02AF09A9595
:10552000660F771F881FDAF7880F9695879597F98A
:105530000895990F0008550FAA0BE0E8FEEF161624
:105540001706E807F907C0F012161306E407F50777
:1055500098F0621B730B840B950B39F40A2661F0EB
:10556000232B242B252B21F408950A2609F4A1408E
:10557000A6958FEF811D811D089597F99F6780E89B
:1055800070E060E008959FEF80EC089500240A9495
:105590001616170618060906089500240A9412160E
:1055A0001306140605060895092E0394000C11F441
:1055B000882352F0BB0F40F4BF2B11F460FF04C0EE
:1055C0006F5F7F4F8F4F9F4F089557FD9058440F47
:1055D000551F59F05F3F71F04795880F97FB991F52
:1055E00061F09F3F79F0879508951216130614060F
:1055F000551FF2CF4695F1DF08C01616170618069C
:10560000991FF1CF86957105610508940895E89476
:10561000BB2766277727CB0197F908958ADF08F41F
:105620008FEF08950BD0C0CFB1DF28F0B6DF18F0B0
:10563000952309F0A2CFA7CF1124EACFC6DFA0F3AC
:10564000959FD1F3950F50E0551F629FF001729F17
:10565000BB27F00DB11D639FAA27F00DB11DAA1F36
:10566000649F6627B00DA11D661F829F2227B00D83
:10567000A11D621F739FB00DA11D621F839FA00D0E
:10568000611D221F749F3327A00D611D231F849F5E
:10569000600D211D822F762F6A2F11249F575040B5
:1056A0008AF0E1F088234AF0EE0FFF1FBB1F661F50
:1056B000771F881F91505040A9F79E3F510570F009
:1056C0005CCFA6CF5F3FECF3983EDCF386957795F1
:1056D0006795B795F795E7959F5FC1F7FE2B880F04
:1056E000911D9695879597F9089523DF880B990B5F
:1056F0000895EE0FFF1F881F8BBF0790F691E02DD6
:1057000019940F931F93CF93DF938230910510F478
:1057100082E090E0E0913D07F0913E0720E030E02C
:10572000A0E0B0E0309719F14081518102811381EE
:1057300048175907C8F08417950769F4109731F096
:1057400012960C93129713961C9327C000933D0753
:1057500010933E0722C02115310519F04217530757
:1057600018F49A01BD01EF01DF01F801DBCF21152B
:105770003105F9F0281B390B2430310580F48A817A
:105780009B816115710521F0FB019383828304C025
:1057900090933E0780933D07FE01329644C0FE0180
:1057A000E20FF31F819391932250310939832883AB
:1057B0003AC020913B0730913C07232B41F42091C4
:1057C00003023091040230933C0720933B07209161
:1057D0000102309102022115310541F42DB73EB787
:1057E0004091050250910602241B350BE0913B07C6
:1057F000F0913C07E217F307A0F42E1B3F0B28178C
:10580000390778F0AC014E5F5F4F2417350748F039
:105810004E0F5F1F50933C0740933B07819391933A
:1058200002C0E0E0F0E0CF01DF91CF911F910F9136
:105830000895CF93DF93009709F481C0FC0132975C
:1058400013821282A0913D07B0913E07109781F418
:1058500020813181820F931F20913B0730913C07BB
:105860002817390751F5F0933C07E0933B0767C0D1
:10587000ED0120E030E0CE17DF0740F44A815B8184
:105880009E0141155105F1F0EA01F5CFD383C283A2
:1058900040815181840F951FC817D90759F4888119
:1058A0009981840F951F0296918380838A819B81C1
:1058B000938382832115310529F4F0933E07E09309
:1058C0003D073DC0E901FB83EA8349915991C40F2B
:1058D000D51FEC17FD0761F480819181840F951F1E
:1058E0000296E90199838883828193819B838A83CD
:1058F000E0E0F0E012968D919C911397009719F0DB
:10590000FD01DC01F7CF8D919C9111979D012E5FD8
:105910003F4F820F931F20913B0730913C07281780
:10592000390769F4309729F410923E0710923D0729
:1059300002C013821282B0933C07A0933B07DF9111
:10594000CF91089581E090E0F89409C0FB01DC015B
:1059500002C001900D9241505040D8F7089511E0D7
:10596000C9E3D1E000E005C0802FFE01C2DE219630
:10597000011DCA33D10780E00807B1F7F894FFCFC3
:10598000FF00003F07800000007A440000C8424842
:10599000494A4B000020410102030405060F100094
:1059A00000000019026C0196016502C701A501B94A
:1059B00001000000003B030F036A03E3020703F347
:1059C00002E4022C20000D0A006E616E00696E6612
:0659D000006F7666000086
:00000001FF
