:100000000C945E010C948F010C948F010C948F0161
:100010000C948F010C948F010C948F010C948F0120
:100020000C948F010C94781D0C94781D0C94781D01
:100030000C948F010C941D1A0C948F010C948F0159
:100040000C948F010C948F010C948F010C948F01F0
:100050000C948F010C948F010C948F010C940A1C4A
:100060000C948F010C94E01B0C94B61B0C948F0124
:100070000C948F010C948F010C948F010C948F01C0
:100080000C948F010C948F010C948F010C948F01B0
:100090000C948C1B0C94621B0C948F010C94541CBC
:1000A0000C948F010C948F010C948F010C948F0190
:1000B0000C948F010C948F010C948F010C948F0180
:1000C0000C948F010C948F010C948F010C94381BAD
:1000D0000C940E1B0C948F010C94E41A0C94BA1A15
:1000E0000C948F010C9443030C94B1040C948C0475
:1000F0000C9499040C945A090C94560B0C94830993
:100100000C9484040C9435100C94F4030C94391062
:100110000C9491010C947C070C94DA020C94470621
:100120000C947B2A0C947C090C9495040C948C08F8
:100130000C94BB040C9447070C94AA0F0C942F0347
:100140000C94B5040C9420030C9437100C94920179
:100150000C9480040C94A7030C949F040C946307E4
:100160000C94931D0C94EB080C94A3040C948F0432
:100170000C949B080C9459080C948B070C94A704BE
:100180000C9459090C9425080C9488040C94750758
:100190000C9451030C94AD040C946E040C946904FB
:1001A0000C94B0090C94BC070C9469090C94BF041E
:1001B00000000A0B02090C0D0E08070304010000E1
:1001C000000000000000000000000000000000002F
:1001D00000000000000000000000000012111000EC
:1001E000000000000000000000000000000000000F
:1001F0000000000000000200002200250028002B63
:10020000002E003100340002010000050108010B3E
:100210000100002100240027002A002D00300033B7
:100220000001010000040107010A01050505050799
:100230000508080808020202020A0A080804040461
:10024000040101010101010101030303030303038D
:1002500003040707070C0C0C0C0C0C0C0C0202021C
:100260000206060606060606060B0B0B0B0B0B0B0F
:100270000B010210202008081020401020408002AE
:1002800001020108040201010204081020408080DC
:100290004020100804020180040201804020100860
:1002A0000402010804020101020408102040800138
:1002B0000204081020408000931D7B2A11241FBED9
:1002C000CFEFD1E2DEBFCDBF00E00CBF12E0A0E077
:1002D000B2E0E6E2FEE500E00BBF02C007900D923F
:1002E000A838B107D9F727E0A8E8B2E001C01D920D
:1002F000A137B207E1F711E0CDE5D1E000E006C09B
:1003000021970109802FFE010E94CB2DCC35D1070A
:1003100080E00807A9F70E945B1E0C94012F0C9443
:10032000000008950895982F2091810481E02132E2
:1003300008F043C0809180048111FCCF8091790442
:1003400032E03093800490937F049FEF90935704A2
:100350001092560420935504A9E5B4E0E5E3F4E0D7
:1003600090E0291331C01092340490913404880F26
:10037000892B8093340480917E04813049F510925A
:100380007E04809134048093BB008091BC0083FD87
:10039000F8CF85EC8093BC00809180048230E1F33B
:1003A000809157048F3FB1F0809157048032A1F0C3
:1003B00080915704803391F084E01092820410926F
:1003C00081041092580408953D9131939F5FC9CFE5
:1003D00085EEE0CF80E0F1CF82E0EFCF83E0EDCF9C
:1003E00081E00C94930191E09093580480937904F8
:1003F00010928204109281040895909180049111CA
:10040000FCCF91E09093800490937F042FEF209392
:10041000570410925604260F2093550490933404E9
:1004200090913404880F892B8093340480917E044A
:100430008130F9F410927E04809134048093BB00E3
:100440008091BC0083FDF8CF85EC8093BC00809147
:1004500080048130E1F380915604861710F4609196
:100460005604A5E3B4E0E4E1F4E080E0861303C0C1
:10047000089585EEEACF9D9191938F5FF7CFCF924C
:10048000DF92EF92FF92CF93DF93EC016A017B0141
:10049000E889F98982E08083C11481EED806E104FD
:1004A000F104A1F060E079E08DE390E0A70196010E
:1004B0000E94572B21503109410951095695479502
:1004C00037952795211580E1380798F0E889F98953
:1004D000108260E874E88EE190E0A70196010E9426
:1004E000572B2150310941095109569547953795A8
:1004F0002795EC85FD853083EE85FF852083188E5A
:10050000EC89FD8986E08083EA89FB8980818061AE
:100510008083EA89FB89808188608083EA89FB89FE
:10052000808180688083EA89FB8980818F7D8083D8
:10053000DF91CF91FF90EF90DF90CF900895E8E1A9
:10054000F7E090E02FEF3FEF981791F041912427CB
:1005500048E0B9016170772736952795672B21F020
:1005600051E0252750EA3527415099F79F5FECCF9E
:10057000922F832F089590E0FC01EF58FD4F2491B6
:10058000855D9D4FFC018491882399F090E0880F50
:10059000991FFC01EF5EFD4FA591B491FC01E9505C
:1005A000FE4F859194918FB7F894EC91E22BEC93E8
:1005B0008FBF0895AF92BF92CF92DF92EF92FF92DA
:1005C0000F931F93CF93DF936C017B018B01040F7B
:1005D000151FEB015E01AE18BF08C017D10759F017
:1005E0006991D601ED91FC910190F081E02DC60159
:1005F0001995892B79F7C501DF91CF911F910F9143
:10060000FF90EF90DF90CF90BF90AF900895FC01E6
:10061000A089B1898C91A689B78982FD0FC09C9170
:10062000818D8F5F8F73228D821749F0A18DAE0F60
:10063000BF2FB11D5D969C93818F08958C91089575
:10064000FC01538D448D252F30E0842F90E0821BD8
:10065000930B541710F0CF96089501970895FC015D
:10066000918D828D981761F0A28DAE0FBF2FB11DB5
:100670005D968C91928D9F5F9F73928F90E008950D
:100680008FEF9FEF0895FC01918D828D981731F0C7
:10069000828DE80FF11D858D90E008958FEF9FEF1B
:1006A0000895FC01918D228D892F90E0805C9F4FF1
:1006B000821B91098F739927089585E894E00E9421
:1006C000510321E0892B09F420E0822F089582E272
:1006D00095E00E94510321E0892B09F420E0822F4C
:1006E00008958FEB95E00E94510321E0892B09F4D6
:1006F00020E0822F08958CE596E00E94510321E0CE
:10070000892B09F420E0822F0895FC01A48DA80F05
:10071000B92FB11DA35ABF4F2C91848D90E0019643
:100720008F739927848FA689B7892C93A089B18963
:100730008C91837080648C93938D848D981306C004
:100740000288F389E02D80818F7D80830895EF9268
:10075000FF920F931F93CF93DF93EC0181E0888F7B
:100760009B8D8C8D98131AC0E889F989808185FF4B
:1007700015C09FB7F894EE89FF896083E889F989ED
:1007800080818370806480839FBF81E090E0DF91EF
:10079000CF911F910F91FF90EF900895F62E0B8D42
:1007A00010E00F5F1F4F0F731127E02E8C8D8E11FD
:1007B0000CC00FB607FCFACFE889F989808185FF64
:1007C000F5CFCE010E948503F1CFEB8DEC0FFD2F0D
:1007D000F11DE35AFF4FF0829FB7F8940B8FEA891F
:1007E000FB8980818062CFCFCF93DF93EC01888D2E
:1007F0008823B9F0AA89BB89E889F9898C9185FD9C
:1008000003C0808186FD0DC00FB607FCF7CF8C9129
:1008100085FFF2CF808185FFEDCFCE010E94850359
:10082000E9CFDF91CF91089580E090E0892B29F006
:100830000E947B0381110E94000080E090E0892BE0
:1008400029F00E94710381110E94000080E090E075
:10085000892B29F00E94670381110E94000080E02B
:1008600090E0892B29F00E945D0381110C94000017
:100870000895282F30E0F901E055FE4F9491F901D9
:10088000EF58FD4F4491255D3D4FF90124912223FE
:1008900009F435C0992311F191509231F8F4E92F00
:1008A000F0E08827E95AFB4F8F4F0C94CB2D88043A
:1008B0008C046904800484046E048F0495049904F4
:1008C0009F04A304A704AD04B1046E04B504BB04E3
:1008D000BF04809180008F7780938000E22FF0E04A
:1008E000EE0FFF1FE950FE4FA591B4918FB7F8941A
:1008F000EC91611148C040954E234C938FBF0895F1
:10090000809180008F7DE8CF80918000877FE4CF49
:1009100084B58F7784BDE2CF84B58F7DFBCF809186
:10092000B0008F778093B000D9CF8091B0008F7DD9
:10093000F9CF809190008F7780939000CFCF8091F6
:1009400090008F7DF9CF80919000877FF5CF8091C7
:10095000A0008F778093A000C1CF8091A0008F7DF1
:10096000F9CF8091A000877FF5CF809120018F770C
:1009700080932001B3CF809120018F7DF9CF8091AA
:100980002001877FF5CF4E2BB8CF109284041092B0
:10099000830410928204109281041092800481E0FA
:1009A00080937F0410927E0461E084E10E94390408
:1009B00061E085E10E943904E9EBF0E080818E7FFF
:1009C000808380818D7F808388E48093B80085E474
:1009D0008093BC0081E991E090937D0480937C0436
:1009E00082E991E090937B0480937A0408953FB765
:1009F000F8948091F1029091F202A091F302B091EB
:100A0000F40226B5A89B05C02F3F19F00196A11D41
:100A1000B11D3FBFBA2FA92F982F8827BC01CD0148
:100A2000620F711D811D911D42E0660F771F881FA7
:100A3000991F4A95D1F708958F929F92AF92BF92D6
:100A4000CF92DF92EF92FF926B017C010E94F7043C
:100A50004B015C01C114D104E104F104B9F00E941E
:100A6000F704681979098A099B09683E7340810572
:100A7000910580F321E0C21AD108E108F10888EE5F
:100A8000880E83E0981EA11CB11CE4CFFF90EF906C
:100A9000DF90CF90BF90AF909F908F9008952FB729
:100AA000F8946091ED027091EE028091EF029091C6
:100AB000F0022FBF0895CF93C09158078C2F0E944A
:100AC0009F02EC2FF0E0E15FF84F9187E1E0EC0F3F
:100AD000F0E0E15FF84F8187CE5FC09358079091B7
:100AE0001507809114079230C0F0823009F474C069
:100AF000833009F477C0813009F07AC09091C80042
:100B000090649093C80090910501906490930501C2
:100B1000909105019062909305014091580750E033
:100B2000843008F06BC080910F0790911007DC01B2
:100B3000ED91FC910280F381E02D68E177E0199559
:100B400090911507809114079230B8F0823009F423
:100B50005AC0833009F45CC0813009F05EC09091C6
:100B6000C80096FFFCCF909105019F7B90930501F3
:100B7000909105019F7D90930501843008F052C04B
:100B800080910F0790911007DC01ED91FC91028498
:100B9000F385E02D199597FFF3CF109258070E9427
:100BA0004F052091620730916307620F731F811D0B
:100BB000911D609368077093690780936A0790930B
:100BC0006B0780915E0790915F07019690935F0796
:100BD00080935E07CF9108959091D0009064909398
:100BE000D00091CF909130019064909330018BCFE1
:100BF0009091C00090649093C00085CF80911107C0
:100C00009091120794CF9091D00096FFFCCFABCF7C
:100C10009091300196FFFCCFA6CF9091C00096FF37
:100C2000FCCFA1CF8091110790911207DC01ED91CB
:100C3000FC910284F385E02D199597FFF3CFADCF9A
:100C40008F929F92AF92BF92CF92DF92EF92FF92DC
:100C50000F931F93CF93DF938AE093E090935B070A
:100C600080935A0785E880936C078091140784303D
:100C7000E0F480910F0790911007DC01ED91FC9159
:100C80000084F185E02D1995811114C0C0E08C2FEE
:100C9000DF91CF911F910F91FF90EF90DF90CF9058
:100CA000BF90AF909F908F90089580911107909181
:100CB0001207E3CF90915907891789F0809359075C
:100CC0000E944F056B5F7F4F8F4F9F4F609364076C
:100CD000709365078093660790936707D7CF0E944C
:100CE0004F050091640710916507209166073091C8
:100CF0006707601771078207930740F21092590740
:100D000080911507823050F0809105018F7B809390
:100D10000501809105018F7D809305011092580790
:100D200080911407C0E0843040F1809111079091C8
:100D30001207DC01ED91FC910084F185E02D1995FD
:100D4000892B09F43FC08091110790911207DC01B3
:100D5000ED91FC910284F385E02D1995909158074F
:100D6000E92FF0E0E15FF84F81879F5F909358078C
:100D70009034D8F2C1E0D9CFC1E080910F079091B3
:100D80001007DC01ED91FC910084F185E02D1995AF
:100D9000892BC1F080910F0790911007DC01ED9134
:100DA000FC910284F385E02D199590915807E92F65
:100DB000F0E0E15FF84F81879F5F90935807903490
:100DC000D8F6DBCF80915C0790915D0701969093F8
:100DD0005D0780935C07CC2371F080916007909150
:100DE0006107019690936107809360078DEF809370
:100DF0001707CDEF4CCFC0915807C0931707C730E6
:100E00000CF445CF909118078091130798133ECFAB
:100E10000C2F10E08EEF8C0F0E949F02F801E15F13
:100E2000F84F2781308523273227232728173907B2
:100E300069F0809160079091610701969093610736
:100E400080936007CFEFC093170721CF2091190738
:100E5000E0E1F2E08191821709F4DEC1B2E0E8310D
:100E6000FB07C1F78091600790916107019690930D
:100E7000610780936007C1E0205820931907C09351
:100E80001A0783E0809358070E945B05DCCF8091AE
:100E90001A0790911B07982789279827AC01F4E03F
:100EA00056954795FA95E1F780911C0790911D079B
:100EB000982789279827A4E096958795AA95E1F722
:100EC000840F951F0CC080911A0790911B079827DB
:100ED00089279827E4E096958795EA95E1F7909120
:100EE0006C079817C0F4C2E0C7CF80911A079091A1
:100EF0001B0798278927F3CF80911C0790911D0726
:100F000098278927982740911A0750911B07542743
:100F100045275427D5CF0E944F0520916207309175
:100F20006307620F731F811D911D609368077093A3
:100F3000690780936A0790936B0710921707E091F7
:100F40001907E150E03108F0A2CEF0E08827E4551F
:100F5000F84F8F4F0C94CB2DBC07BC0725082508F4
:100F600059088C08470647064706470647064706BE
:100F7000470647069B08EB0880911A0790911B07CC
:100F800098278927982700911C0710911D07102783
:100F900001271027A80173E0569547957A95E1F748
:100FA000242FE801C770DD27209711F021E0240FDE
:100FB00020931A0723E020935807080F191F30E0E9
:100FC000C12CD12C7601C3940817190791F1E22F97
:100FD000F0E0B701A601032E04C0440F551F661FA1
:100FE000771F0A94D2F7E15FF84FB184DC0153E038
:100FF000B695A7955A95E1F7AE7FB170A65FBC4F45
:101000008D909C90A82FAF70AA2ED40102C0B695E7
:10101000A795AA94E2F7A0FF09C04B2941873F5F3B
:10102000383010F02F5F30E00196CECF40954B2145
:10103000F5CFCD2B41F420935807C0915807CE5FD0
:101040000E945B0524CE2F5FF6CF80911A07909106
:101050001B0798278927982F20911C0730911D077F
:1010600032272327322F330F30931A07E3E0280F5C
:101070003327331FC2E0CE0FA92FB0E0A217B3076A
:10108000ACF4AA0FBB1FA65FBC4F8C9111964C917C
:10109000AE2FB0E0A15FB84F19964C93EF5FF0E030
:1010A000E15FF84F81879F5FEC2FE4CFE093580713
:1010B000C7CF20911A0730911B07322723273227E9
:1010C000F90173E0F695E7957A95E1F7EE7FF17017
:1010D000E65FFC4F408151812F7081E090E0A0E0FD
:1010E000B0E004C0880F991FAA1FBB1F2A95D2F732
:1010F00020911C072F3F59F4842B952B91838083DB
:1011000086E0809358070E945B05C8E0C0CD8095BB
:10111000909584239523F2CFE0911B07F0E0EE0F2A
:10112000FF1FE65FFC4F80911C0790911D079827D9
:1011300089279827E3CF80911A0790911B0798275A
:101140008927982720911C0730911D0732272327D4
:101150003227280F391F10E007E0C12CD12C76016F
:10116000C3942817390761F2FC0143E0F695E7952F
:101170004A95E1F7EE7FF170E65FFC4F482F4F7024
:101180004601570104C0880C991CAA1CBB1C4A9537
:10119000D2F7A401C081D181A02FB0E0A15FB84FE8
:1011A0001996AC91B0E0012E02C0B595A7950A94AE
:1011B000E2F7A0FF0BC04C2B5D2B518340831F5FD8
:1011C000183010F00F5F10E00196CBCF409550958E
:1011D0004C235D23F2CFE0911B0740911D07109235
:1011E0001C0786E080935807AFE0B7E0F0E0EE0F11
:1011F000FF1FE65FFC4F80E01296481709F483CF8B
:101200001E962C911E971F969C911F97322F292F67
:10121000219331938F5FF0CFEFEFE20FE03108F0D1
:101220007ACEF0E08827E85EF64F8F4F0C94CB2DF6
:10123000470747077C077C07630775078B078B0702
:101240008B078B078B078B078B078B0747077C0761
:1012500085ED8093BC008091BC0084FDFCCF109292
:10126000800408952091C902260F3327331F2132AD
:101270003105ECF420918004FC0190E080E0243002
:1012800069F082E00895A091C9022191AC0147550F
:101290005D4FA40FB52FB11D2C930196861798F3BF
:1012A0008091C902680F6093C90280E0089581E0CF
:1012B00008950895E091840480918304E81730F440
:1012C000F0E0EC5EFB4F808190E008958FEF9FEFA0
:1012D000089590918404809183042FEF3FEF981735
:1012E00048F4E92FF0E0EC5EFB4F208130E09F5F97
:1012F00090938404C901089580918304909184049B
:10130000891B990B0895CF92DF92EF92FF920F9372
:101310001F93CF93DF937C01CB018A012091580466
:10132000222389F0EB016B01C40ED51ECC15DD051F
:1013300069F06991D701ED91FC910190F081E02D68
:10134000C7011995F3CF642F0E943209C801DF91BC
:10135000CF911F910F91FF90EF90DF90CF90089564
:10136000CF93DF931F92CDB7DEB7698320915804E6
:101370002223F9F020918104203258F021E030E05E
:10138000FC013383228390E080E00F90DF91CF91C6
:10139000089580918204E82FF0E0E75AFB4F99818D
:1013A00090838F5F809382048093810481E090E03A
:1013B000ECCF61E0CE0101960E943209F7CFCF93C6
:1013C000DF93EB010E94F30161E089EF96E00E9458
:1013D000B0096D2F89EF96E00E94B0096C2F89EF5C
:1013E00096E00E94B009DF91CF910C94F001682F34
:1013F00089EF96E00C94B0091F93CF93DF93EC0133
:10140000162F80910D070E94F3018D2F90E00E940E
:10141000F709CE0199270E94F709612F89EF96E01D
:101420000E94B009DF91CF911F910C94F001682FB9
:1014300089EF96E00C94B0094F925F926F927F9281
:101440008F929F92AF92BF92CF92DF92EF92FF92D4
:101450000F931F93CF93DF9300D000D000D01F9243
:10146000CDB7DEB79A8789872A013B0109831A83A2
:101470002B833C83DC019196BC92AE92909781E0E5
:10148000AA94AB2809F080E0E985FA8583AF46820B
:1014900057826086718689819A81AB81BC818287FF
:1014A0009387A487B587C686D786E08AF18A66A522
:1014B00077A580A991A90E94A22C20E030E04AE7FC
:1014C00054E40E94FA2B6D837E838F839887E9858D
:1014D000FA85428A538A648A758A9B01AC016981C4
:1014E0007A818B819C810E94592D4B015C01A985D9
:1014F000BA8556968D929D92AD92BC9259972D8148
:101500003E814F815885C701B6010E94FA2B6B01BD
:101510007C01E985FA85C28ED38EE48EF58E868DA8
:10152000978D019759F5A301920160E070E0CB011E
:101530000E94882BA985BA8552966D937D938D93D1
:101540009C935597A501940160E070E0CB010E9447
:10155000882BE985FA85668B778B808F918FA70121
:10156000960160E070E0CB010E94882BA985BA85C6
:101570005A966D937D938D939C935D972A960FB6A3
:10158000F894DEBF0FBECDBFDF91CF911F910F91B9
:10159000FF90EF90DF90CF90BF90AF909F908F9093
:1015A0007F906F905F904F9008952F923F924F924F
:1015B0005F926F927F928F929F92AF92BF92CF92E3
:1015C000DF92EF92FF920F931F93CF93DF93EC0183
:1015D0006A017B0148015901A9019801CB01B601BB
:1015E0000E94542D87FF4FC0CAAADBAAECAAFDAA0D
:1015F0008EAA9FAAA8AEB9AE8AAD882309F443C0CB
:101600002A803B80F1014080518062807380A30179
:101610009201C501B8010E94F52B87FF1AC0F101A4
:1016200080829182A282B3828EA09FA0A8A4B9A436
:10163000CEA8DFA8E8ACF9ACA7019601C501B401BA
:101640000E94542D18169CF4CEA2DFA2E8A6F9A69B
:101650001AC0A3019201C701B6010E94542D1816A9
:101660001CF7F101C082D182E282F382DDCFCAA8E9
:10167000DBA8ECA8FDA8A7019601C501B4010E9452
:10168000F52B87FDE1CFDF91CF911F910F91FF9057
:10169000EF90DF90CF90BF90AF909F908F907F9012
:1016A0006F905F904F903F902F90089590E080E072
:1016B0000895CF93C62FFC01618380810E94F301BE
:1016C00081E090E002C0880F991FCA95E2F70E945E
:1016D000170ACF910C94F001FF920F931F93CF93B1
:1016E000DF938C01C62FF42ED52F8091B800F8011E
:1016F00081838CE08093B800643008F580E68083B5
:10170000F80180810E94F3018C2F90E0880F991FCF
:1017100080640E94170A8D2F90E00E94F7098F2D98
:101720009D2F0E94F7090E94F001F80181818093AA
:10173000B800DF91CF911F910F91FF90089581E63E
:101740008083C450DDCF0E94F7040E94A22C20E0C9
:1017500034E244E759E40E94FA2B08958F929F9255
:10176000AF92BF92CF92DF92EF92FF92CF93DF932F
:10177000FC01E751FF4F2081EC01C551DF4F2223CF
:1017800079F0188219821A821B82DF91CF91FF9023
:10179000EF90DF90CF90BF90AF909F908F90089583
:1017A0006A017B01FC01EC55FF4F80809180A28093
:1017B000B380AB019601C501B4010E94F52B87FFF0
:1017C00005C088829982AA82BB82DFCF20E030E008
:1017D000A901C701B6010E94F52B87FDD2CFC882AF
:1017E000D982EA82FB82D1CFFC0180810E94F30181
:1017F00090E080E00E94170A0C94F0010F931F9371
:10180000CF93DF938C01CDE0D7E088810E94F30174
:10181000812F90E00E94F709C80199270E94F709DB
:101820000E94F00161E088810E94FD011092840411
:101830008093830489EF96E00E946909DF91CF913C
:101840001F910F9108951F93CF93DF93EC010E9496
:10185000FE0B182FCE0101960E94FE0B90E0982FF0
:101860008827810F911DDF91CF911F9108950F93CC
:101870001F93CF93DF938C01EB01CB010E94230CCC
:101880008017910779F0602FCE010E94FC09612F2B
:10189000CE0101960E94FC0981E0DF91CF911F915A
:1018A0000F91089580E0F9CF0F931F93CF93DF93AB
:1018B0000AE013E0D0E0C0E0BE01F801819191910F
:1018C0008F010E94370C2496C431D105A9F704E199
:1018D00013E0BE01F801819191918F010E94370CB4
:1018E0002496C832D105A9F70EE113E0BE01F80134
:1018F000819191918F010E94370C2496CC33D105B0
:10190000A9F76CE370E080919803909199030E948D
:10191000370C60E470E080919A0390919B030E94E1
:10192000370C64E470E08091CA039091CB030E946D
:10193000370C68E470E08091CC039091CD030E9455
:10194000370C6CE470E08091CE039091CF030E943D
:10195000370C60E570E080919C0390919D030E949C
:10196000370C64E570E080919E0390919F030E9484
:10197000370C68E570E080918803909189030E949C
:10198000370C6CE570E080918A0390918B030E9484
:10199000370C60E670E080918C0390918D030E947B
:1019A000370C64E670E080918E0390918F030E9463
:1019B000370C68E670E080919003909191030E944B
:1019C000370C6CE670E080919203909193030E9433
:1019D000370C60E770E080919403909195030E942A
:1019E000370C64E770E080919603909197030E9412
:1019F000370C68E770E08091A2039091A3030E94E6
:101A0000370C6CE770E08091D0039091D1030E9475
:101A1000370C60E870E08091D6039091D7030E9464
:101A2000370C64E870E08091D8039091D9030E944C
:101A3000370C68E870E08091DA039091DB030E9434
:101A4000370C6CE870E08091DC039091DD030E941C
:101A5000370C60E970E08091DE039091DF030E9413
:101A6000370C64E970E08091E0039091E1030E94FB
:101A7000370C68E970E08091E2039091E3030E94E3
:101A8000370C6CE970E08091E4039091E5030E94CB
:101A9000370C60EA70E08091E6039091E7030E94C2
:101AA000370C64EA70E08091E8039091E9030E94AA
:101AB000370C68EA70E08091EA039091EB030E9492
:101AC000370C6CEA70E08091EC039091ED030E947A
:101AD000370C60EB70E08091EE039091EF030E9471
:101AE000370C64EB70E08091F0039091F1030E9459
:101AF000370C68EB70E08091F2039091F3030E9441
:101B0000370C6CEB70E08091F4039091F5030E9428
:101B1000370C60EC70E08091F6039091F7030E941F
:101B2000370C64EC70E08091F8039091F9030E9407
:101B3000370C68EC70E08091FA039091FB030E94EF
:101B4000370C6CEC70E08091FC039091FD030E94D7
:101B5000370C60ED70E08091FE039091FF030E94CE
:101B6000370C64ED70E080910004909101040E94B4
:101B7000370C68ED70E080910204909103040E949C
:101B8000370C6CED70E080910404909105040E9484
:101B9000370C60EE70E080910604909107040E947B
:101BA000370C64EE70E080910C0490910D04DF918D
:101BB000CF911F910F910C94370C0F931F93CF93DC
:101BC000DF9308E213E0C8EED3E0BE01F801819193
:101BD00091918F010E94370C2496C115F4E0DF0724
:101BE000A1F704E313E0C0EDD7E0BE01F801819155
:101BF00091918F010E94370C2496C83EF7E0DF07D1
:101C0000A1F7DF91CF911F910F910895CF93C82F26
:101C10000E94F30160E089EF96E00E94B0090E9403
:101C2000F00162E08C2F0E94FD01109284048093E9
:101C3000830489EF96E00E946909C82F89EF96E036
:101C40000E94690920E03C2FA901482BCA01CF91CD
:101C500008952F923F924F925F926F927F928F9250
:101C60009F92AF92BF92CF92DF92EF92FF920F932B
:101C70001F93CF93DF9300D000D0CDB7DEB79E8304
:101C80008D83FC01E851FF4F80810D811E81045539
:101C90001F4F882309F438C10E944F0569837A8356
:101CA0008B839C83F801C080D180E280F380ED813A
:101CB000FE81E659FF4F60817181828193819B0192
:101CC000AC010E94592D4B015C0120E030E046E957
:101CD00053E4C701B6010E94882B2BE632E142EAA9
:101CE0005CE30E94592D20E030E040E351E40E9483
:101CF000892B9B01AC01C501B4010E94FA2B4B0159
:101D00005C0120E030EF4FE755E4ED81FE81E055C6
:101D1000FF4F60817181828193810E94FA2B9B0128
:101D2000AC01C501B4010E94592D4B015C01ED814C
:101D3000FE81E658FF4F2081318142815381ED8140
:101D4000FE81EA58FF4F60817181828193810E94F8
:101D5000592D2B013C01ED81FE81E657FF4F20817B
:101D6000318142815381C701B6010E94882B9B01BA
:101D7000AC01C301B2010E94592D9B01AC01C50108
:101D8000B4010E94882BED81FE81EA57FF4F20812C
:101D90003181428153810E94FA2B4B015C016D809D
:101DA0007E80F4EB6F0E711CF3018081918169815B
:101DB0007A81681B790B072E000C880B990B0E9407
:101DC000A42C9B01AC01C501B4010E94592D20E057
:101DD00030E04AE754E40E94FA2BA70196010E94E2
:101DE000892BF80160837183828393830E944F055E
:101DF000F30160837183828393830E944F05ED8199
:101E0000FE81E856FF4F60837183828393832D8028
:101E10003E80F4E92F0E311CF101C080D180E280B8
:101E2000F3809B01AC012C193D094E095F09690142
:101E30007A01ED81FE81E456FF4F80819181A2817C
:101E4000B3818C159D05AE05BF0508F03FC0F801B4
:101E500080809180A280B3802D813E812A593F4F9E
:101E60003A8329834D815E8148555F4F5E834D8360
:101E7000FA012081318142815381C501B4010E9460
:101E8000882B2B013C01C701B6010E94A22C20E047
:101E900030E04AE754E40E94FA2B9B01AC01C301F5
:101EA000B2010E94FA2BE981FA81608371838283F7
:101EB0009383ED81FE8180829182A282B3820E940F
:101EC0004F05F1016083718382839383F801608100
:101ED00071818281938126960FB6F894DEBF0FBE82
:101EE000CDBFDF91CF911F910F91FF90EF90DF90C9
:101EF000CF90BF90AF909F908F907F906F905F90AA
:101F00004F903F902F900895ED80FE80F4E6EF0E05
:101F1000F11CED81FE81E257FF4F0190F081E02D31
:101F2000E031F10508F0A7C08827E656F04F8F4F43
:101F30000C94CB2DAA0FAA0FAA0FAA0F351035109B
:101F40003510351037103710371037103910391059
:101F50003910391060E0C7010E94590BED81FE81F4
:101F600064857585636E716881850E94DF098BEBDE
:101F700092E10197F1F7ED81FE8181850E94060EC5
:101F8000ED81FE812385022E02C0969587950A94E5
:101F9000E2F7222329F08115F8E09F0708F0906FFF
:101FA000ED81FE81978B868B64857585636E716B81
:101FB00081850E94DF098BEB92E10197F1F7ED81BA
:101FC000FE8181850E94060EED81FE812385022E11
:101FD00002C0969587950A94E2F7222329F081158D
:101FE000F8E09F0708F0906FED81FE81918F808F60
:101FF000BC01990F880B990B0E94A42C4B015C012A
:10200000ED81FE8166897789072E000C880B990B7C
:102010000E94A42C9B01AC01C501B4010E94FA2BC3
:10202000ED81FE8126853785408951890E94592D91
:10203000ED81FE81EC53FF4F20813181428153813C
:102040000E94592DED81FE81E853FF4F208131819F
:10205000428153810E94882BF801608371838283BF
:102060009383C7010E94F40BC8CE61E074CF62E095
:1020700072CF63E070CFC7010E94F40B6FCF2F9235
:102080003F924F925F926F927F928F929F92AF9208
:10209000BF92CF92DF92EF92FF920F931F93CF9355
:1020A000DF93CDB7DEB765970FB6F894DEBF0FBEEE
:1020B000CDBF18861F82E0910907F0910A078F8132
:1020C0009885E80FF91FA081B181BD8BAC8BFD0114
:1020D000E751FF4F8081882349F1A055BF4FFD0193
:1020E0001082118212821382EF81F8853296F8876E
:1020F000EF83349701F71092000265960FB6F894BB
:10210000DEBF0FBECDBFDF91CF911F910F91FF902A
:10211000EF90DF90CF90BF90AF909F908F907F9087
:102120006F905F904F903F902F9008958C899D897C
:1021300086969B8B8A8B0C891D89005A1F4FD8016C
:102140008C9181113AC0AC89BD899896ED91FC9132
:10215000999780809180A280B3807D01BCE4EB0ED2
:10216000F11CF70180829182A282B382AC89BD8981
:102170009696ED91FC9180819181A281B381EC8949
:10218000FD89E05BFF4F80839183A283B383EC8959
:10219000FD89E45AFF4F4080518062807380A30123
:1021A0009201C501B4010E94542D18160CF09CC177
:1021B000F701408251826282738221E0F80120831C
:1021C0008C899D890E94290ED8018C91882309F45D
:1021D00023C10E944F0569877A878B879C87EC898A
:1021E000FD89E85BFF4F80819181A281B3814985A0
:1021F0005A856B857C85481B590B6A0B7B0BEC89D8
:10220000FD89EC5AFF4F80819181A281B3814817EB
:1022100059076A077B0708F4FFC0AC89BD89969609
:10222000ED91FC9180819181A281B38189839A8310
:10223000AB83BC83AC89BD899A96ED91FC912981D1
:102240003A814B815C8160817181828193810E949E
:10225000882B6B017C01EC89FD89E05BFF4F2081BD
:1022600031814281538169817A818B819C810E9475
:10227000882B6D877E878F87988BEC89FD8924ADAD
:1022800035AD46AD57ADC701B6010E94592D6C88DA
:102290007D88FCE46F0E711CD3012D913D914D9111
:1022A0005C910E94892B4B015C01F3018082918239
:1022B000A282B382EC89FD89EF59FF4F2081298BDF
:1022C000211119C0AC89BD89D8962D913D914D91B0
:1022D0005C91DB976D857E858F8598890E94592D4D
:1022E0009B01AC01C501B4010E94882BF3016083FE
:1022F0007183828393838C899D89845B9F4F9E83A6
:102300008D83DC014D905D906D907C90EC89FD8912
:10231000E45AFF4F20803180028113819101A8018E
:10232000C301B2010E94542D18160CF0F4C0C10173
:10233000D801ED81FE8180839183A283B383B98923
:10234000BB2309F400C1EC89FD8920AD31AD42AD5C
:1023500053ADC701B6010E94592D6B017C01EC8978
:10236000FD89E05CFF4F20813181428153816D8581
:102370007E858F8598890E94592D9B01AC01EC893F
:10238000FD89E45BFF4F60817181828193810E94AE
:10239000882BA70196010E94892B6B017C019B0170
:1023A000AC01B101C8010E94F52B87FD12C0EC8978
:1023B000FD89E85AFF4F208031800281138191010D
:1023C000A801B601C7010E94F52B87FD02C01601C6
:1023D0008701AC89BD899896ED91FC91C101D80126
:1023E00080839183A283B383EC89FD89E05BFF4FF7
:1023F00089819A81AB81BC8180839183A283B383DD
:10240000EC89FD89E85BFF4F89859A85AB85BC85A2
:1024100080839183A283B383EC89FD89E852FF4FC7
:10242000C080D180E280F38020E030E048EC52E4CC
:10243000EC89FD89E452FF4F608171818281938133
:102440000E94882B4B015C01A7019601EC89FD8954
:10245000EC52FF4F60817181828193810E94882BB1
:102460009B01AC01C501B4010E94FA2B4B015C0138
:10247000A7019601EC89FD89E455FF4F60817181C8
:10248000828193810E94882B9B01AC01C501B4011C
:102490000E94592D20E030E048EC52E40E94892B44
:1024A00020E030E048EC52E40E94FA2B20E030EFCC
:1024B0004FE755E40E94592D6B017C0120E030EF7D
:1024C0004FE755E40E94542D0C891D8900561F4F7B
:1024D0001816ECF580E090EFAFE7B5E4F8018083E3
:1024E0009183A283B38342C0EC89FD89E85AFF4FF0
:1024F0004080518062807380A3019201C501B401C4
:102500000E94F52B87FF59CED7014D925D926D92B7
:102510007C92139752CEEC89FD89E85AFF4F808058
:102520009180A280B380A5019401C301B2010E94F1
:10253000F52B87FF04CFAD81BE818D929D92AD9228
:10254000BC921397FCCEC12CD12C760108CF20E091
:1025500030E0A901C701B6010E94F52B87FD2DC00F
:10256000D801CD92DD92ED92FC921397D8010D9196
:102570001D912D913C9140E050E0BA018A899B89E0
:102580000E94D50AEC89FD89E257FF4F108118306F
:1025900008F0AACDEC89FD89E055FF4F608171817B
:1025A000828193810E94732CAB01612F8C899D895C
:1025B0008E599F4F0E946C0B97CD8FE692E1A3E856
:1025C000BAE38CCFE0910907F0910A0780819181ED
:1025D000FC01E05AFF4F1082E05BFF4F1082118236
:1025E00012821382B2976081683030F450E040E08C
:1025F0008E599F4F0E946C0BE0910907F0910A07DA
:1026000082819381FC01E05AFF4F1082E05BFF4F13
:102610001082118212821382B2976081683030F486
:1026200050E040E08E599F4F0C946C0B08957F92C0
:102630008F929F92AF92BF92CF92DF92EF92FF92D2
:102640000F931F93CF93DF93782E682F8EE10E9414
:102650003904672D8FE10E943904E0910907F09158
:102660000A070190F081E02DE851FF4F8081882317
:1026700081F1D0E0C0E08CE1C82E8CE0D82EE12CB6
:10268000F12C94E5892E9BE0992EA12CB12C81E0B0
:1026900078122DC00E94CD2AE0910907F0910A0717
:1026A000EC0FFD1F008111810A581F4FA5019401F5
:1026B0000E94252B6C597F4F8F4F9F4F0E94A42C57
:1026C000F80160837183828393832296C430D1059D
:1026D000F1F6DF91CF911F910F91FF90EF90DF9076
:1026E000CF90BF90AF909F908F907F9008950E9461
:1026F000CD2AE0910907F0910A07EC0FFD1F008138
:1027000011810A581F4FA70196010E94252B685B73
:102710007B4081099109D2CF4F925F926F927F9255
:102720008F929F92AF92BF92CF92DF92EF92FF92E1
:10273000CF93DF93C0910907D0910A07E881F9810F
:10274000E455FF4F80809180A280B3806091E603C2
:102750007091E70390E080E00E94A22C20E030E03E
:1027600040E251E40E94FA2B6B017C01EA81FB817B
:10277000E455FF4F40805180628073808091000259
:10278000811123C0A5019401C701B6010E94542DF7
:10279000181644F4A3019201C701B6010E94542DFA
:1027A000181674F181E00E94171380E0DF91CF9139
:1027B000FF90EF90DF90CF90BF90AF909F908F9061
:1027C0007F906F905F904F90089520E030E040E25E
:1027D00051E4C701B6010E94892B6B017C01A50160
:1027E00094010E94542D181644F4A3019201C701CC
:1027F000B6010E94542D181634F010920002D2CF68
:1028000081E08093000280E00E94171381E0CECF28
:10281000FB0101900020E9F73197AF01461B570BF0
:10282000DC01ED91FC910280F381E02D19948F92EF
:102830009F92AF92BF920F931F93CF93DF93CDB729
:10284000DEB7A1970FB6F894DEBF0FBECDBF19A2B9
:10285000423008F44AE08E010F5D1F4F842E912C08
:10286000B12CA12CA50194010E94572BE62FB90190
:10287000CA01EA3004F5E05DD801EE938D01232B07
:10288000242B252B79F790E080E0109729F0BD01EB
:102890008CE596E00E940814A1960FB6F894DEBF6E
:1028A0000FBECDBFDF91CF911F910F91BF90AF9021
:1028B0009F908F900895E95CDFCF4F925F926F9267
:1028C0007F928F929F92AF92BF92CF92DF92EF92C0
:1028D000FF920F931F93CF936B017C01742EAC0179
:1028E0009B010E94C62D6CE372E0811126C0460157
:1028F0005701E894B7F82FEF3FEF4FE75FE7C501C7
:10290000B4010E94C62D81110CC02FEF3FEF4FE79D
:102910005FE7C501B4010E94F52B60E472E0181670
:1029200064F02FEF3FEF4FE75FE4C701B6010E946D
:10293000542D1816ACF464E472E08CE596E0CF9167
:102940001F910F91FF90EF90DF90CF90BF90AF90CD
:102950009F908F907F906F905F904F900C94081491
:102960002FEF3FEF4FE75FECC701B6010E94F52B59
:1029700087FDE1CF20E030E0A901C701B6010E9448
:10298000F52B10E000E087FF0AC06DE28CE596E0D1
:102990000E94A7038C01F7FAF094F7F8F094C0E0D6
:1029A00060E070E080E09FE37C1641F020E030E0E2
:1029B00040E251E40E94FA2BCF5FF6CFA7019601C7
:1029C0000E94892B2B013C010E94732C4B015C015E
:1029D0004AE00E9417147C01E00EF11ECC23C1F1E5
:1029E000C501B4010E94A22C9B01AC01C301B2013C
:1029F0000E94882B4B015C016EE28CE596E00E9400
:102A0000A703E80EF91EC15018F120E030E040E2C3
:102A100051E4C501B4010E94592D2B013C010E94D3
:102A2000732C4B01B12CA12C4AE0C501B4010E94CA
:102A30001714E80EF91EC501B4010E94A22C9B01D7
:102A4000AC01C301B2010E94882B4B015C01DBCFBA
:102A5000C701CF911F910F91FF90EF90DF90CF9022
:102A6000BF90AF909F908F907F906F905F904F90AE
:102A700008952F923F924F925F926F927F928F9222
:102A80009F92AF92BF92CF92DF92EF92FF920F93FD
:102A90001F93CF93DF9300D01F92CDB7DEB70E9474
:102AA000200661E085300CF460E08BE30E9439047D
:102AB0000E94A30B2091A1023091A2024091A30297
:102AC0005091A4020E94882B6B017C0160919C03B1
:102AD00070919D0390E080E00E94A22C20E030E005
:102AE00040E251E40E94FA2B9B01AC01C701B60100
:102AF0000E94542D87FD14C00E94A30B6093A10275
:102B00007093A2028093A3029093A4028091A003E9
:102B10009091A103019721F00E94DD0D0E94540CB9
:102B20008AE093E09C838B83312C212CF101EE0F02
:102B3000FF1FFA83E983E0910907F0910A07898171
:102B40009A81E80FF91F80809180F401E257FF4FCE
:102B500031822082EB81FC8162A173A190E080E050
:102B60000E94A22C20E030E048EC52E40E94FA2BB4
:102B70006B017C01EB81FC8160A171A190E080E0A0
:102B80000E94A22C20E030E048EC52E40E94FA2B94
:102B90002B013C01EB81FC81668D778D90E080E01C
:102BA0000E94A22C20E030E048EC52E40E94FA2B74
:102BB000AB01BC01F401E854FF4F408351836283B1
:102BC0007383349640825182628273823496C082CB
:102BD000D182E282F382EA57F109A080B1809301A9
:102BE0008201C40186960E941C0AC0900907D090F9
:102BF0000A07E981FA81EC0DFD1DE080F180870173
:102C00000C531F4FEB81FC8164A175A190E080E023
:102C10000E94A22C20E030E04AE754E40E94FA2B04
:102C2000F80160837183828393830C5F1F4FEB8174
:102C3000FC8166A177A190E080E00E94A22C20E0B8
:102C400030E040E251E40E94FA2BF8016083718386
:102C500082839383EB81FC8160A571A590E080E085
:102C60000E94A22CF701E052FF4F608371838283A0
:102C70009383F70166877787808B918BF4EAEF0E59
:102C8000F11C60919E0370919F0390E080E00E9490
:102C9000A22C20E030E040E251E40E94FA2BF70140
:102CA00060837183828393838B819C810C969C8348
:102CB0008B832A94232809F0C0C28091A0039091AD
:102CC000A103019709F4E4C0F6010190F081E02D21
:102CD000FA83E983F601E280F38009811A810751C2
:102CE0001F4F81E02091D6033091D703232B09F4A5
:102CF00080E0F8018083F701E751FF4F81E02091E8
:102D0000D8033091D903232B09F480E08083A0906D
:102D10000804B09009048091E8039091E903E981E7
:102D2000FA81E651FF4F21E0009709F420E020836B
:102D3000A114B10421F09093EB038093EA03F7010F
:102D4000E651FF4F81E02091EA033091EB03232B02
:102D500009F480E08083C090F803D090F903898063
:102D60009A80F0ED8F0E911CB60190E080E00E94F9
:102D7000A22C20E030E04AE754E40E94FA2BF40150
:102D80006083718382839383AB2821F0D092FB030D
:102D9000C092FA036701F0EDCF0ED11C6091FA03E7
:102DA0007091FB0390E080E00E94A22C20E030E0D4
:102DB0004AE754E40E94FA2BF60160837183828310
:102DC00093836091CE037091CF0390E080E00E94E6
:102DD000A22C20E030E040E251E40E94FA2B4B01AB
:102DE0005C016091CC037091CD0390E080E00E9483
:102DF000A22C20E030E040E251E40E94FA2B2B01AB
:102E00003C016091CA037091CB0390E080E00E9486
:102E1000A22CE981FA81E452FF4F6083718382839F
:102E20009383E981FA81EC52FF4F408251826282A2
:102E30007382E981FA81E852FF4F80829182A282F7
:102E4000B382F701E452FF4F6083718382839383DF
:102E50003897408251826282738234968082918256
:102E6000A282B382F80180818111EBC189819A81AC
:102E70000E94290EE0910907F0910A07828193814F
:102E8000FC01E751FF4F20812111E5C10E94290E6D
:102E90008091090790910A079A838983FC01008138
:102EA0001181F801E455FF4F20E030E040E251E4A9
:102EB00060817181828193810E94592D0E94732CBF
:102EC0007093A5036093A403E981FA810280F381E2
:102ED000E02DFA83E983E455FF4F20E030E040E243
:102EE00051E460817181828193810E94592D0E94F9
:102EF000732C7093A7036093A603F801E055FF4F6E
:102F000020E030EF4FE755E4608171818281938149
:102F10000E94FA2B20E030E048EC52E40E94592D48
:102F200020E030E040E251E40E94592D0E94732CD1
:102F30007093B5036093B40389819A8180559F4F44
:102F40009A83898320E030EF4FE755E4FC016081EC
:102F50007181828193810E94FA2B20E030E048EC5D
:102F600052E40E94592D20E030E040E251E40E94FA
:102F7000592D0E94732C7093B7036093B60308E831
:102F800013E01A82198280910A0490910B04892B14
:102F900039F08091880390918903F80191838083AF
:102FA000F8016081718190E080E00E94A22C20E015
:102FB00030E040E251E40E94FA2BAB01BC01E09109
:102FC0000907F0910A0789819A81E80FF91F80812A
:102FD00091810E94AE0BE0910907F0910A07898167
:102FE0009A81E80FF91F0190F081E02DE551FF4F24
:102FF00020E030E040E251E4608171818281938180
:103000000E94592D0E94732CF801619371938F01D6
:1030100089819A8102969A838983049709F0B3CFB4
:103020008091D0039091D103019709F06FC01A826B
:103030001982E0910907F0910A0789819A81E80FC6
:10304000F91F0190F081E02DE551FF4F6081718102
:103050008281938142E00E945D1468E472E08CE515
:1030600096E00E940814E0910907F0910A0789810F
:103070009A81E80FF91F0190F081E02DE455FF4F90
:10308000608171818281938142E00E945D1468E4D5
:1030900072E08CE596E00E940814E0910907F09137
:1030A0000A0789819A81E80FF91F0190F081E02DCC
:1030B000E055FF4F20E030EF4FE755E4608171812C
:1030C000828193810E94FA2B20E030E048EC52E4A8
:1030D0000E94592D42E00E945D1468E472E08CE584
:1030E00096E00E940814E981FA813296FA83E98316
:1030F000349709F09ECF0E94A30B46E00E945D1416
:103100006BE472E08CE596E00E9408148091120452
:10311000909113048130910509F078C060E273E06A
:1031200070930B0360930A032CE030E03093150397
:103130002093140390931F0380931E0370930D0339
:1031400060930C0322E330E03093170320931603BF
:1031500010922103109220034CEA5DE050930F037C
:1031600040930E03E3E4F0E0F0931903E0931803B7
:1031700090932303809322035093110340931003F1
:1031800030931B0320931A031092250310922403FB
:10319000109213031092120390931D0380931C034B
:1031A0001092270310922603EAE0F0E0F0939B03CD
:1031B000E0939A033093CB032093CA037093CD031B
:1031C0006093CC035093CF034093CE0330939D0381
:1031D00020939C0328E833E130939F0320939E03C0
:1031E0009093A3038093A20384E893E09093E70372
:1031F0008093E603F0930D04E0930C040E94DD0D30
:103200000E94540C10921304109212040F900F900D
:103210000F900F90DF91CF911F910F91FF90EF9042
:10322000DF90CF90BF90AF909F908F907F906F90E6
:103230005F904F903F902F90089522242394312C3B
:1032400075CC89819A8184559F4FFC01108211822F
:10325000128213820FCE84559F4FFC01108211827F
:103260001282138215CEEF92FF920F931F93CF938A
:10327000DF938091100490911104892B61F01092DA
:103280001104109210040E9420060E94DD0D0E947D
:10329000540C0C9400000E944F0500916807109197
:1032A000690720916A0730916B07061717072807EF
:1032B0003907B8F481E090E09093C9038093C80384
:1032C0001092A1031092A00360E08BE30E943904E6
:1032D0000E94E2128091A602811103C081E08093D6
:1032E000A602C0910907D0910A07E881F981E45547
:1032F000FF4F20E030E0A9016081718182819381DC
:103300000E94F52B87FD0FC0EA81FB81E455FF4F3A
:1033100020E030E0A90160817181828193810E9467
:10332000F52B87FF13C082E090E09093C903809350
:10333000C8031092A1031092A0030E94E212809190
:10334000A502811103C081E08093A502C091090705
:10335000D0910A0708811981F801E455FF4F20E058
:1033600030E842E254E460817181828193810E945D
:10337000542D181694F00A80DB81C02DFE01E4550F
:10338000FF4F20E030E842E254E4608171818281A5
:1033900093810E94542D18161CF481E00E94821D16
:1033A000E090A003F090A10320E030E040EF51E472
:1033B000F801EA59FF4F60817181828193810E94F7
:1033C000542D181694F4F801E055FF4F20E030E03A
:1033D000A90160817181828193810E94F52B811105
:1033E00004C081E0E816F104F9F420E030E040EF99
:1033F00051E4FE01EA59FF4F60817181828193811E
:103400000E94542D181694F4C055DF4F20E030E090
:10341000A901688179818A819B810E94F52B8111A4
:1034200005C0EA94EF2811F082E0B8CFDF91CF9188
:103430001F910F91FF90EF9008951F920F920FB67A
:103440000F9211240BB60F922F933F934F935F93DC
:103450006F937F938F939F93AF93BF93EF93FF935C
:103460008091F6029091F702A091F802B091F902D2
:10347000892B8A2B8B2BD1F19091F5028091000042
:103480008927809300008091F6029091F702A09125
:10349000F802B091F902181619061A061B069CF4D8
:1034A0008091F6029091F702A091F802B091F90292
:1034B0000197A109B1098093F6029093F702A093B6
:1034C000F802B093F902FF91EF91BF91AF919F91F4
:1034D0008F917F916F915F914F913F912F910F90BD
:1034E0000BBE0F900FBE0F901F9018958091010298
:1034F000E6EFF1E0E4919FEF90930102E230E9F012
:1035000040F4EE2389F0E13091F060E00E9439044C
:10351000DACFE43049F110F1E530B9F7909173005A
:103520009D7F90937300F1CF10926E00EECF90913B
:103530006F009D7F90936F00E8CF909170009D7F0A
:103540009093700091E09093B0009091B100987FBB
:1035500094609093B1001092B300D7CF9091710016
:103560009D7F90937100D1CF909172009D7F909339
:103570007200CBCF1F920F920FB60F9211240BB691
:103580000F922F933F934F935F936F937F938F93FC
:103590009F93AF93BF93EF93FF9385E894E00E94CE
:1035A0008503FF91EF91BF91AF919F918F917F9193
:1035B0006F915F914F913F912F910F900BBE0F90A4
:1035C0000FBE0F901F9018951F920F920FB60F927B
:1035D00011240BB60F922F933F934F935F936F93EA
:1035E0007F938F939F93AF93BF93EF93FF9385E860
:1035F00094E00E940703FF91EF91BF91AF919F91DB
:103600008F917F916F915F914F913F912F910F908B
:103610000BBE0F900FBE0F901F9018951F920F9228
:103620000FB60F9211240BB60F922F933F934F9327
:103630005F936F937F938F939F93AF93BF93EF931A
:10364000FF9382E295E00E948503FF91EF91BF9185
:10365000AF919F918F917F916F915F914F913F912A
:103660002F910F900BBE0F900FBE0F901F901895CB
:103670001F920F920FB60F9211240BB60F922F9339
:103680003F934F935F936F937F938F939F93AF93EA
:10369000BF93EF93FF9382E295E00E940703FF91AF
:1036A000EF91BF91AF919F918F917F916F915F91BA
:1036B0004F913F912F910F900BBE0F900FBE0F9027
:1036C0001F9018951F920F920FB60F9211240BB6F0
:1036D0000F922F933F934F935F936F937F938F93AB
:1036E0009F93AF93BF93EF93FF938FEB95E00E946F
:1036F0008503FF91EF91BF91AF919F918F917F9142
:103700006F915F914F913F912F910F900BBE0F9052
:103710000FBE0F901F9018951F920F920FB60F9229
:1037200011240BB60F922F933F934F935F936F9398
:103730007F938F939F93AF93BF93EF93FF938FEB01
:1037400095E00E940703FF91EF91BF91AF919F9188
:103750008F917F916F915F914F913F912F910F903A
:103760000BBE0F900FBE0F901F9018951F920F92D7
:103770000FB60F9211240BB60F922F933F934F93D6
:103780005F936F937F938F939F93AF93BF93EF93C9
:10379000FF938CE596E00E948503FF91EF91BF9126
:1037A000AF919F918F917F916F915F914F913F91D9
:1037B0002F910F900BBE0F900FBE0F901F9018957A
:1037C0001F920F920FB60F9211240BB60F922F93E8
:1037D0003F934F935F936F937F938F939F93AF9399
:1037E000BF93EF93FF938CE596E00E940703FF9150
:1037F000EF91BF91AF919F918F917F916F915F9169
:103800004F913F912F910F900BBE0F900FBE0F90D5
:103810001F9018951F920F920FB60F9211242F939D
:103820003F938F939F93AF93BF938091ED029091BD
:10383000EE02A091EF02B091F0023091EC0223E091
:10384000230F2D3758F50196A11DB11D2093EC02D1
:103850008093ED029093EE02A093EF02B093F002FA
:103860008091F1029091F202A091F302B091F402E2
:103870000196A11DB11D8093F1029093F202A093D5
:10388000F302B093F402BF91AF919F918F913F915A
:103890002F910F900FBE0F901F90189526E8230FC1
:1038A0000296A11DB11DD2CF1F920F920FB60F929B
:1038B00011240BB60F922F933F934F935F936F9307
:1038C0007F938F939F93AF93BF93EF93FF938091D9
:1038D000B900887F803609F44DC008F040C08832B6
:1038E00009F4A9C028F5803109F49DC0C8F48823E3
:1038F00009F4FBC0883009F496C0FF91EF91BF91A5
:10390000AF919F918F917F916F915F914F913F9177
:103910002F910F900BBE0F900FBE0F901F90189518
:10392000883109F488C0803241F78093570414C06D
:10393000803409F49DC040F48033B9F38833E9F64C
:103940008093570485ECB0C0803509F485C0883574
:1039500009F496C0883489F60E942809CECF8839A8
:1039600009F48CC038F5883729F050F4883611F006
:10397000803719F683E0809380041092EB0257C0E1
:10398000883809F47BC0803919F0803809F0B5CF48
:103990008091EB02803208F071C0E091EB0281E08F
:1039A0008E0F8093EB028091BB00F0E0E553FD4F5A
:1039B00080833DC0803B39F0E0F4803A09F479C05F
:1039C000883A09F09ACF84E0809380041092CA026A
:1039D0001092C902E0917C04F0917D0419958091C8
:1039E000C90281110FC081E08093C9021092A9021F
:1039F00009C0803C09F4A6CF883C09F4A3CF883BDA
:103A000009F07BCFE091CA0281E08E0F8093CA0259
:103A1000F0E0E755FD4F80818093BB009091CA0292
:103A20008091C90229C0809134048093BB0085EC49
:103A30008093BC0062CF90915604809155049817F2
:103A400058F5E091560481E08E0F80935604F0E023
:103A5000EB5CFB4F8081E9CFE091560481E08E0F53
:103A6000809356048091BB00F0E0EB5CFB4F8083B9
:103A700090915604809155049817C8F285E8D8CFE4
:103A8000E091560481E08E0F809356048091BB0034
:103A9000F0E0EB5CFB4F808380917F0481115CCF71
:103AA00081E080937E0484EA8093BC0010928004BD
:103AB00024CF85EC8093BC00109280048091EB02AF
:103AC000803230F4E091EB02F0E0E553FD4F1082DC
:103AD0006091EB0270E0E0917A04F0917B048BEC52
:103AE00092E019951092EB0208CF1092570434CF50
:103AF0001F920F920FB60F9211240F900FBE0F90CE
:103B00001F901895C82F0E94E212D0E0D093C703EF
:103B1000C093C60360E086E10E9439040E94391513
:103B20000E948C13FBCFE5E8F4E01382128288EE4A
:103B300093E0A0E0B0E084839583A683B7832CE173
:103B400032E03183208345E351E05587448744E3E5
:103B500051E05787468740E351E0518B408B41E36A
:103B600051E0538B428B42E351E0558B448B46E34B
:103B700051E0578B468B118E128E138E148EE2E21B
:103B8000F5E01382128284839583A683B783318301
:103B9000208345ED50E05587448744ED50E057873A
:103BA000468740ED50E0518B408B41ED50E0538B08
:103BB000428B42ED50E0558B448B46ED50E0578BE5
:103BC000468B118E128E138E148EEFEBF5E013825E
:103BD000128284839583A683B783318320834DEC3F
:103BE00050E0558744874CEC50E05787468748ECB7
:103BF00050E0518B408B49EC50E0538B428B4AECA8
:103C000050E0558B448B4EEC50E0578B468B118E19
:103C1000128E138E148EECE5F6E0138212828483EA
:103C20009583A683B7833183208325EC30E03587E5
:103C3000248724EC30E03787268720EC30E0318B76
:103C4000208B21EC30E0338B228B22EC30E0358B63
:103C5000248B26EC30E0378B268B118E128E138E40
:103C6000148EE9EFF6E01382128284839583A68393
:103C7000B7838EE292E091838083EFE0F7E081E00A
:103C8000848383E0858382E0868388EE93E090934B
:103C900063078093620710920E07EBE0F7E080E77E
:103CA00080831182E5E0F7E0118210821382128294
:103CB000158214820895CF93DF93CDB7DEB7A9970D
:103CC0000FB6F894DEBF0FBECDBF789484B5826086
:103CD00084BD84B5816084BD85B5826085BD85B5B0
:103CE000816085BD80916E00816080936E0010922E
:103CF00081008091810082608093810080918100A9
:103D00008160809381008091800081608093800039
:103D10008091B10084608093B1008091B000816097
:103D20008093B00080919100826080939100809197
:103D300091008160809391008091900081608093D8
:103D400090008091A10082608093A1008091A100E9
:103D500081608093A1008091A00081608093A00089
:103D600080912101826080932101809121018160F5
:103D700080932101809120018160809320018091B6
:103D80007A00846080937A0080917A0082608093C8
:103D90007A0080917A00816080937A0080917A0025
:103DA000806880937A001092C10040E052EC61E09C
:103DB00070E08CE596E00E943F020E94C50480916D
:103DC000B8008093FD028CE08093B80080E60E94EA
:103DD000F30190E080E00E94F70990E080E00E940B
:103DE000F70990E080E00E94F70990E080E00E94EF
:103DF000F70990E080E00E94F70990E080E00E94DF
:103E0000F70990E080E00E94F70990E080E00E94CE
:103E1000F7090E94F00181E60E94F30190E080E042
:103E20000E94F70990E080E00E94F70990E080E0AE
:103E30000E94F70990E080E00E94F70990E080E09E
:103E40000E94F70990E080E00E94F70990E080E08E
:103E50000E94F70990E080E00E94F7090E94F001BB
:103E60008091FD028093B80080E580930D070E9449
:103E7000C5048CE70E94F30180910D0790E0880F44
:103E8000991F0E94170A80E00E94930163E08CE76B
:103E90000E94FD01109284048093830489EF96E0D0
:103EA0000E9469099A83898389EF96E00E946909D3
:103EB0008C0189EF96E00E94690929813A8194E09A
:103EC000220F331F9A95E1F7207F3F70B80144E03D
:103ED000759567954A95E1F76F707727262B372BF5
:103EE0003A8329832A30310509F4CCC46EE472E0A8
:103EF0008CE596E00E94081449815A81BA01550F59
:103F0000880B990B40E10E9417146BE472E08CE57A
:103F100096E00E9408140E94C50484E00E94BB023F
:103F200086E10E94BB0261E086E10E94390468EEEE
:103F300073E080E090E00E941C058BE30E94BB02CE
:103F40008EE10E94BB0260ED77E080E090E00E948D
:103F50001C0508E213E088EE93E09A838983898147
:103F60009A810E94230CD8018D939D938D01E98144
:103F7000FA813496FA83E983E115F44081F704E38A
:103F800013E040ED57E05A83498389819A810E946A
:103F9000230CD8018D939D938D01E981FA8134968C
:103FA000FA83E983E83EF74081F74AE053E05A8319
:103FB00049838A011C821B828B819C810E94230C75
:103FC000D8018D939D938D01EB81FC813496FC8308
:103FD000EB83749789F704E113E08B819C810E9445
:103FE000230CD8018D939D938D01EB81FC81349638
:103FF000FC83EB83B89789F70EE113E08B819C81FA
:104000000E94230CD8018D939D938D01EB81FC813F
:104010003496FC83EB83FC9789F78CE390E00E9455
:10402000230C909399038093980380E490E00E947E
:10403000230C90939B0380939A0384E490E00E9466
:10404000230C9093CB038093CA0388E490E00E94F2
:10405000230C9093CD038093CC038CE490E00E94DA
:10406000230C9093CF038093CE0380E590E00E94D1
:10407000230C90939D0380939C0384E590E00E9421
:10408000230C90939F0380939E0388E590E00E9409
:10409000230C90938903809388038CE590E00E9421
:1040A000230C90938B0380938A0380E690E00E9418
:1040B000230C90938D0380938C0384E690E00E9400
:1040C000230C90938F0380938E0388E690E00E94E8
:1040D000230C90939103809390038CE690E00E94D0
:1040E000230C909393038093920380E790E00E94C7
:1040F000230C909395038093940384E790E00E94AF
:10410000230C909397038093960388E790E00E9496
:10411000230C9093A3038093A2038CE790E00E946A
:10412000230C9093D1038093D00380E890E00E9409
:10413000230C9093D7038093D60384E890E00E94E9
:10414000230C9093D9038093D80388E890E00E94D1
:10415000230C9093DB038093DA038CE890E00E94B9
:10416000230C9093DD038093DC0380E990E00E94B0
:10417000230C9093DF038093DE0384E990E00E9498
:10418000230C9093E1038093E00388E990E00E9480
:10419000230C9093E3038093E2038CE990E00E9468
:1041A000230C9093E5038093E40380EA90E00E945F
:1041B000230C9093E7038093E60384EA90E00E9447
:1041C000230C9093E9038093E80388EA90E00E942F
:1041D000230C9093EB038093EA038CEA90E00E9417
:1041E000230C9093ED038093EC0380EB90E00E940E
:1041F000230C9093EF038093EE0384EB90E00E94F6
:10420000230C9093F1038093F00388EB90E00E94DD
:10421000230C9093F3038093F2038CEB90E00E94C5
:10422000230C9093F5038093F40380EC90E00E94BC
:10423000230C9093F7038093F60384EC90E00E94A4
:10424000230C9093F9038093F80388EC90E00E948C
:10425000230C9093FB038093FA038CEC90E00E9474
:10426000230C9093FD038093FC0380ED90E00E946B
:10427000230C9093FF038093FE0384ED90E00E9453
:10428000230C909301048093000488ED90E00E9439
:10429000230C90930304809302048CED90E00E9421
:1042A000230C909305048093040480EE90E00E9418
:1042B000230C909307048093060484EE90E00E9400
:1042C000230C90930D0480930C0460ED77E080E064
:1042D00090E00E941C052CE032E038872F83912C5F
:1042E000812C8FEE90E00E94D32D9DA38CA3AF81F3
:1042F000B8858D91B887AF8322E331E140E85BE375
:10430000ACA1BDA12D933D934D935C9313972FE7E3
:1043100035E04BE155EB14962D933D934D935C9313
:1043200017971D961C921E921C9719968C9319979D
:1043300098E01A969C931A971B961C921B97FD0166
:1043400012A213A214A215A280871D01F6E22F0E5D
:10435000311CFD01EE56FF4F80819181BE96C080D9
:10436000D180E280F3803497208131814281538172
:104370002B833C834D835E833497408051806280E1
:1043800073809D0120553F4F99963C932E939897AB
:104390002450310997963C932E939697215C3F4F7A
:1043A0009B963C932E939A97E855F1091082389783
:1043B0001082118212821382349620E030E04FE79F
:1043C00053E42083318342835383389724E630E0DB
:1043D00040E050E020833183428353837097918380
:1043E000808320E030E0A901C301B2010E94F52BD7
:1043F00087FD20C020E030E0A9016B817C818D81A8
:104400009E810E94F52B87FD15C020E030E0A901B8
:10441000C701B6010E94F52B87FD0CC0AA24A39406
:10442000B12C0B811C812D813E81B301A201C10100
:104430000E941C0A0E944F05ECA1FDA1E85BFF4F02
:104440006CA07DA034E5630E711CD3010D911D910C
:104450002D913C91601B710B820B930B60837183D8
:1044600082839383ECA1FDA1EE59FF4F8091FC0262
:104470009091FD0291838083ECA1FDA1EC59FF4F47
:1044800080910B0790910C0791838083ECA1FDA193
:10449000EA59FF4F1082118212821382ECA1FDA112
:1044A000E659FF4F20E030E040E753E420833183BA
:1044B00042835383ECA1FDA1E259FF4F80E090E0DD
:1044C000A8E4B2E480839183A283B383ECA1FDA12D
:1044D000EE58FF4F20E030E04AE754E42083318378
:1044E00042835383ECA1FDA1EA58FF4F808391835F
:1044F000A283B383ECA1FDA1E658FF4F81E599E4C7
:10450000ADE1BCE380839183A283B3830CA11DA1A1
:1045100002581F4F23E333EF4DE654E4D8012D93A7
:104520003D934D935C9313970E94CD2A28EC30E085
:1045300040E050E00E94252B6C597F4F8F4F9F4FDA
:104540000E94A42C20E030E04AE754E40E94FA2BB9
:1045500020E030E040E05FE30E94592D9B01AC0178
:10456000ECA1FDA1EE57FF4F20833183428353839B
:10457000ECA0FDA0B6E8EB0EF11CF80160817181A2
:10458000828193810E94592DD7016D937D938D93E4
:104590009C931397ECA1FDA1E657FF4F20E030E07C
:1045A00048EA51E42083318342835383ECA1FDA187
:1045B000EE56FF4F11821082ECA1FDA1EC56FF4F89
:1045C0001082118212821382ECA1FDA1E456FF4FEA
:1045D0008CE291E0A0E0B0E080839183A283B3837A
:1045E0004CA05DA090EA490E511C20E030EF4FE74F
:1045F00055E4D2012D933D934D935C931397ECA119
:10460000FDA1E455FF4F20E030E048EA51E420836B
:10461000318342835383ECA1FDA1E055FF4F10820B
:10462000118212821382ECA1FDA1EC54FF4F108283
:10463000118212821382ECA1FDA1E854FF4F108277
:10464000118212821382ECA1FDA1E454FF4F10826B
:10465000118212821382ECA1FDA1E054FF4F10825F
:10466000118212821382ECA1FDA1EC53FF4F80E076
:1046700090E0A0E8BFE380839183A283B383ECA1A1
:10468000FDA1E853FF4F1082118212821382ECA128
:10469000FDA1E453FF4F1082118212821382ECA11C
:1046A000FDA1E053FF4F8AE097EDA3E2BCE38083D6
:1046B0009183A283B383ECA1FDA1E052FF4F80E080
:1046C00090E0A8ECB4E480839183A283B383ECA14F
:1046D000FDA1EC51FF4F80E090E0AAE7B4E48083B5
:1046E0009183A283B383ECA1FDA1E851FF4F108217
:1046F000ECA1FDA1E751FF4F1082ECA1FDA1E65115
:10470000FF4F1082ECA1FDA1E551FF4F10821182F5
:1047100012821382ECA1FDA1E257FF4F91828082A9
:10472000ECA1FDA1EA5BFF4FA080B180C12CD12C90
:10473000760197018601B701A601C1010E941C0AFA
:10474000D2010D911D912D913C91B701A601C1019E
:104750000E94D50AF30160817181828193810E9458
:10476000A22C9B01AC0160E070E080EA90E40E9422
:10477000FA2B6B017C01AC019B01ACA1BDA1DC96C5
:104780006D917D918D919C91DF970E94592DECA1A7
:10479000FDA164AF75AF86AF97AF8F01005C1F4F6F
:1047A000A7019601D8016D917D918D919C910E94F8
:1047B000FA2BF801608371838283938385E090E014
:1047C000A0E0B0E0F30180839183A283B3830E94D1
:1047D000C504ACA1BDA11D961C921E921C97B0935E
:1047E000FB02A093FA02809107079091080720919D
:1047F0000507309106078217930711F57C01EE0C2F
:10480000FF1C892B09F456C0C701909308078093B9
:104810000707880F991F0E94D32D9C838B830091DB
:10482000090710910A07A701B8010E94F82EC801D4
:104830000E946F2EEB81FC81F0930A07E093090739
:104840002091090730910A0780910507909106078A
:10485000AC014F5F5F4F50930607409305074091AF
:10486000FA025091FB02880F991F820F931FDC01FF
:104870004D935C938A94892809F4B9C18824839460
:10488000912C2FCD102F002700271F70082B0031EF
:1048900055E0150759F06DE672E08CE596E00E9450
:1048A0000814B801110F880B990B2CCB81E0809371
:1048B0000E0731CB81E090E0A8CFE0910907F0919D
:1048C0000A0700811181D801A751BF4F21E08091D3
:1048D000D6039091D703892B09F420E02C932281F1
:1048E00033813A832983F901E751FF4F21E0809119
:1048F000D8039091D903892B09F420E02083C0903C
:104900000804D09009048091E8039091E903F8012C
:10491000E651FF4F21E0009709F420E02083C11405
:10492000D10409F051C2E981FA81E651FF4F21E03B
:104930008091EA039091EB03892B09F420E0208316
:10494000E090F803F090F903580120EDA20EB11C9D
:10495000B70190E080E00E94A22C20E030E04AE71E
:1049600054E40E94FA2BD5016D937D938D939C9313
:104970001397CD2821F0F092FB03E092FA03E9802F
:10498000FA80B0EDEB0EF11C6091FA037091FB031D
:1049900090E080E00E94A22C20E030E04AE754E45E
:1049A0000E94FA2BF7016083718382839383609165
:1049B000CE037091CF0390E080E00E94A22C20E013
:1049C00030E040E251E40E94FA2B6B017C016091DF
:1049D000CC037091CD0390E080E00E94A22C20E0F7
:1049E00030E040E251E40E94FA2B4B015C016091FF
:1049F000CA037091CB0390E080E00E94A22CF801E2
:104A0000E452FF4F6083718382839383389780825F
:104A10009182A282B3823496C082D182E282F382F2
:104A2000E981FA81E452FF4F60837183828393832B
:104A3000E981FA81EC52FF4F80829182A282B38297
:104A400029813A8128523F4FD901CD92DD92ED92D2
:104A5000FC92139780911407823009F4BAC1833015
:104A600009F4BAC1813009F0BAC18FEB95E0909397
:104A7000100780930F0740E052EC61E070E08091F6
:104A80000F07909110070E943F0280911507823016
:104A900078F0809104018066809304018091050183
:104AA0008F7B80930501809105018F7D80930501A7
:104AB00080910F0790911007DC01ED91FC91028429
:104AC000F385E02D199597FFF3CF109258071092B8
:104AD0005907109261071092600710925F071092B9
:104AE0005E0710925D0710925C0788E893E190934F
:104AF0006307809362070E9439158091A00390910B
:104B0000A103019709F06EC18091A2039091A303C4
:104B1000009709F09FC10E94391560918803709138
:104B2000890390E080E00E94A22C20E030E040E287
:104B300051E40E94FA2BAB01BC01E0910907F0910E
:104B40000A07808191810E94AE0B60918A03709167
:104B50008B0390E080E00E94A22C20E030E040E255
:104B600051E40E94FA2BAB01BC01E0910907F091DE
:104B70000A07828193810E94AE0B0E943F1080E061
:104B80000E9417130E9433190E94A30B2091060361
:104B90003091070340910803509109030E94882B2C
:104BA0006B017C01609198037091990390E080E023
:104BB0000E94A22C20E030E040E251E40E94FA2B57
:104BC0009B01AC01C701B6010E94542D181624F4B4
:104BD0001092A1031092A0030E94A30B6093020302
:104BE00070930303809304039093050330C1912CC9
:104BF000812C1401220C331CE0910907F0910A0763
:104C0000E20DF31D408151815C834B83FA01E25731
:104C1000FF4F91828082A981BA8192966D917C9199
:104C200090E080E00E94A22C20E030E048EC52E4CA
:104C30000E94FA2B6B017C01E981FA8160A171A1CC
:104C400090E080E00E94A22C20E030E048EC52E4AA
:104C50000E94FA2B2B013C01A981BA815E966D91CD
:104C60007C9190E080E00E94A22C20E030E048ECB3
:104C700052E40E94FA2BAB01BC01EB81FC81E854A9
:104C8000FF4F4083518362837383EB81FC81E45443
:104C9000FF4F4082518262827382EB81FC81E0543B
:104CA000FF4FC082D182E282F382EB81FC81EA5B1A
:104CB000FF4FA080B180930182018B819C818696F9
:104CC0000E941C0A8091090790910A07280E391E3C
:104CD000F1010190F081E02DFC83EB838F010C53F7
:104CE0001F4FA981BA8194966D917C9190E080E0EC
:104CF0000E94A22C20E030E04AE754E40E94FA2B04
:104D0000F80160837183828393830B811C81085334
:104D10001F4FA981BA8196966D917C9190E080E0B9
:104D20000E94A22C20E030E040E251E40E94FA2BE5
:104D3000F8016083718382839383A981BA819896F5
:104D40006D917C9190E080E00E94A22CEB81FC812F
:104D5000E052FF4F6083718382839383EB81FC81F8
:104D600066877787808B918B8F010C551F4F6091E1
:104D70009E0370919F0390E080E00E94A22C20E0AF
:104D800030E040E251E40E94FA2BD8016D937D930C
:104D90008D939C93139700E010EF2FE735E440E0EC
:104DA00050E0BA018B819C8186960E94D50AE981E8
:104DB000FA813C96FA83E9838A94892809F47DCDA7
:104DC00088248394912C15CF9093EB038093EA036E
:104DD000AACD82E295E04BCE85E894E048CE8CE502
:104DE00096E045CE0E9439150E94E2120E943319C6
:104DF0000E948C130E94A30B609306037093070319
:104E000080930803909309030E94A30B609302030D
:104E100070930303809304039093050310920F048F
:104E200010920E04E0910907F0910A070190F081B9
:104E3000E02DE455FF4F80819181A281B381809361
:104E4000FE029093FF02A0930003B09301030E941F
:104E5000140453CE0197D9F70E9439150E94A30B71
:104E60004090020350900303609004037090050388
:104E7000A30192010E94882B6B017C0160911403B5
:104E80007091150390E080E00E94A22C20E030E0B9
:104E900040E251E40E94FA2B69837B838F839B8FCE
:104EA000609116037091170390E080E00E94A22C9D
:104EB00020E030E040E251E40E94FA2B29813B815E
:104EC0004F815B8D0E94892B6C8F7D8F8E8F9F8F82
:104ED000609118037091190390E080E00E94A22C69
:104EE00020E030E040E251E40E94FA2B2C8D3D8D11
:104EF0004E8D5F8D0E94892B1B018C0160911A03DE
:104F000070911B0390E080E00E94A22C20E030E032
:104F100040E251E40E94FA2B9101A8010E94892BE2
:104F200068A379A38AA39BA3E8E8F3E0FFA3EEA319
:104F300019A618A620E030E0A901C701B6010E9419
:104F4000542D18160CF03AC129813B814F815B8D9D
:104F5000C701B6010E94F52B18160CF42FC1609101
:104F60000A0370910B0390E080E00E94A22C20E0E5
:104F700030E040E251E40E94FA2B69877A878B8700
:104F80009C872091FE023091FF02409100035091D6
:104F900001032D873E874F87588B40911E03509108
:104FA0001F035E8B4D8B609114037091150390E08D
:104FB00080E00E94A22C20E030E040E251E40E9418
:104FC000FA2B698B7A8B8B8B9C8B1F8A188E198E90
:104FD0001A8EE0910907F0910A0788A599A5E80FB4
:104FE000F91FA081B181BDA3ACA3ED89FE893197E2
:104FF00009F03DC22D853E854F85588969857A85A2
:105000008B859C850E94882B29893A894B895C89EC
:105010000E94FA2B4B015C012F89388D498D5A8DE6
:10502000C701B6010E94882B9B01AC01C501B401E8
:105030000E94592D2D853E854F8558890E94892BC8
:10504000AB01BC018CA19DA10E94AE0BE0910907B0
:10505000F0910A0728A539A5E20FF31F0190F0810E
:10506000E02DE551FF4F20E030E040E251E4608167
:105070007181828193810E94592D0E94732CAEA16F
:10508000BFA16D937D93BFA3AEA3E8A5F9A532960A
:10509000F9A7E8A7349709F04DCF609114037091F8
:1050A000150390E080E00E94A22C20E030E040E276
:1050B00051E40E94FA2B6B017C0160911603709100
:1050C000170390E080E00E94A22C20E030E040E254
:1050D00051E40E94FA2B9B01AC01C701B6010E946A
:1050E000892B6B017C01609118037091190390E08A
:1050F00080E00E94A22C20E030E040E251E40E94D7
:10510000FA2B9B01AC01C701B6010E94892B6B01F0
:105110007C0160911A0370911B0390E080E00E9473
:10512000A22C20E030E040E251E40E94FA2B9B01E7
:10513000AC01C701B6010E94892B6B017C01609113
:105140001C0370911D0390E080E00E94A22C20E0DF
:1051500030E040E251E40E94FA2B9B01AC01C70110
:10516000B6010E94892B0E946C2C4B015C010E94AD
:10517000A30BA30192010E94882B6B017C01C50146
:10518000B4010E94A42C9B01AC01C701B6010E948E
:10519000542D18160CF470C10E943F1080E00E943C
:1051A00017130E9433190E94A30B60930603709398
:1051B0000703809308039093090349CE29813B811B
:1051C0004F815B8DC701B6010E94542D18160CF05B
:1051D00050C02C8D3D8D4E8D5F8DC701B6010E9454
:1051E000F52B18160CF445C060910C0370910D035B
:1051F00090E080E00E94A22C20E030E040E251E408
:105200000E94FA2B69877A878B879C8760910A03B3
:1052100070910B0390E080E00E94A22C20E030E02F
:1052200040E251E40E94FA2B6D877E878F87988B2E
:1052300080912003909121039E8B8D8B60911603AA
:105240007091170390E080E00E94A22C20E030E0F3
:1052500040E251E40E94FA2B698B7A8B8B8B9C8BFA
:1052600099819F8BAB81A88FBF81B98FEB8DEA8F1E
:10527000B0CE2C8D3D8D4E8D5F8DC701B6010E9445
:10528000542D18160CF04EC09101A801C701B601AB
:105290000E94F52B18160CF445C060910E03709116
:1052A0000F0390E080E00E94A22C20E030E040E27A
:1052B00051E40E94FA2B69877A878B879C876091DB
:1052C0000C0370910D0390E080E00E94A22C20E07E
:1052D00030E040E251E40E94FA2B6D877E878F8791
:1052E000988B20912203309123033E8B2D8B60916C
:1052F00018037091190390E080E00E94A22C20E036
:1053000030E040E251E40E94FA2B698B7A8B8B8B60
:105310009C8B3C8D3F8B4D8D488F5E8D598F8F8D33
:105320008A8F57CE9101A801C701B6010E94542D62
:1053300018160CF04CC028A139A14AA15BA1C701E5
:10534000B6010E94F52B18160CF441C060911003B1
:105350007091110390E080E00E94A22C20E030E0E8
:1053600040E251E40E94FA2B69877A878B879C87F9
:1053700060910E0370910F0390E080E00E94A22CD8
:1053800020E030E040E251E40E94FA2B6D877E87F6
:105390008F87988BA0912403B0912503BE8BAD8B92
:1053A00060911A0370911B0390E080E00E94A22C90
:1053B00020E030E040E251E40E94FA2B698B7A8BC6
:1053C0008B8B9C8B2F8A388E098F1A8F02CE28A147
:1053D00039A14AA15BA1C701B6010E94542D18163C
:1053E0000CF0F7CD609112037091130390E080E010
:1053F0000E94A22C20E030E040E251E40E94FA2B0F
:1054000069877A878B879C8760911003709111035D
:1054100090E080E00E94A22C20E030E040E251E4E5
:105420000E94FA2B6D877E878F87988BE0912603E9
:10543000F0912703FE8BED8B60911C0370911D038F
:1054400090E080E00E94A22C20E030E040E251E4B5
:105450000E94FA2B698B7A8B8B8B9C8BF8A1FF8B2C
:1054600029A1288F3AA1398F4BA14A8FB2CD498506
:105470005A856B857C85E6CD0E94E2120E948C13D2
:10548000882341F10E94A30B6093020370930303EE
:105490008093040390930503E0910907F0910A07B4
:1054A0000190F081E02DE455FF4F80819181A28130
:1054B000B3818093FE029093FF02A0930003B09308
:1054C000010380910E0490910F04019690930F04B4
:1054D00080930E0420910E0430910F0480910C04EF
:1054E00090910D042817390708F45BCE1092A103A0
:1054F0001092A00356CE8091090790910A070C9450
:105500006F2E8F929F92AF92BF92CF92DF92EF92C7
:10551000FF92CF93DF93EC01688179818A819B812F
:10552000611571058105910521F464E279ED8BE542
:1055300097E02DE133EF41E050E00E94252B490137
:105540005A019B01AC01A7EAB1E40E94442B6B0114
:105550007C01ACEEB4EFA50194010E94522BC60E63
:10556000D71EE81EF91EF7FE06C081E0C81AD10852
:10557000E10880E8F80AC882D982EA82FB82C70182
:10558000B6019F77DF91CF91FF90EF90DF90CF90A2
:10559000BF90AF909F908F9008958F929F92AF92FF
:1055A000BF92CF92DF92EF92FF92609102027091D0
:1055B0000302809104029091050261157105810535
:1055C000910521F464E279ED8BE597E02DE133EF6D
:1055D00041E050E00E94252B49015A019B01AC019A
:1055E000A7EAB1E40E94442B6B017C01ACEEB4EF5E
:1055F000A50194010E94522BC60ED71EE81EF91E6B
:10560000F7FE06C081E0C81AD108E10880E8F80A70
:10561000C0920202D0920302E0920402F0920502CC
:10562000C701B6019F77FF90EF90DF90CF90BF90BA
:10563000AF909F908F900895609302027093030241
:1056400080930402909305020895052E97FB1EF4A3
:1056500000940E943C2B57FD07D00E94572B07FC5B
:1056600003D04EF40C943C2B5095409530952195E9
:105670003F4F4F4F5F4F089590958095709561957E
:105680007F4F8F4F9F4F08950E94792BA59F900DBC
:10569000B49F900DA49F800D911D11240895B7FF14
:1056A0000C94442B0E94442B821B930B0895A1E27F
:1056B0001A2EAA1BBB1BFD010DC0AA1FBB1FEE1F8C
:1056C000FF1FA217B307E407F50720F0A21BB30BD7
:1056D000E40BF50B661F771F881F991F1A9469F753
:1056E00060957095809590959B01AC01BD01CF01AF
:1056F0000895A29FB001B39FC001A39F700D811DAB
:105700001124911DB29F700D811D1124911D0895CA
:105710005058BB27AA270E94A02B0C941A2D0E9438
:105720000C2D38F00E94132D20F039F49F3F19F40E
:1057300026F40C94092D0EF4E095E7FB0C94032D50
:10574000E92F0E942B2D58F3BA17620773078407BD
:10575000950720F079F4A6F50C944D2D0EF4E09504
:105760000B2EBA2FA02D0B01B90190010C01CA011B
:10577000A0011124FF27591B99F0593F50F4503EC6
:1057800068F11A16F040A22F232F342F4427585FB8
:10579000F3CF469537952795A795F0405395C9F7D0
:1057A0007EF41F16BA0B620B730B840BBAF0915088
:1057B000A1F0FF0FBB1F661F771F881FC2F70EC027
:1057C000BA0F621F731F841F48F4879577956795FA
:1057D000B795F7959E3F08F0B0CF9395880F08F0E6
:1057E0009927EE0F9795879508950E94DF2C08F46E
:1057F00081E008950E940E2C0C941A2D0E94132D06
:1058000058F00E940C2D40F029F45F3F29F00C94D1
:10581000032D51110C944E2D0C94092D0E942B2D0B
:1058200068F39923B1F3552391F3951B550BBB27CF
:10583000AA2762177307840738F09F5F5F4F220F14
:10584000331F441FAA1FA9F335D00E2E3AF0E0E80B
:1058500032D091505040E695001CCAF72BD0FE2F55
:1058600029D0660F771F881FBB1F261737074807E9
:10587000AB07B0E809F0BB0B802DBF01FF279358A1
:105880005F4F3AF09E3F510578F00C94032D0C9435
:105890004E2D5F3FE4F3983ED4F386957795679558
:1058A000B795F7959F5FC9F7880F911D96958795D6
:1058B00097F90895E1E0660F771F881FBB1F6217F5
:1058C00073078407BA0720F0621B730B840BBA0BB3
:1058D000EE1F88F7E09508950E94732C6894B1112B
:1058E0000C944E2D08950E94332D88F09F5798F008
:1058F000B92F9927B751B0F0E1F0660F771F881FD5
:10590000991F1AF0BA95C9F714C0B13091F00E94EE
:105910004D2DB1E008950C944D2D672F782F8827D9
:10592000B85F39F0B93FCCF3869577956795B39515
:10593000D9F73EF490958095709561957F4F8F4F84
:105940009F4F0895E89409C097FB3EF49095809589
:10595000709561957F4F8F4F9F4F9923A9F0F92F35
:1059600096E9BB279395F695879577956795B795B3
:10597000F111F8CFFAF4BB0F11F460FF1BC06F5F99
:105980007F4F8F4F9F4F16C0882311F096E911C0AB
:10599000772321F09EE8872F762F05C0662371F0CC
:1059A00096E8862F70E060E02AF09A95660F771FE0
:1059B000881FDAF7880F9695879597F90895990FBC
:1059C0000008550FAA0BE0E8FEEF16161706E807C9
:1059D000F907C0F012161306E407F50798F0621BEA
:1059E000730B840B950B39F40A2661F0232B242BBF
:1059F000252B21F408950A2609F4A140A6958FEFDE
:105A0000811D811D089597F99F6780E870E060E02F
:105A100008959FEF80EC089500240A941616170647
:105A200018060906089500240A941216130614068F
:105A300005060895092E0394000C11F4882352F0F2
:105A4000BB0F40F4BF2B11F460FF04C06F5F7F4FAA
:105A50008F4F9F4F089557FD9058440F551F59F091
:105A60005F3F71F04795880F97FB991F61F09F3F4B
:105A700079F087950895121613061406551FF2CF74
:105A80004695F1DF08C0161617061806991FF1CFC4
:105A900086957105610508940895E894BB276627EB
:105AA0007727CB0197F908950E94DF2C08F48FEF38
:105AB00008950E946C2D0C941A2D0E940C2D38F024
:105AC0000E94132D20F0952311F00C94032D0C94BB
:105AD000092D11240C944E2D0E942B2D70F3959FAF
